{
  "_format": "hh-sol-artifact-1",
  "contractName": "MasterChefUpgradeable",
  "sourceName": "contracts/MasterChefUpgradeable.sol",
  "abi": [
    {
      "inputs": [],
      "stateMutability": "nonpayable",
      "type": "constructor"
    },
    {
      "anonymous": false,
      "inputs": [
        {
          "indexed": false,
          "internalType": "address",
          "name": "previousAdmin",
          "type": "address"
        },
        {
          "indexed": false,
          "internalType": "address",
          "name": "newAdmin",
          "type": "address"
        }
      ],
      "name": "AdminChanged",
      "type": "event"
    },
    {
      "anonymous": false,
      "inputs": [
        {
          "indexed": true,
          "internalType": "address",
          "name": "beacon",
          "type": "address"
        }
      ],
      "name": "BeaconUpgraded",
      "type": "event"
    },
    {
      "anonymous": false,
      "inputs": [
        {
          "indexed": true,
          "internalType": "address",
          "name": "user",
          "type": "address"
        },
        {
          "indexed": true,
          "internalType": "uint256",
          "name": "pid",
          "type": "uint256"
        },
        {
          "indexed": false,
          "internalType": "uint256",
          "name": "amount",
          "type": "uint256"
        }
      ],
      "name": "Deposit",
      "type": "event"
    },
    {
      "anonymous": false,
      "inputs": [
        {
          "indexed": true,
          "internalType": "address",
          "name": "user",
          "type": "address"
        },
        {
          "indexed": true,
          "internalType": "uint256",
          "name": "pid",
          "type": "uint256"
        },
        {
          "indexed": false,
          "internalType": "uint256",
          "name": "amounts",
          "type": "uint256"
        }
      ],
      "name": "EmergencyWithdraw",
      "type": "event"
    },
    {
      "anonymous": false,
      "inputs": [
        {
          "indexed": true,
          "internalType": "address",
          "name": "previousOwner",
          "type": "address"
        },
        {
          "indexed": true,
          "internalType": "address",
          "name": "newOwner",
          "type": "address"
        }
      ],
      "name": "OwnershipTransferred",
      "type": "event"
    },
    {
      "anonymous": false,
      "inputs": [
        {
          "indexed": true,
          "internalType": "address",
          "name": "implementation",
          "type": "address"
        }
      ],
      "name": "Upgraded",
      "type": "event"
    },
    {
      "anonymous": false,
      "inputs": [
        {
          "indexed": true,
          "internalType": "address",
          "name": "user",
          "type": "address"
        },
        {
          "indexed": true,
          "internalType": "uint256",
          "name": "pid",
          "type": "uint256"
        },
        {
          "indexed": false,
          "internalType": "uint256",
          "name": "amount",
          "type": "uint256"
        }
      ],
      "name": "Withdraw",
      "type": "event"
    },
    {
      "inputs": [
        {
          "internalType": "uint256",
          "name": "_allocPoint",
          "type": "uint256"
        },
        {
          "internalType": "contract IERC20Upgradeable",
          "name": "_lpToken",
          "type": "address"
        },
        {
          "internalType": "bool",
          "name": "_withUpdate",
          "type": "bool"
        }
      ],
      "name": "add",
      "outputs": [],
      "stateMutability": "nonpayable",
      "type": "function"
    },
    {
      "inputs": [],
      "name": "bonusEndBlock",
      "outputs": [
        {
          "internalType": "uint256",
          "name": "",
          "type": "uint256"
        }
      ],
      "stateMutability": "view",
      "type": "function"
    },
    {
      "inputs": [
        {
          "internalType": "uint256",
          "name": "_pid",
          "type": "uint256"
        },
        {
          "internalType": "uint256",
          "name": "_amount",
          "type": "uint256"
        }
      ],
      "name": "deposit",
      "outputs": [],
      "stateMutability": "nonpayable",
      "type": "function"
    },
    {
      "inputs": [
        {
          "internalType": "uint256",
          "name": "_pid",
          "type": "uint256"
        }
      ],
      "name": "emergencyWithdraw",
      "outputs": [],
      "stateMutability": "nonpayable",
      "type": "function"
    },
    {
      "inputs": [],
      "name": "firo",
      "outputs": [
        {
          "internalType": "contract FiroToken",
          "name": "",
          "type": "address"
        }
      ],
      "stateMutability": "view",
      "type": "function"
    },
    {
      "inputs": [],
      "name": "firoPerBlock",
      "outputs": [
        {
          "internalType": "uint256",
          "name": "",
          "type": "uint256"
        }
      ],
      "stateMutability": "view",
      "type": "function"
    },
    {
      "inputs": [
        {
          "internalType": "address",
          "name": "_user",
          "type": "address"
        }
      ],
      "name": "getLockInfo",
      "outputs": [
        {
          "internalType": "bool[]",
          "name": "isWithdrawns",
          "type": "bool[]"
        },
        {
          "internalType": "address[]",
          "name": "tokens",
          "type": "address[]"
        },
        {
          "internalType": "uint256[]",
          "name": "unlockableAts",
          "type": "uint256[]"
        },
        {
          "internalType": "uint256[]",
          "name": "amounts",
          "type": "uint256[]"
        }
      ],
      "stateMutability": "view",
      "type": "function"
    },
    {
      "inputs": [
        {
          "internalType": "address",
          "name": "_addr",
          "type": "address"
        },
        {
          "internalType": "uint256[]",
          "name": "_indexes",
          "type": "uint256[]"
        }
      ],
      "name": "getLockInfoByIndexes",
      "outputs": [
        {
          "internalType": "bool[]",
          "name": "isWithdrawns",
          "type": "bool[]"
        },
        {
          "internalType": "address[]",
          "name": "tokens",
          "type": "address[]"
        },
        {
          "internalType": "uint256[]",
          "name": "unlockableAts",
          "type": "uint256[]"
        },
        {
          "internalType": "uint256[]",
          "name": "amounts",
          "type": "uint256[]"
        }
      ],
      "stateMutability": "view",
      "type": "function"
    },
    {
      "inputs": [
        {
          "internalType": "address",
          "name": "_addr",
          "type": "address"
        }
      ],
      "name": "getLockInfoLength",
      "outputs": [
        {
          "internalType": "uint256",
          "name": "",
          "type": "uint256"
        }
      ],
      "stateMutability": "view",
      "type": "function"
    },
    {
      "inputs": [
        {
          "internalType": "uint256",
          "name": "_from",
          "type": "uint256"
        },
        {
          "internalType": "uint256",
          "name": "_to",
          "type": "uint256"
        }
      ],
      "name": "getMultiplier",
      "outputs": [
        {
          "internalType": "uint256",
          "name": "",
          "type": "uint256"
        }
      ],
      "stateMutability": "view",
      "type": "function"
    },
    {
      "inputs": [
        {
          "internalType": "uint256",
          "name": "_pid",
          "type": "uint256"
        }
      ],
      "name": "getPoolInfo",
      "outputs": [
        {
          "internalType": "uint256",
          "name": "allocPoint",
          "type": "uint256"
        },
        {
          "internalType": "uint256",
          "name": "lastRewardBlock",
          "type": "uint256"
        },
        {
          "internalType": "uint256",
          "name": "accFiroPerShare",
          "type": "uint256"
        }
      ],
      "stateMutability": "view",
      "type": "function"
    },
    {
      "inputs": [],
      "name": "getStartBlock",
      "outputs": [
        {
          "internalType": "uint256",
          "name": "",
          "type": "uint256"
        }
      ],
      "stateMutability": "view",
      "type": "function"
    },
    {
      "inputs": [
        {
          "internalType": "uint256",
          "name": "_pid",
          "type": "uint256"
        },
        {
          "internalType": "address",
          "name": "_user",
          "type": "address"
        }
      ],
      "name": "getUserInfo",
      "outputs": [
        {
          "internalType": "uint256",
          "name": "amount",
          "type": "uint256"
        },
        {
          "internalType": "uint256",
          "name": "rewardDebt",
          "type": "uint256"
        }
      ],
      "stateMutability": "view",
      "type": "function"
    },
    {
      "inputs": [
        {
          "internalType": "address",
          "name": "_locking",
          "type": "address"
        },
        {
          "internalType": "address",
          "name": "_vesting",
          "type": "address"
        },
        {
          "internalType": "uint256",
          "name": "_firoPerBlock",
          "type": "uint256"
        },
        {
          "internalType": "uint256",
          "name": "_startBlock",
          "type": "uint256"
        },
        {
          "internalType": "uint256",
          "name": "_bonusEndBlock",
          "type": "uint256"
        },
        {
          "internalType": "uint256",
          "name": "_lockingDuration",
          "type": "uint256"
        },
        {
          "internalType": "uint256",
          "name": "_vestingDuration",
          "type": "uint256"
        }
      ],
      "name": "initialize",
      "outputs": [],
      "stateMutability": "nonpayable",
      "type": "function"
    },
    {
      "inputs": [
        {
          "internalType": "address",
          "name": "_token",
          "type": "address"
        },
        {
          "internalType": "address",
          "name": "_addr",
          "type": "address"
        },
        {
          "internalType": "uint256",
          "name": "_amount",
          "type": "uint256"
        },
        {
          "internalType": "uint256",
          "name": "_lockedTime",
          "type": "uint256"
        }
      ],
      "name": "lock",
      "outputs": [],
      "stateMutability": "nonpayable",
      "type": "function"
    },
    {
      "inputs": [],
      "name": "locking",
      "outputs": [
        {
          "internalType": "contract Locking",
          "name": "",
          "type": "address"
        }
      ],
      "stateMutability": "view",
      "type": "function"
    },
    {
      "inputs": [],
      "name": "lockingDuration",
      "outputs": [
        {
          "internalType": "uint256",
          "name": "",
          "type": "uint256"
        }
      ],
      "stateMutability": "view",
      "type": "function"
    },
    {
      "inputs": [],
      "name": "massUpdatePools",
      "outputs": [],
      "stateMutability": "nonpayable",
      "type": "function"
    },
    {
      "inputs": [
        {
          "internalType": "uint256",
          "name": "_pid",
          "type": "uint256"
        }
      ],
      "name": "migrate",
      "outputs": [],
      "stateMutability": "nonpayable",
      "type": "function"
    },
    {
      "inputs": [],
      "name": "migrator",
      "outputs": [
        {
          "internalType": "contract IMigratorChef",
          "name": "",
          "type": "address"
        }
      ],
      "stateMutability": "view",
      "type": "function"
    },
    {
      "inputs": [],
      "name": "owner",
      "outputs": [
        {
          "internalType": "address",
          "name": "",
          "type": "address"
        }
      ],
      "stateMutability": "view",
      "type": "function"
    },
    {
      "inputs": [
        {
          "internalType": "uint256",
          "name": "_pid",
          "type": "uint256"
        },
        {
          "internalType": "address",
          "name": "_user",
          "type": "address"
        }
      ],
      "name": "pendingFiro",
      "outputs": [
        {
          "internalType": "uint256",
          "name": "",
          "type": "uint256"
        }
      ],
      "stateMutability": "view",
      "type": "function"
    },
    {
      "inputs": [
        {
          "internalType": "uint256",
          "name": "",
          "type": "uint256"
        }
      ],
      "name": "poolInfo",
      "outputs": [
        {
          "internalType": "contract IERC20Upgradeable",
          "name": "lpToken",
          "type": "address"
        },
        {
          "internalType": "uint256",
          "name": "allocPoint",
          "type": "uint256"
        },
        {
          "internalType": "uint256",
          "name": "lastRewardBlock",
          "type": "uint256"
        },
        {
          "internalType": "uint256",
          "name": "accFiroPerShare",
          "type": "uint256"
        },
        {
          "internalType": "bool",
          "name": "isEmergency",
          "type": "bool"
        }
      ],
      "stateMutability": "view",
      "type": "function"
    },
    {
      "inputs": [],
      "name": "poolLength",
      "outputs": [
        {
          "internalType": "uint256",
          "name": "",
          "type": "uint256"
        }
      ],
      "stateMutability": "view",
      "type": "function"
    },
    {
      "inputs": [],
      "name": "renounceOwnership",
      "outputs": [],
      "stateMutability": "nonpayable",
      "type": "function"
    },
    {
      "inputs": [
        {
          "internalType": "uint256",
          "name": "_pid",
          "type": "uint256"
        },
        {
          "internalType": "uint256",
          "name": "_allocPoint",
          "type": "uint256"
        },
        {
          "internalType": "bool",
          "name": "_withUpdate",
          "type": "bool"
        }
      ],
      "name": "set",
      "outputs": [],
      "stateMutability": "nonpayable",
      "type": "function"
    },
    {
      "inputs": [
        {
          "internalType": "uint256",
          "name": "_pid",
          "type": "uint256"
        },
        {
          "internalType": "bool",
          "name": "_isEmergency",
          "type": "bool"
        }
      ],
      "name": "setEmergency",
      "outputs": [],
      "stateMutability": "nonpayable",
      "type": "function"
    },
    {
      "inputs": [
        {
          "internalType": "contract IMigratorChef",
          "name": "_migrator",
          "type": "address"
        }
      ],
      "name": "setMigrator",
      "outputs": [],
      "stateMutability": "nonpayable",
      "type": "function"
    },
    {
      "inputs": [
        {
          "internalType": "uint256",
          "name": "_startBlock",
          "type": "uint256"
        }
      ],
      "name": "setStartBlock",
      "outputs": [],
      "stateMutability": "nonpayable",
      "type": "function"
    },
    {
      "inputs": [],
      "name": "startBlock",
      "outputs": [
        {
          "internalType": "uint256",
          "name": "",
          "type": "uint256"
        }
      ],
      "stateMutability": "view",
      "type": "function"
    },
    {
      "inputs": [],
      "name": "totalAllocPoint",
      "outputs": [
        {
          "internalType": "uint256",
          "name": "",
          "type": "uint256"
        }
      ],
      "stateMutability": "view",
      "type": "function"
    },
    {
      "inputs": [
        {
          "internalType": "address",
          "name": "newOwner",
          "type": "address"
        }
      ],
      "name": "transferOwnership",
      "outputs": [],
      "stateMutability": "nonpayable",
      "type": "function"
    },
    {
      "inputs": [
        {
          "internalType": "address",
          "name": "_addr",
          "type": "address"
        },
        {
          "internalType": "uint256",
          "name": "index",
          "type": "uint256"
        }
      ],
      "name": "unlock",
      "outputs": [],
      "stateMutability": "nonpayable",
      "type": "function"
    },
    {
      "inputs": [
        {
          "internalType": "address",
          "name": "_addr",
          "type": "address"
        }
      ],
      "name": "unlockVesting",
      "outputs": [],
      "stateMutability": "nonpayable",
      "type": "function"
    },
    {
      "inputs": [
        {
          "internalType": "uint256",
          "name": "_pid",
          "type": "uint256"
        }
      ],
      "name": "updatePool",
      "outputs": [],
      "stateMutability": "nonpayable",
      "type": "function"
    },
    {
      "inputs": [
        {
          "internalType": "address",
          "name": "newImplementation",
          "type": "address"
        }
      ],
      "name": "upgradeTo",
      "outputs": [],
      "stateMutability": "nonpayable",
      "type": "function"
    },
    {
      "inputs": [
        {
          "internalType": "address",
          "name": "newImplementation",
          "type": "address"
        },
        {
          "internalType": "bytes",
          "name": "data",
          "type": "bytes"
        }
      ],
      "name": "upgradeToAndCall",
      "outputs": [],
      "stateMutability": "payable",
      "type": "function"
    },
    {
      "inputs": [
        {
          "internalType": "uint256",
          "name": "",
          "type": "uint256"
        },
        {
          "internalType": "address",
          "name": "",
          "type": "address"
        }
      ],
      "name": "userInfo",
      "outputs": [
        {
          "internalType": "uint256",
          "name": "amount",
          "type": "uint256"
        },
        {
          "internalType": "uint256",
          "name": "rewardDebt",
          "type": "uint256"
        }
      ],
      "stateMutability": "view",
      "type": "function"
    },
    {
      "inputs": [],
      "name": "vesting",
      "outputs": [
        {
          "internalType": "contract Vesting",
          "name": "",
          "type": "address"
        }
      ],
      "stateMutability": "view",
      "type": "function"
    },
    {
      "inputs": [],
      "name": "vestingDuration",
      "outputs": [
        {
          "internalType": "uint256",
          "name": "",
          "type": "uint256"
        }
      ],
      "stateMutability": "view",
      "type": "function"
    },
    {
      "inputs": [
        {
          "internalType": "uint256",
          "name": "_pid",
          "type": "uint256"
        },
        {
          "internalType": "uint256",
          "name": "_amount",
          "type": "uint256"
        }
      ],
      "name": "withdraw",
      "outputs": [],
      "stateMutability": "nonpayable",
      "type": "function"
    }
  ],
  "bytecode": "0x60a06040523060601b6080523480156200001857600080fd5b50600054610100900460ff168062000033575060005460ff16155b6200009b5760405162461bcd60e51b815260206004820152602e60248201527f496e697469616c697a61626c653a20636f6e747261637420697320616c72656160448201526d191e481a5b9a5d1a585b1a5e995960921b606482015260840160405180910390fd5b600054610100900460ff16158015620000be576000805461ffff19166101011790555b8015620000d1576000805461ff00191690555b5060805160601c612ea86200010660003960008181610abc01528181610afc0152818161100401526110440152612ea86000f3fe6080604052600436106102465760003560e01c806358ad5a8b11610139578063a5f18c01116100b6578063e62e17891161007a578063e62e17891461071b578063edbf4ac21461073b578063f1a585421461075b578063f2fde38b1461077b578063f35e4a6e1461079b578063f91d0679146107bb57610246565b8063a5f18c0114610690578063bc277928146106a5578063cea8c746146106c5578063dcf9e59e146106db578063e2bbb158146106fb57610246565b80637cd07e47116100fd5780637cd07e47146105d35780637eee288d146105f35780638da5cb5b146106135780638dbb1e3a1461063157806393f1a40b1461065157610246565b806358ad5a8b14610539578063630b5ba11461055957806364482f791461056e578063715018a61461058e5780637238ccdb146105a357610246565b8063441a3e70116101c75780634b86c2251161018b5780634b86c225146104b05780634f0755a0146104d05780634f1ef286146104e657806351eb05a6146104f95780635312ea8e1461051957610246565b8063441a3e701461040257806344c63eec14610422578063454b06081461045a57806348cd4cb11461047a5780634a6433f01461049057610246565b80631aed65531161020e5780631aed65531461034f5780631eaaa0451461036557806323cf3118146103875780632f380b35146103a75780633659cfe6146103e257610246565b8063081e3eda1461024b5780631069f3b51461026f5780631514617e146102cf5780631526fe27146102e557806317caf6f114610339575b600080fd5b34801561025757600080fd5b5060cd545b6040519081526020015b60405180910390f35b34801561027b57600080fd5b506102ba61028a3660046129a6565b600091825260ce602090815260408084206001600160a01b03939093168452919052902080546001909101549091565b60408051928352602083019190915201610266565b3480156102db57600080fd5b5061025c60d45481565b3480156102f157600080fd5b50610305610300366004612976565b6107db565b604080516001600160a01b03909616865260208601949094529284019190915260608301521515608082015260a001610266565b34801561034557600080fd5b5061025c60cf5481565b34801561035b57600080fd5b5061025c60ca5481565b34801561037157600080fd5b506103856103803660046129f9565b610829565b005b34801561039357600080fd5b506103856103a23660046125fa565b6109ba565b3480156103b357600080fd5b506103c76103c2366004612976565b610a06565b60408051938452602084019290925290820152606001610266565b3480156103ee57600080fd5b506103856103fd3660046125fa565b610ab1565b34801561040e57600080fd5b5061038561041d366004612a3a565b610b7a565b34801561042e57600080fd5b5060d154610442906001600160a01b031681565b6040516001600160a01b039091168152602001610266565b34801561046657600080fd5b50610385610475366004612976565b610d08565b34801561048657600080fd5b5061025c60d05481565b34801561049c57600080fd5b5060c954610442906001600160a01b031681565b3480156104bc57600080fd5b506103856104cb366004612616565b610f7d565b3480156104dc57600080fd5b5061025c60cb5481565b6103856104f4366004612764565b610ff9565b34801561050557600080fd5b50610385610514366004612976565b6110b3565b34801561052557600080fd5b50610385610534366004612976565b6111fb565b34801561054557600080fd5b5060d254610442906001600160a01b031681565b34801561056557600080fd5b506103856112ee565b34801561057a57600080fd5b50610385610589366004612a5b565b611315565b34801561059a57600080fd5b506103856113e0565b3480156105af57600080fd5b506105c36105be3660046125fa565b611416565b6040516102669493929190612b02565b3480156105df57600080fd5b5060cc54610442906001600160a01b031681565b3480156105ff57600080fd5b5061038561060e366004612806565b6114ad565b34801561061f57600080fd5b506097546001600160a01b0316610442565b34801561063d57600080fd5b5061025c61064c366004612a3a565b611517565b34801561065d57600080fd5b506102ba61066c3660046129a6565b60ce6020908152600092835260408084209091529082529020805460019091015482565b34801561069c57600080fd5b5060d05461025c565b3480156106b157600080fd5b506103856106c03660046125fa565b611571565b3480156106d157600080fd5b5061025c60d35481565b3480156106e757600080fd5b506105c36106f63660046126bc565b6115d3565b34801561070757600080fd5b50610385610716366004612a3a565b611672565b34801561072757600080fd5b506103856107363660046129d5565b611795565b34801561074757600080fd5b5061038561075636600461265b565b611849565b34801561076757600080fd5b5061025c6107763660046125fa565b61190c565b34801561078757600080fd5b506103856107963660046125fa565b61198a565b3480156107a757600080fd5b506103856107b6366004612976565b60d055565b3480156107c757600080fd5b5061025c6107d63660046129a6565b611a22565b60cd81815481106107eb57600080fd5b6000918252602090912060059091020180546001820154600283015460038401546004909401546001600160a01b0390931694509092909160ff1685565b6097546001600160a01b0316331461085c5760405162461bcd60e51b815260040161085390612cbd565b60405180910390fd5b801561086a5761086a6112ee565b600060d054431161087d5760d05461087f565b435b60cf5490915061088f9085611b9b565b60cf556040805160a0810182526001600160a01b039485168152602081019586529081019182526000606082018181526080830182815260cd8054600181018255935292517f83978b4c69c48dd978ab43fe30f077615294f938fb7f936d9eb340e51ea7db2e600590930292830180546001600160a01b031916919097161790955594517f83978b4c69c48dd978ab43fe30f077615294f938fb7f936d9eb340e51ea7db2f86015590517f83978b4c69c48dd978ab43fe30f077615294f938fb7f936d9eb340e51ea7db3085015591517f83978b4c69c48dd978ab43fe30f077615294f938fb7f936d9eb340e51ea7db3184015550517f83978b4c69c48dd978ab43fe30f077615294f938fb7f936d9eb340e51ea7db32909101805460ff1916911515919091179055565b6097546001600160a01b031633146109e45760405162461bcd60e51b815260040161085390612cbd565b60cc80546001600160a01b0319166001600160a01b0392909216919091179055565b600080600060cd8481548110610a2c57634e487b7160e01b600052603260045260246000fd5b906000526020600020906005020160010154925060cd8481548110610a6157634e487b7160e01b600052603260045260246000fd5b906000526020600020906005020160020154915060cd8481548110610a9657634e487b7160e01b600052603260045260246000fd5b90600052602060002090600502016003015490509193909250565b306001600160a01b037f0000000000000000000000000000000000000000000000000000000000000000161415610afa5760405162461bcd60e51b815260040161085390612bd7565b7f00000000000000000000000000000000000000000000000000000000000000006001600160a01b0316610b2c611bae565b6001600160a01b031614610b525760405162461bcd60e51b815260040161085390612c23565b610b5b81611bdc565b60408051600080825260208201909252610b7791839190611c06565b50565b600060cd8381548110610b9d57634e487b7160e01b600052603260045260246000fd5b6000918252602080832086845260ce825260408085203386529092529220805460059092029092019250831115610c0b5760405162461bcd60e51b81526020600482015260126024820152711dda5d1a191c985dce881b9bdd0819dbdbd960721b6044820152606401610853565b610c14846110b3565b6000610c4e8260010154610c4864e8d4a51000610c4287600301548760000154611d4a90919063ffffffff16565b90611d56565b90611d62565b90508015610c6457610c6433824260d454611d6e565b8154610c709085611d62565b8083556003840154610c8d9164e8d4a5100091610c429190611d4a565b600183015560d2548354610cae916001600160a01b03918216911686611db5565b825460d354610cca916001600160a01b03169033908790610f7d565b604051848152859033907ff279e6a1f5e320cca91135676d9cb6e44ca8a08c0b88342bcdb1144f6511b5689060200160405180910390a35050505050565b60cc546001600160a01b0316610d575760405162461bcd60e51b815260206004820152601460248201527336b4b3b930ba329d1037379036b4b3b930ba37b960611b6044820152606401610853565b600060cd8281548110610d7a57634e487b7160e01b600052603260045260246000fd5b6000918252602082206005919091020180546040516370a0823160e01b81523060048201529193506001600160a01b0316919082906370a082319060240160206040518083038186803b158015610dd057600080fd5b505afa158015610de4573d6000803e3d6000fd5b505050506040513d601f19601f82011682018060405250810190610e08919061298e565b60cc54909150610e25906001600160a01b03848116911683611db5565b60cc5460405163ce5494bb60e01b81526001600160a01b038481166004830152600092169063ce5494bb90602401602060405180830381600087803b158015610e6d57600080fd5b505af1158015610e81573d6000803e3d6000fd5b505050506040513d601f19601f82011682018060405250810190610ea5919061295a565b6040516370a0823160e01b81523060048201529091506001600160a01b038216906370a082319060240160206040518083038186803b158015610ee757600080fd5b505afa158015610efb573d6000803e3d6000fd5b505050506040513d601f19601f82011682018060405250810190610f1f919061298e565b8214610f5c5760405162461bcd60e51b815260206004820152600c60248201526b1b5a59dc985d194e8818985960a21b6044820152606401610853565b83546001600160a01b0319166001600160a01b039190911617909255505050565b60d254604051634b86c22560e01b81526001600160a01b0386811660048301528581166024830152604482018590526064820184905290911690634b86c225906084015b600060405180830381600087803b158015610fdb57600080fd5b505af1158015610fef573d6000803e3d6000fd5b5050505050505050565b306001600160a01b037f00000000000000000000000000000000000000000000000000000000000000001614156110425760405162461bcd60e51b815260040161085390612bd7565b7f00000000000000000000000000000000000000000000000000000000000000006001600160a01b0316611074611bae565b6001600160a01b03161461109a5760405162461bcd60e51b815260040161085390612c23565b6110a382611bdc565b6110af82826001611c06565b5050565b600060cd82815481106110d657634e487b7160e01b600052603260045260246000fd5b90600052602060002090600502019050806002015443116110f75750610b77565b80546040516370a0823160e01b81523060048201526000916001600160a01b0316906370a082319060240160206040518083038186803b15801561113a57600080fd5b505afa15801561114e573d6000803e3d6000fd5b505050506040513d601f19601f82011682018060405250810190611172919061298e565b905080611186575043600290910155610b77565b6000611196836002015443611517565b905060006111c360cf54610c4286600101546111bd60cb5487611d4a90919063ffffffff16565b90611d4a565b90506111e66111db84610c428464e8d4a51000611d4a565b600386015490611b9b565b60038501555050436002909201919091555050565b600060cd828154811061121e57634e487b7160e01b600052603260045260246000fd5b6000918252602080832085845260ce825260408085203386529092529220600460059092029092019081015490925060ff1661128b5760405162461bcd60e51b815260206004820152600c60248201526b216973456d657267656e637960a01b6044820152606401610853565b805482546112a6916001600160a01b03909116903390611f11565b8054604051908152839033907fbb757047c2b5f3974fe26b7c10f732e7bce710b0952a71082702781e62ae05959060200160405180910390a360008082556001909101555050565b60cd5460005b818110156110af57611305816110b3565b61130e81612de1565b90506112f4565b6097546001600160a01b0316331461133f5760405162461bcd60e51b815260040161085390612cbd565b801561134d5761134d6112ee565b61139e8261139860cd868154811061137557634e487b7160e01b600052603260045260246000fd5b90600052602060002090600502016001015460cf54611d6290919063ffffffff16565b90611b9b565b60cf819055508160cd84815481106113c657634e487b7160e01b600052603260045260246000fd5b906000526020600020906005020160010181905550505050565b6097546001600160a01b0316331461140a5760405162461bcd60e51b815260040161085390612cbd565b6114146000611f41565b565b60d254604051637238ccdb60e01b81526001600160a01b0383811660048301526060928392839283921690637238ccdb9060240160006040518083038186803b15801561146257600080fd5b505afa158015611476573d6000803e3d6000fd5b505050506040513d6000823e601f3d908101601f1916820160405261149e9190810190612831565b93509350935093509193509193565b60d254604051637eee288d60e01b81526001600160a01b0384811660048301526024820184905290911690637eee288d90604401600060405180830381600087803b1580156114fb57600080fd5b505af115801561150f573d6000803e3d6000fd5b505050505050565b600060ca5482116115335761152c8284611d62565b905061156b565b60ca5483106115465761152c8284611d62565b61152c61155e60ca5484611d6290919063ffffffff16565b60ca546113989086611d62565b92915050565b60d154604051631784ef2560e31b81526001600160a01b0383811660048301529091169063bc27792890602401600060405180830381600087803b1580156115b857600080fd5b505af11580156115cc573d6000803e3d6000fd5b5050505050565b60d254604051636e7cf2cf60e11b81526060918291829182916001600160a01b039091169063dcf9e59e9061160e9089908990600401612ade565b60006040518083038186803b15801561162657600080fd5b505afa15801561163a573d6000803e3d6000fd5b505050506040513d6000823e601f3d908101601f191682016040526116629190810190612831565b9299919850965090945092505050565b600060cd838154811061169557634e487b7160e01b600052603260045260246000fd5b6000918252602080832086845260ce825260408085203386529092529220600590910290910191506116c6846110b3565b8054156117135760006116fb8260010154610c4864e8d4a51000610c4287600301548760000154611d4a90919063ffffffff16565b905080156117115761171133824260d454611d6e565b505b815461172a906001600160a01b0316333086611f93565b80546117369084611b9b565b80825560038301546117539164e8d4a5100091610c429190611d4a565b6001820155604051838152849033907f90890809c654f11d6e72a28fa60149770a0d11ec6c92319d6ceb2bb0a4ea1a159060200160405180910390a350505050565b6097546001600160a01b031633146117bf5760405162461bcd60e51b815260040161085390612cbd565b60cd5482106118015760405162461bcd60e51b815260206004820152600e60248201526d1c1a59081a5cc81a5b9d985b1a5960921b6044820152606401610853565b8060cd838154811061182357634e487b7160e01b600052603260045260246000fd5b60009182526020909120600590910201600401805460ff19169115159190911790555050565b600054610100900460ff1680611862575060005460ff16155b61187e5760405162461bcd60e51b815260040161085390612c6f565b600054610100900460ff161580156118a0576000805461ffff19166101011790555b6118a8611fd1565b60d280546001600160a01b03808b166001600160a01b03199283161790925560d18054928a169290911691909117905560cb86905560d085905560ca84905560d383905560d48290558015610fef576000805461ff00191690555050505050505050565b60d2546040516378d2c2a160e11b81526001600160a01b038381166004830152600092169063f1a585429060240160206040518083038186803b15801561195257600080fd5b505afa158015611966573d6000803e3d6000fd5b505050506040513d601f19601f8201168201806040525081019061156b919061298e565b6097546001600160a01b031633146119b45760405162461bcd60e51b815260040161085390612cbd565b6001600160a01b038116611a195760405162461bcd60e51b815260206004820152602660248201527f4f776e61626c653a206e6577206f776e657220697320746865207a65726f206160448201526564647265737360d01b6064820152608401610853565b610b7781611f41565b60008060cd8481548110611a4657634e487b7160e01b600052603260045260246000fd5b6000918252602080832087845260ce825260408085206001600160a01b03898116875293528085206005949094029091016003810154815492516370a0823160e01b815230600482015291965093949291909116906370a082319060240160206040518083038186803b158015611abc57600080fd5b505afa158015611ad0573d6000803e3d6000fd5b505050506040513d601f19601f82011682018060405250810190611af4919061298e565b9050836002015443118015611b0857508015155b15611b68576000611b1d856002015443611517565b90506000611b4460cf54610c4288600101546111bd60cb5487611d4a90919063ffffffff16565b9050611b63611b5c84610c428464e8d4a51000611d4a565b8590611b9b565b935050505b611b908360010154610c4864e8d4a51000610c42868860000154611d4a90919063ffffffff16565b979650505050505050565b6000611ba78284612d47565b9392505050565b7f360894a13ba1a3210667c828492db98dca3e2076cc3735a920a3ca505d382bbc546001600160a01b031690565b6097546001600160a01b03163314610b775760405162461bcd60e51b815260040161085390612cbd565b6000611c10611bae565b9050611c1b8461204c565b600083511180611c285750815b15611c3957611c3784846120f1565b505b7f4910fdfa16fed3260ed0e7147f7cc6da11a60208b5b9406d12a635614ffd9143805460ff166115cc57805460ff191660011781556040516001600160a01b0383166024820152611cb890869060440160408051601f198184030181529190526020810180516001600160e01b0316631b2ce7f360e11b1790526120f1565b50805460ff19168155611cc9611bae565b6001600160a01b0316826001600160a01b031614611d415760405162461bcd60e51b815260206004820152602f60248201527f45524331393637557067726164653a207570677261646520627265616b73206660448201526e75727468657220757067726164657360881b6064820152608401610853565b6115cc856121dc565b6000611ba78284612d7f565b6000611ba78284612d5f565b6000611ba78284612d9e565b60d154604051634cf518a160e01b81526001600160a01b03868116600483015260248201869052604482018590526064820184905290911690634cf518a190608401610fc1565b801580611e3e5750604051636eb1769f60e11b81523060048201526001600160a01b03838116602483015284169063dd62ed3e9060440160206040518083038186803b158015611e0457600080fd5b505afa158015611e18573d6000803e3d6000fd5b505050506040513d601f19601f82011682018060405250810190611e3c919061298e565b155b611ea95760405162461bcd60e51b815260206004820152603660248201527f5361666545524332303a20617070726f76652066726f6d206e6f6e2d7a65726f60448201527520746f206e6f6e2d7a65726f20616c6c6f77616e636560501b6064820152608401610853565b6040516001600160a01b038316602482015260448101829052611f0c90849063095ea7b360e01b906064015b60408051601f198184030181529190526020810180516001600160e01b03166001600160e01b03199093169290921790915261221c565b505050565b6040516001600160a01b038316602482015260448101829052611f0c90849063a9059cbb60e01b90606401611ed5565b609780546001600160a01b038381166001600160a01b0319831681179093556040519116919082907f8be0079c531659141344cd1fd0a4f28419497f9722a3daafe3b4186f6b6457e090600090a35050565b6040516001600160a01b0380851660248301528316604482015260648101829052611fcb9085906323b872dd60e01b90608401611ed5565b50505050565b600054610100900460ff1680611fea575060005460ff16155b6120065760405162461bcd60e51b815260040161085390612c6f565b600054610100900460ff16158015612028576000805461ffff19166101011790555b6120306122ee565b612038612358565b8015610b77576000805461ff001916905550565b803b6120b05760405162461bcd60e51b815260206004820152602d60248201527f455243313936373a206e657720696d706c656d656e746174696f6e206973206e60448201526c1bdd08184818dbdb9d1c9858dd609a1b6064820152608401610853565b7f360894a13ba1a3210667c828492db98dca3e2076cc3735a920a3ca505d382bbc80546001600160a01b0319166001600160a01b0392909216919091179055565b6060823b6121505760405162461bcd60e51b815260206004820152602660248201527f416464726573733a2064656c65676174652063616c6c20746f206e6f6e2d636f6044820152651b9d1c9858dd60d21b6064820152608401610853565b600080846001600160a01b03168460405161216b9190612ac2565b600060405180830381855af49150503d80600081146121a6576040519150601f19603f3d011682016040523d82523d6000602084013e6121ab565b606091505b50915091506121d38282604051806060016040528060278152602001612e4c602791396123b8565b95945050505050565b6121e58161204c565b6040516001600160a01b038216907fbc7cd75a20ee27fd9adebab32041f755214dbc6bffa90cc0225b39da2e5c2d3b90600090a250565b6000612271826040518060400160405280602081526020017f5361666545524332303a206c6f772d6c6576656c2063616c6c206661696c6564815250856001600160a01b03166123f19092919063ffffffff16565b805190915015611f0c578080602001905181019061228f919061293e565b611f0c5760405162461bcd60e51b815260206004820152602a60248201527f5361666545524332303a204552433230206f7065726174696f6e20646964206e6044820152691bdd081cdd58d8d9595960b21b6064820152608401610853565b600054610100900460ff1680612307575060005460ff16155b6123235760405162461bcd60e51b815260040161085390612c6f565b600054610100900460ff16158015612038576000805461ffff19166101011790558015610b77576000805461ff001916905550565b600054610100900460ff1680612371575060005460ff16155b61238d5760405162461bcd60e51b815260040161085390612c6f565b600054610100900460ff161580156123af576000805461ffff19166101011790555b61203833611f41565b606083156123c7575081611ba7565b8251156123d75782518084602001fd5b8160405162461bcd60e51b81526004016108539190612ba4565b60606124008484600085612408565b949350505050565b6060824710156124695760405162461bcd60e51b815260206004820152602660248201527f416464726573733a20696e73756666696369656e742062616c616e636520666f6044820152651c8818d85b1b60d21b6064820152608401610853565b843b6124b75760405162461bcd60e51b815260206004820152601d60248201527f416464726573733a2063616c6c20746f206e6f6e2d636f6e74726163740000006044820152606401610853565b600080866001600160a01b031685876040516124d39190612ac2565b60006040518083038185875af1925050503d8060008114612510576040519150601f19603f3d011682016040523d82523d6000602084013e612515565b606091505b5091509150611b908282866123b8565b600082601f830112612535578081fd5b8151602061254a61254583612d23565b612cf2565b80838252828201915082860187848660051b8901011115612569578586fd5b855b8581101561259057815161257e81612e28565b8452928401929084019060010161256b565b5090979650505050505050565b600082601f8301126125ad578081fd5b815160206125bd61254583612d23565b80838252828201915082860187848660051b89010111156125dc578586fd5b855b85811015612590578151845292840192908401906001016125de565b60006020828403121561260b578081fd5b8135611ba781612e28565b6000806000806080858703121561262b578283fd5b843561263681612e28565b9350602085013561264681612e28565b93969395505050506040820135916060013590565b600080600080600080600060e0888a031215612675578283fd5b873561268081612e28565b9650602088013561269081612e28565b96999698505050506040850135946060810135946080820135945060a0820135935060c0909101359150565b600080604083850312156126ce578081fd5b82356126d981612e28565b915060208381013567ffffffffffffffff8111156126f5578283fd5b8401601f81018613612705578283fd5b803561271361254582612d23565b80828252848201915084840189868560051b8701011115612732578687fd5b8694505b83851015612754578035835260019490940193918501918501612736565b5080955050505050509250929050565b60008060408385031215612776578182fd5b823561278181612e28565b915060208381013567ffffffffffffffff8082111561279e578384fd5b818601915086601f8301126127b1578384fd5b8135818111156127c3576127c3612e12565b6127d5601f8201601f19168501612cf2565b915080825287848285010111156127ea578485fd5b8084840185840137810190920192909252919491935090915050565b60008060408385031215612818578182fd5b823561282381612e28565b946020939093013593505050565b60008060008060808587031215612846578182fd5b845167ffffffffffffffff8082111561285d578384fd5b818701915087601f830112612870578384fd5b8151602061288061254583612d23565b8083825282820191508286018c848660051b890101111561289f578889fd5b8896505b848710156128ca5780516128b681612e3d565b8352600196909601959183019183016128a3565b50918a01519198509093505050808211156128e3578384fd5b6128ef88838901612525565b94506040870151915080821115612904578384fd5b6129108883890161259d565b93506060870151915080821115612925578283fd5b506129328782880161259d565b91505092959194509250565b60006020828403121561294f578081fd5b8151611ba781612e3d565b60006020828403121561296b578081fd5b8151611ba781612e28565b600060208284031215612987578081fd5b5035919050565b60006020828403121561299f578081fd5b5051919050565b600080604083850312156129b8578182fd5b8235915060208301356129ca81612e28565b809150509250929050565b600080604083850312156129e7578182fd5b8235915060208301356129ca81612e3d565b600080600060608486031215612a0d578081fd5b833592506020840135612a1f81612e28565b91506040840135612a2f81612e3d565b809150509250925092565b60008060408385031215612a4c578182fd5b50508035926020909101359150565b600080600060608486031215612a6f578081fd5b83359250602084013591506040840135612a2f81612e3d565b6000815180845260208085019450808401835b83811015612ab757815187529582019590820190600101612a9b565b509495945050505050565b60008251612ad4818460208701612db5565b9190910192915050565b6001600160a01b038316815260406020820181905260009061240090830184612a88565b6080808252855190820181905260009060209060a0840190828901845b82811015612b3d578151151584529284019290840190600101612b1f565b50505083810382850152865180825287830191830190845b81811015612b7a5783516001600160a01b031683529284019291840191600101612b55565b50508481036040860152612b8e8188612a88565b925050508281036060840152611b908185612a88565b6000602082528251806020840152612bc3816040850160208701612db5565b601f01601f19169190910160400192915050565b6020808252602c908201527f46756e6374696f6e206d7573742062652063616c6c6564207468726f7567682060408201526b19195b1959d85d1958d85b1b60a21b606082015260800190565b6020808252602c908201527f46756e6374696f6e206d7573742062652063616c6c6564207468726f7567682060408201526b6163746976652070726f787960a01b606082015260800190565b6020808252602e908201527f496e697469616c697a61626c653a20636f6e747261637420697320616c72656160408201526d191e481a5b9a5d1a585b1a5e995960921b606082015260800190565b6020808252818101527f4f776e61626c653a2063616c6c6572206973206e6f7420746865206f776e6572604082015260600190565b604051601f8201601f1916810167ffffffffffffffff81118282101715612d1b57612d1b612e12565b604052919050565b600067ffffffffffffffff821115612d3d57612d3d612e12565b5060051b60200190565b60008219821115612d5a57612d5a612dfc565b500190565b600082612d7a57634e487b7160e01b81526012600452602481fd5b500490565b6000816000190483118215151615612d9957612d99612dfc565b500290565b600082821015612db057612db0612dfc565b500390565b60005b83811015612dd0578181015183820152602001612db8565b83811115611fcb5750506000910152565b6000600019821415612df557612df5612dfc565b5060010190565b634e487b7160e01b600052601160045260246000fd5b634e487b7160e01b600052604160045260246000fd5b6001600160a01b0381168114610b7757600080fd5b8015158114610b7757600080fdfe416464726573733a206c6f772d6c6576656c2064656c65676174652063616c6c206661696c6564a2646970667358221220f6c03387e4a10aa6750f01dbfb6cc3d9c70260de1c32beae0d3a666d7a023e6a64736f6c63430008030033",
  "linkReferences": {},
  "deployedLinkReferences": {}
}