{
  "_format": "hh-sol-artifact-1",
  "contractName": "MasterChefUpgradeable",
  "sourceName": "contracts/MasterChefUpgradeable.sol",
  "abi": [
    {
      "inputs": [],
      "stateMutability": "nonpayable",
      "type": "constructor"
    },
    {
      "anonymous": false,
      "inputs": [
        {
          "indexed": false,
          "internalType": "address",
          "name": "previousAdmin",
          "type": "address"
        },
        {
          "indexed": false,
          "internalType": "address",
          "name": "newAdmin",
          "type": "address"
        }
      ],
      "name": "AdminChanged",
      "type": "event"
    },
    {
      "anonymous": false,
      "inputs": [
        {
          "indexed": true,
          "internalType": "address",
          "name": "beacon",
          "type": "address"
        }
      ],
      "name": "BeaconUpgraded",
      "type": "event"
    },
    {
      "anonymous": false,
      "inputs": [
        {
          "indexed": true,
          "internalType": "address",
          "name": "user",
          "type": "address"
        },
        {
          "indexed": true,
          "internalType": "uint256",
          "name": "pid",
          "type": "uint256"
        },
        {
          "indexed": false,
          "internalType": "uint256",
          "name": "amount",
          "type": "uint256"
        }
      ],
      "name": "Deposit",
      "type": "event"
    },
    {
      "anonymous": false,
      "inputs": [
        {
          "indexed": true,
          "internalType": "address",
          "name": "user",
          "type": "address"
        },
        {
          "indexed": true,
          "internalType": "uint256",
          "name": "pid",
          "type": "uint256"
        },
        {
          "indexed": false,
          "internalType": "uint256",
          "name": "amounts",
          "type": "uint256"
        }
      ],
      "name": "EmergencyWithdraw",
      "type": "event"
    },
    {
      "anonymous": false,
      "inputs": [
        {
          "indexed": true,
          "internalType": "address",
          "name": "previousOwner",
          "type": "address"
        },
        {
          "indexed": true,
          "internalType": "address",
          "name": "newOwner",
          "type": "address"
        }
      ],
      "name": "OwnershipTransferred",
      "type": "event"
    },
    {
      "anonymous": false,
      "inputs": [
        {
          "indexed": true,
          "internalType": "address",
          "name": "implementation",
          "type": "address"
        }
      ],
      "name": "Upgraded",
      "type": "event"
    },
    {
      "anonymous": false,
      "inputs": [
        {
          "indexed": true,
          "internalType": "address",
          "name": "user",
          "type": "address"
        },
        {
          "indexed": true,
          "internalType": "uint256",
          "name": "pid",
          "type": "uint256"
        },
        {
          "indexed": false,
          "internalType": "uint256",
          "name": "amount",
          "type": "uint256"
        }
      ],
      "name": "Withdraw",
      "type": "event"
    },
    {
      "inputs": [
        {
          "internalType": "uint256",
          "name": "_allocPoint",
          "type": "uint256"
        },
        {
          "internalType": "contract IERC20Upgradeable",
          "name": "_lpToken",
          "type": "address"
        },
        {
          "internalType": "bool",
          "name": "_withUpdate",
          "type": "bool"
        }
      ],
      "name": "add",
      "outputs": [],
      "stateMutability": "nonpayable",
      "type": "function"
    },
    {
      "inputs": [],
      "name": "bonusEndBlock",
      "outputs": [
        {
          "internalType": "uint256",
          "name": "",
          "type": "uint256"
        }
      ],
      "stateMutability": "view",
      "type": "function"
    },
    {
      "inputs": [
        {
          "internalType": "uint256",
          "name": "_pid",
          "type": "uint256"
        },
        {
          "internalType": "uint256",
          "name": "_amount",
          "type": "uint256"
        }
      ],
      "name": "deposit",
      "outputs": [],
      "stateMutability": "nonpayable",
      "type": "function"
    },
    {
      "inputs": [
        {
          "internalType": "address",
          "name": "_devaddr",
          "type": "address"
        }
      ],
      "name": "dev",
      "outputs": [],
      "stateMutability": "nonpayable",
      "type": "function"
    },
    {
      "inputs": [],
      "name": "devaddr",
      "outputs": [
        {
          "internalType": "address",
          "name": "",
          "type": "address"
        }
      ],
      "stateMutability": "view",
      "type": "function"
    },
    {
      "inputs": [
        {
          "internalType": "uint256",
          "name": "_pid",
          "type": "uint256"
        }
      ],
      "name": "emergencyWithdraw",
      "outputs": [],
      "stateMutability": "nonpayable",
      "type": "function"
    },
    {
      "inputs": [],
      "name": "firo",
      "outputs": [
        {
          "internalType": "contract FiroToken",
          "name": "",
          "type": "address"
        }
      ],
      "stateMutability": "view",
      "type": "function"
    },
    {
      "inputs": [],
      "name": "firoPerBlock",
      "outputs": [
        {
          "internalType": "uint256",
          "name": "",
          "type": "uint256"
        }
      ],
      "stateMutability": "view",
      "type": "function"
    },
    {
      "inputs": [
        {
          "internalType": "address",
          "name": "_user",
          "type": "address"
        }
      ],
      "name": "getLockInfo",
      "outputs": [
        {
          "internalType": "bool[]",
          "name": "isWithdrawns",
          "type": "bool[]"
        },
        {
          "internalType": "address[]",
          "name": "tokens",
          "type": "address[]"
        },
        {
          "internalType": "uint256[]",
          "name": "unlockableAts",
          "type": "uint256[]"
        },
        {
          "internalType": "uint256[]",
          "name": "amounts",
          "type": "uint256[]"
        }
      ],
      "stateMutability": "view",
      "type": "function"
    },
    {
      "inputs": [
        {
          "internalType": "address",
          "name": "_addr",
          "type": "address"
        },
        {
          "internalType": "uint256[]",
          "name": "_indexes",
          "type": "uint256[]"
        }
      ],
      "name": "getLockInfoByIndexes",
      "outputs": [
        {
          "internalType": "bool[]",
          "name": "isWithdrawns",
          "type": "bool[]"
        },
        {
          "internalType": "address[]",
          "name": "tokens",
          "type": "address[]"
        },
        {
          "internalType": "uint256[]",
          "name": "unlockableAts",
          "type": "uint256[]"
        },
        {
          "internalType": "uint256[]",
          "name": "amounts",
          "type": "uint256[]"
        }
      ],
      "stateMutability": "view",
      "type": "function"
    },
    {
      "inputs": [
        {
          "internalType": "address",
          "name": "_addr",
          "type": "address"
        }
      ],
      "name": "getLockInfoLength",
      "outputs": [
        {
          "internalType": "uint256",
          "name": "",
          "type": "uint256"
        }
      ],
      "stateMutability": "view",
      "type": "function"
    },
    {
      "inputs": [
        {
          "internalType": "uint256",
          "name": "_from",
          "type": "uint256"
        },
        {
          "internalType": "uint256",
          "name": "_to",
          "type": "uint256"
        }
      ],
      "name": "getMultiplier",
      "outputs": [
        {
          "internalType": "uint256",
          "name": "",
          "type": "uint256"
        }
      ],
      "stateMutability": "view",
      "type": "function"
    },
    {
      "inputs": [
        {
          "internalType": "uint256",
          "name": "_pid",
          "type": "uint256"
        }
      ],
      "name": "getPoolInfo",
      "outputs": [
        {
          "internalType": "uint256",
          "name": "allocPoint",
          "type": "uint256"
        },
        {
          "internalType": "uint256",
          "name": "lastRewardBlock",
          "type": "uint256"
        },
        {
          "internalType": "uint256",
          "name": "accFiroPerShare",
          "type": "uint256"
        }
      ],
      "stateMutability": "view",
      "type": "function"
    },
    {
      "inputs": [],
      "name": "getStartBlock",
      "outputs": [
        {
          "internalType": "uint256",
          "name": "",
          "type": "uint256"
        }
      ],
      "stateMutability": "view",
      "type": "function"
    },
    {
      "inputs": [
        {
          "internalType": "uint256",
          "name": "_pid",
          "type": "uint256"
        },
        {
          "internalType": "address",
          "name": "_user",
          "type": "address"
        }
      ],
      "name": "getUserInfo",
      "outputs": [
        {
          "internalType": "uint256",
          "name": "amount",
          "type": "uint256"
        },
        {
          "internalType": "uint256",
          "name": "rewardDebt",
          "type": "uint256"
        }
      ],
      "stateMutability": "view",
      "type": "function"
    },
    {
      "inputs": [
        {
          "internalType": "address",
          "name": "_firo",
          "type": "address"
        },
        {
          "internalType": "address",
          "name": "_locking",
          "type": "address"
        },
        {
          "internalType": "address",
          "name": "_vesting",
          "type": "address"
        },
        {
          "internalType": "address",
          "name": "_devaddr",
          "type": "address"
        },
        {
          "internalType": "uint256",
          "name": "_firoPerBlock",
          "type": "uint256"
        },
        {
          "internalType": "uint256",
          "name": "_startBlock",
          "type": "uint256"
        },
        {
          "internalType": "uint256",
          "name": "_bonusEndBlock",
          "type": "uint256"
        },
        {
          "internalType": "uint256",
          "name": "_lockingDuration",
          "type": "uint256"
        },
        {
          "internalType": "uint256",
          "name": "_vestingDuration",
          "type": "uint256"
        }
      ],
      "name": "initialize",
      "outputs": [],
      "stateMutability": "nonpayable",
      "type": "function"
    },
    {
      "inputs": [
        {
          "internalType": "address",
          "name": "_token",
          "type": "address"
        },
        {
          "internalType": "address",
          "name": "_addr",
          "type": "address"
        },
        {
          "internalType": "uint256",
          "name": "_amount",
          "type": "uint256"
        },
        {
          "internalType": "uint256",
          "name": "_lockedTime",
          "type": "uint256"
        }
      ],
      "name": "lock",
      "outputs": [],
      "stateMutability": "nonpayable",
      "type": "function"
    },
    {
      "inputs": [],
      "name": "locking",
      "outputs": [
        {
          "internalType": "contract Locking",
          "name": "",
          "type": "address"
        }
      ],
      "stateMutability": "view",
      "type": "function"
    },
    {
      "inputs": [],
      "name": "lockingDuration",
      "outputs": [
        {
          "internalType": "uint256",
          "name": "",
          "type": "uint256"
        }
      ],
      "stateMutability": "view",
      "type": "function"
    },
    {
      "inputs": [],
      "name": "massUpdatePools",
      "outputs": [],
      "stateMutability": "nonpayable",
      "type": "function"
    },
    {
      "inputs": [
        {
          "internalType": "uint256",
          "name": "_pid",
          "type": "uint256"
        }
      ],
      "name": "migrate",
      "outputs": [],
      "stateMutability": "nonpayable",
      "type": "function"
    },
    {
      "inputs": [],
      "name": "migrator",
      "outputs": [
        {
          "internalType": "contract IMigratorChef",
          "name": "",
          "type": "address"
        }
      ],
      "stateMutability": "view",
      "type": "function"
    },
    {
      "inputs": [],
      "name": "owner",
      "outputs": [
        {
          "internalType": "address",
          "name": "",
          "type": "address"
        }
      ],
      "stateMutability": "view",
      "type": "function"
    },
    {
      "inputs": [
        {
          "internalType": "uint256",
          "name": "_pid",
          "type": "uint256"
        },
        {
          "internalType": "address",
          "name": "_user",
          "type": "address"
        }
      ],
      "name": "pendingFiro",
      "outputs": [
        {
          "internalType": "uint256",
          "name": "",
          "type": "uint256"
        }
      ],
      "stateMutability": "view",
      "type": "function"
    },
    {
      "inputs": [
        {
          "internalType": "uint256",
          "name": "",
          "type": "uint256"
        }
      ],
      "name": "poolInfo",
      "outputs": [
        {
          "internalType": "contract IERC20Upgradeable",
          "name": "lpToken",
          "type": "address"
        },
        {
          "internalType": "uint256",
          "name": "allocPoint",
          "type": "uint256"
        },
        {
          "internalType": "uint256",
          "name": "lastRewardBlock",
          "type": "uint256"
        },
        {
          "internalType": "uint256",
          "name": "accFiroPerShare",
          "type": "uint256"
        },
        {
          "internalType": "bool",
          "name": "isEmergency",
          "type": "bool"
        }
      ],
      "stateMutability": "view",
      "type": "function"
    },
    {
      "inputs": [],
      "name": "poolLength",
      "outputs": [
        {
          "internalType": "uint256",
          "name": "",
          "type": "uint256"
        }
      ],
      "stateMutability": "view",
      "type": "function"
    },
    {
      "inputs": [],
      "name": "renounceOwnership",
      "outputs": [],
      "stateMutability": "nonpayable",
      "type": "function"
    },
    {
      "inputs": [
        {
          "internalType": "uint256",
          "name": "_pid",
          "type": "uint256"
        },
        {
          "internalType": "uint256",
          "name": "_allocPoint",
          "type": "uint256"
        },
        {
          "internalType": "bool",
          "name": "_withUpdate",
          "type": "bool"
        }
      ],
      "name": "set",
      "outputs": [],
      "stateMutability": "nonpayable",
      "type": "function"
    },
    {
      "inputs": [
        {
          "internalType": "uint256",
          "name": "_pid",
          "type": "uint256"
        },
        {
          "internalType": "bool",
          "name": "_isEmergency",
          "type": "bool"
        }
      ],
      "name": "setEmergency",
      "outputs": [],
      "stateMutability": "nonpayable",
      "type": "function"
    },
    {
      "inputs": [
        {
          "internalType": "contract IMigratorChef",
          "name": "_migrator",
          "type": "address"
        }
      ],
      "name": "setMigrator",
      "outputs": [],
      "stateMutability": "nonpayable",
      "type": "function"
    },
    {
      "inputs": [
        {
          "internalType": "uint256",
          "name": "_startBlock",
          "type": "uint256"
        }
      ],
      "name": "setStartBlock",
      "outputs": [],
      "stateMutability": "nonpayable",
      "type": "function"
    },
    {
      "inputs": [],
      "name": "startBlock",
      "outputs": [
        {
          "internalType": "uint256",
          "name": "",
          "type": "uint256"
        }
      ],
      "stateMutability": "view",
      "type": "function"
    },
    {
      "inputs": [],
      "name": "totalAllocPoint",
      "outputs": [
        {
          "internalType": "uint256",
          "name": "",
          "type": "uint256"
        }
      ],
      "stateMutability": "view",
      "type": "function"
    },
    {
      "inputs": [
        {
          "internalType": "address",
          "name": "newOwner",
          "type": "address"
        }
      ],
      "name": "transferOwnership",
      "outputs": [],
      "stateMutability": "nonpayable",
      "type": "function"
    },
    {
      "inputs": [
        {
          "internalType": "address",
          "name": "_addr",
          "type": "address"
        },
        {
          "internalType": "uint256",
          "name": "index",
          "type": "uint256"
        }
      ],
      "name": "unlock",
      "outputs": [],
      "stateMutability": "nonpayable",
      "type": "function"
    },
    {
      "inputs": [
        {
          "internalType": "address",
          "name": "_addr",
          "type": "address"
        }
      ],
      "name": "unlockVesting",
      "outputs": [],
      "stateMutability": "nonpayable",
      "type": "function"
    },
    {
      "inputs": [
        {
          "internalType": "uint256",
          "name": "_pid",
          "type": "uint256"
        }
      ],
      "name": "updatePool",
      "outputs": [],
      "stateMutability": "nonpayable",
      "type": "function"
    },
    {
      "inputs": [
        {
          "internalType": "address",
          "name": "newImplementation",
          "type": "address"
        }
      ],
      "name": "upgradeTo",
      "outputs": [],
      "stateMutability": "nonpayable",
      "type": "function"
    },
    {
      "inputs": [
        {
          "internalType": "address",
          "name": "newImplementation",
          "type": "address"
        },
        {
          "internalType": "bytes",
          "name": "data",
          "type": "bytes"
        }
      ],
      "name": "upgradeToAndCall",
      "outputs": [],
      "stateMutability": "payable",
      "type": "function"
    },
    {
      "inputs": [
        {
          "internalType": "uint256",
          "name": "",
          "type": "uint256"
        },
        {
          "internalType": "address",
          "name": "",
          "type": "address"
        }
      ],
      "name": "userInfo",
      "outputs": [
        {
          "internalType": "uint256",
          "name": "amount",
          "type": "uint256"
        },
        {
          "internalType": "uint256",
          "name": "rewardDebt",
          "type": "uint256"
        }
      ],
      "stateMutability": "view",
      "type": "function"
    },
    {
      "inputs": [],
      "name": "vesting",
      "outputs": [
        {
          "internalType": "contract Vesting",
          "name": "",
          "type": "address"
        }
      ],
      "stateMutability": "view",
      "type": "function"
    },
    {
      "inputs": [],
      "name": "vestingDuration",
      "outputs": [
        {
          "internalType": "uint256",
          "name": "",
          "type": "uint256"
        }
      ],
      "stateMutability": "view",
      "type": "function"
    },
    {
      "inputs": [
        {
          "internalType": "uint256",
          "name": "_pid",
          "type": "uint256"
        },
        {
          "internalType": "uint256",
          "name": "_amount",
          "type": "uint256"
        }
      ],
      "name": "withdraw",
      "outputs": [],
      "stateMutability": "nonpayable",
      "type": "function"
    }
  ],
  "bytecode": "0x60a06040523060601b6080523480156200001857600080fd5b50600054610100900460ff168062000033575060005460ff16155b6200009b5760405162461bcd60e51b815260206004820152602e60248201527f496e697469616c697a61626c653a20636f6e747261637420697320616c72656160448201526d191e481a5b9a5d1a585b1a5e995960921b606482015260840160405180910390fd5b600054610100900460ff16158015620000be576000805461ffff19166101011790555b8015620000d1576000805461ff00191690555b5060805160601c6130076200010660003960008181610b1201528181610b520152818161105a015261109a01526130076000f3fe60806040526004361061025c5760003560e01c8063630b5ba111610144578063bc277928116100b6578063e2bbb1581161007a578063e2bbb15814610771578063e62e178914610791578063f1a58542146107b1578063f2fde38b146107d1578063f35e4a6e146107f1578063f91d0679146108115761025c565b8063bc277928146106db578063beb3e382146106fb578063cea8c7461461071b578063d49e77cd14610731578063dcf9e59e146107515761025c565b80637eee288d116101085780637eee288d146106095780638d88a90e146106295780638da5cb5b146106495780638dbb1e3a1461066757806393f1a40b14610687578063a5f18c01146106c65761025c565b8063630b5ba11461056f57806364482f7914610584578063715018a6146105a45780637238ccdb146105b95780637cd07e47146105e95761025c565b8063441a3e70116101dd5780634b86c225116101a15780634b86c225146104c65780634f0755a0146104e65780634f1ef286146104fc57806351eb05a61461050f5780635312ea8e1461052f57806358ad5a8b1461054f5761025c565b8063441a3e701461041857806344c63eec14610438578063454b06081461047057806348cd4cb1146104905780634a6433f0146104a65761025c565b80631aed6553116102245780631aed6553146103655780631eaaa0451461037b57806323cf31181461039d5780632f380b35146103bd5780633659cfe6146103f85761025c565b8063081e3eda146102615780631069f3b5146102855780631514617e146102e55780631526fe27146102fb57806317caf6f11461034f575b600080fd5b34801561026d57600080fd5b5060ce545b6040519081526020015b60405180910390f35b34801561029157600080fd5b506102d06102a0366004612b05565b600091825260cf602090815260408084206001600160a01b03939093168452919052902080546001909101549091565b6040805192835260208301919091520161027c565b3480156102f157600080fd5b5061027260d55481565b34801561030757600080fd5b5061031b610316366004612ad5565b610831565b604080516001600160a01b03909616865260208601949094529284019190915260608301521515608082015260a00161027c565b34801561035b57600080fd5b5061027260d05481565b34801561037157600080fd5b5061027260cb5481565b34801561038757600080fd5b5061039b610396366004612b58565b61087f565b005b3480156103a957600080fd5b5061039b6103b8366004612731565b610a10565b3480156103c957600080fd5b506103dd6103d8366004612ad5565b610a5c565b6040805193845260208401929092529082015260600161027c565b34801561040457600080fd5b5061039b610413366004612731565b610b07565b34801561042457600080fd5b5061039b610433366004612b99565b610bd0565b34801561044457600080fd5b5060d254610458906001600160a01b031681565b6040516001600160a01b03909116815260200161027c565b34801561047c57600080fd5b5061039b61048b366004612ad5565b610d5e565b34801561049c57600080fd5b5061027260d15481565b3480156104b257600080fd5b5060c954610458906001600160a01b031681565b3480156104d257600080fd5b5061039b6104e13660046127d6565b610fd3565b3480156104f257600080fd5b5061027260cc5481565b61039b61050a3660046128c3565b61104f565b34801561051b57600080fd5b5061039b61052a366004612ad5565b611109565b34801561053b57600080fd5b5061039b61054a366004612ad5565b6112dd565b34801561055b57600080fd5b5060d354610458906001600160a01b031681565b34801561057b57600080fd5b5061039b6113a0565b34801561059057600080fd5b5061039b61059f366004612bba565b6113c7565b3480156105b057600080fd5b5061039b611492565b3480156105c557600080fd5b506105d96105d4366004612731565b6114c8565b60405161027c9493929190612c61565b3480156105f557600080fd5b5060cd54610458906001600160a01b031681565b34801561061557600080fd5b5061039b610624366004612965565b61155f565b34801561063557600080fd5b5061039b610644366004612731565b6115c9565b34801561065557600080fd5b506097546001600160a01b0316610458565b34801561067357600080fd5b50610272610682366004612b99565b611631565b34801561069357600080fd5b506102d06106a2366004612b05565b60cf6020908152600092835260408084209091529082529020805460019091015482565b3480156106d257600080fd5b5060d154610272565b3480156106e757600080fd5b5061039b6106f6366004612731565b61168b565b34801561070757600080fd5b5061039b61071636600461274d565b6116ed565b34801561072757600080fd5b5061027260d45481565b34801561073d57600080fd5b5060ca54610458906001600160a01b031681565b34801561075d57600080fd5b506105d961076c36600461281b565b6117cd565b34801561077d57600080fd5b5061039b61078c366004612b99565b61186c565b34801561079d57600080fd5b5061039b6107ac366004612b34565b61198f565b3480156107bd57600080fd5b506102726107cc366004612731565b611a43565b3480156107dd57600080fd5b5061039b6107ec366004612731565b611ac1565b3480156107fd57600080fd5b5061039b61080c366004612ad5565b60d155565b34801561081d57600080fd5b5061027261082c366004612b05565b611b59565b60ce818154811061084157600080fd5b6000918252602090912060059091020180546001820154600283015460038401546004909401546001600160a01b0390931694509092909160ff1685565b6097546001600160a01b031633146108b25760405162461bcd60e51b81526004016108a990612e1c565b60405180910390fd5b80156108c0576108c06113a0565b600060d15443116108d35760d1546108d5565b435b60d0549091506108e59085611cd2565b60d0556040805160a0810182526001600160a01b039485168152602081019586529081019182526000606082018181526080830182815260ce8054600181018255935292517fd36cd1c74ef8d7326d8021b776c18fb5a5724b7f7bc93c2f42e43e10ef27d12a600590930292830180546001600160a01b031916919097161790955594517fd36cd1c74ef8d7326d8021b776c18fb5a5724b7f7bc93c2f42e43e10ef27d12b86015590517fd36cd1c74ef8d7326d8021b776c18fb5a5724b7f7bc93c2f42e43e10ef27d12c85015591517fd36cd1c74ef8d7326d8021b776c18fb5a5724b7f7bc93c2f42e43e10ef27d12d84015550517fd36cd1c74ef8d7326d8021b776c18fb5a5724b7f7bc93c2f42e43e10ef27d12e909101805460ff1916911515919091179055565b6097546001600160a01b03163314610a3a5760405162461bcd60e51b81526004016108a990612e1c565b60cd80546001600160a01b0319166001600160a01b0392909216919091179055565b600080600060ce8481548110610a8257634e487b7160e01b600052603260045260246000fd5b906000526020600020906005020160010154925060ce8481548110610ab757634e487b7160e01b600052603260045260246000fd5b906000526020600020906005020160020154915060ce8481548110610aec57634e487b7160e01b600052603260045260246000fd5b90600052602060002090600502016003015490509193909250565b306001600160a01b037f0000000000000000000000000000000000000000000000000000000000000000161415610b505760405162461bcd60e51b81526004016108a990612d36565b7f00000000000000000000000000000000000000000000000000000000000000006001600160a01b0316610b82611ce5565b6001600160a01b031614610ba85760405162461bcd60e51b81526004016108a990612d82565b610bb181611d13565b60408051600080825260208201909252610bcd91839190611d3d565b50565b600060ce8381548110610bf357634e487b7160e01b600052603260045260246000fd5b6000918252602080832086845260cf825260408085203386529092529220805460059092029092019250831115610c615760405162461bcd60e51b81526020600482015260126024820152711dda5d1a191c985dce881b9bdd0819dbdbd960721b60448201526064016108a9565b610c6a84611109565b6000610ca48260010154610c9e64e8d4a51000610c9887600301548760000154611e8190919063ffffffff16565b90611e8d565b90611e99565b90508015610cba57610cba33824260d554611ea5565b8154610cc69085611e99565b8083556003840154610ce39164e8d4a5100091610c989190611e81565b600183015560d3548354610d04916001600160a01b03918216911686611eec565b825460d454610d20916001600160a01b03169033908790610fd3565b604051848152859033907ff279e6a1f5e320cca91135676d9cb6e44ca8a08c0b88342bcdb1144f6511b5689060200160405180910390a35050505050565b60cd546001600160a01b0316610dad5760405162461bcd60e51b815260206004820152601460248201527336b4b3b930ba329d1037379036b4b3b930ba37b960611b60448201526064016108a9565b600060ce8281548110610dd057634e487b7160e01b600052603260045260246000fd5b6000918252602082206005919091020180546040516370a0823160e01b81523060048201529193506001600160a01b0316919082906370a082319060240160206040518083038186803b158015610e2657600080fd5b505afa158015610e3a573d6000803e3d6000fd5b505050506040513d601f19601f82011682018060405250810190610e5e9190612aed565b60cd54909150610e7b906001600160a01b03848116911683611eec565b60cd5460405163ce5494bb60e01b81526001600160a01b038481166004830152600092169063ce5494bb90602401602060405180830381600087803b158015610ec357600080fd5b505af1158015610ed7573d6000803e3d6000fd5b505050506040513d601f19601f82011682018060405250810190610efb9190612ab9565b6040516370a0823160e01b81523060048201529091506001600160a01b038216906370a082319060240160206040518083038186803b158015610f3d57600080fd5b505afa158015610f51573d6000803e3d6000fd5b505050506040513d601f19601f82011682018060405250810190610f759190612aed565b8214610fb25760405162461bcd60e51b815260206004820152600c60248201526b1b5a59dc985d194e8818985960a21b60448201526064016108a9565b83546001600160a01b0319166001600160a01b039190911617909255505050565b60d354604051634b86c22560e01b81526001600160a01b0386811660048301528581166024830152604482018590526064820184905290911690634b86c225906084015b600060405180830381600087803b15801561103157600080fd5b505af1158015611045573d6000803e3d6000fd5b5050505050505050565b306001600160a01b037f00000000000000000000000000000000000000000000000000000000000000001614156110985760405162461bcd60e51b81526004016108a990612d36565b7f00000000000000000000000000000000000000000000000000000000000000006001600160a01b03166110ca611ce5565b6001600160a01b0316146110f05760405162461bcd60e51b81526004016108a990612d82565b6110f982611d13565b61110582826001611d3d565b5050565b600060ce828154811061112c57634e487b7160e01b600052603260045260246000fd5b906000526020600020906005020190508060020154431161114d5750610bcd565b80546040516370a0823160e01b81523060048201526000916001600160a01b0316906370a082319060240160206040518083038186803b15801561119057600080fd5b505afa1580156111a4573d6000803e3d6000fd5b505050506040513d601f19601f820116820180604052508101906111c89190612aed565b9050806111dc575043600290910155610bcd565b60006111ec836002015443611631565b9050600061121960d054610c98866001015461121360cc5487611e8190919063ffffffff16565b90611e81565b60d25460ca549192506001600160a01b039081169163d9356213911661124084600a611e8d565b6040516001600160e01b031960e085901b1681526001600160a01b0390921660048301526024820152604401600060405180830381600087803b15801561128657600080fd5b505af115801561129a573d6000803e3d6000fd5b505050506112c86112bd84610c9864e8d4a5100085611e8190919063ffffffff16565b600386015490611cd2565b60038501555050436002909201919091555050565b600060ce828154811061130057634e487b7160e01b600052603260045260246000fd5b6000918252602080832085845260cf825260408085203386529092529220600460059092029092019081015490925060ff1661133d575050610bcd565b80548254611358916001600160a01b03909116903390612048565b8054604051908152839033907fbb757047c2b5f3974fe26b7c10f732e7bce710b0952a71082702781e62ae05959060200160405180910390a360008082556001909101555050565b60ce5460005b81811015611105576113b781611109565b6113c081612f40565b90506113a6565b6097546001600160a01b031633146113f15760405162461bcd60e51b81526004016108a990612e1c565b80156113ff576113ff6113a0565b6114508261144a60ce868154811061142757634e487b7160e01b600052603260045260246000fd5b90600052602060002090600502016001015460d054611e9990919063ffffffff16565b90611cd2565b60d0819055508160ce848154811061147857634e487b7160e01b600052603260045260246000fd5b906000526020600020906005020160010181905550505050565b6097546001600160a01b031633146114bc5760405162461bcd60e51b81526004016108a990612e1c565b6114c66000612078565b565b60d354604051637238ccdb60e01b81526001600160a01b0383811660048301526060928392839283921690637238ccdb9060240160006040518083038186803b15801561151457600080fd5b505afa158015611528573d6000803e3d6000fd5b505050506040513d6000823e601f3d908101601f191682016040526115509190810190612990565b93509350935093509193509193565b60d354604051637eee288d60e01b81526001600160a01b0384811660048301526024820184905290911690637eee288d90604401600060405180830381600087803b1580156115ad57600080fd5b505af11580156115c1573d6000803e3d6000fd5b505050505050565b60ca546001600160a01b0316331461160f5760405162461bcd60e51b81526020600482015260096024820152686465763a207775743f60b81b60448201526064016108a9565b60ca80546001600160a01b0319166001600160a01b0392909216919091179055565b600060cb54821161164d576116468284611e99565b9050611685565b60cb548310611660576116468284611e99565b61164661167860cb5484611e9990919063ffffffff16565b60cb5461144a9086611e99565b92915050565b60d254604051631784ef2560e31b81526001600160a01b0383811660048301529091169063bc27792890602401600060405180830381600087803b1580156116d257600080fd5b505af11580156116e6573d6000803e3d6000fd5b5050505050565b600054610100900460ff1680611706575060005460ff16155b6117225760405162461bcd60e51b81526004016108a990612dce565b600054610100900460ff16158015611744576000805461ffff19166101011790555b61174c6120ca565b60c980546001600160a01b03808d166001600160a01b03199283161790925560d380548c841690831617905560d280548b841690831617905560ca8054928a169290911691909117905560cc86905560d185905560cb84905560d483905560d582905580156117c1576000805461ff00191690555b50505050505050505050565b60d354604051636e7cf2cf60e11b81526060918291829182916001600160a01b039091169063dcf9e59e906118089089908990600401612c3d565b60006040518083038186803b15801561182057600080fd5b505afa158015611834573d6000803e3d6000fd5b505050506040513d6000823e601f3d908101601f1916820160405261185c9190810190612990565b9299919850965090945092505050565b600060ce838154811061188f57634e487b7160e01b600052603260045260246000fd5b6000918252602080832086845260cf825260408085203386529092529220600590910290910191506118c084611109565b80541561190d5760006118f58260010154610c9e64e8d4a51000610c9887600301548760000154611e8190919063ffffffff16565b9050801561190b5761190b33824260d554611ea5565b505b8154611924906001600160a01b0316333086612145565b80546119309084611cd2565b808255600383015461194d9164e8d4a5100091610c989190611e81565b6001820155604051838152849033907f90890809c654f11d6e72a28fa60149770a0d11ec6c92319d6ceb2bb0a4ea1a159060200160405180910390a350505050565b6097546001600160a01b031633146119b95760405162461bcd60e51b81526004016108a990612e1c565b60ce5482106119fb5760405162461bcd60e51b815260206004820152600e60248201526d1c1a59081a5cc81a5b9d985b1a5960921b60448201526064016108a9565b8060ce8381548110611a1d57634e487b7160e01b600052603260045260246000fd5b60009182526020909120600590910201600401805460ff19169115159190911790555050565b60d3546040516378d2c2a160e11b81526001600160a01b038381166004830152600092169063f1a585429060240160206040518083038186803b158015611a8957600080fd5b505afa158015611a9d573d6000803e3d6000fd5b505050506040513d601f19601f820116820180604052508101906116859190612aed565b6097546001600160a01b03163314611aeb5760405162461bcd60e51b81526004016108a990612e1c565b6001600160a01b038116611b505760405162461bcd60e51b815260206004820152602660248201527f4f776e61626c653a206e6577206f776e657220697320746865207a65726f206160448201526564647265737360d01b60648201526084016108a9565b610bcd81612078565b60008060ce8481548110611b7d57634e487b7160e01b600052603260045260246000fd5b6000918252602080832087845260cf825260408085206001600160a01b03898116875293528085206005949094029091016003810154815492516370a0823160e01b815230600482015291965093949291909116906370a082319060240160206040518083038186803b158015611bf357600080fd5b505afa158015611c07573d6000803e3d6000fd5b505050506040513d601f19601f82011682018060405250810190611c2b9190612aed565b9050836002015443118015611c3f57508015155b15611c9f576000611c54856002015443611631565b90506000611c7b60d054610c98886001015461121360cc5487611e8190919063ffffffff16565b9050611c9a611c9384610c988464e8d4a51000611e81565b8590611cd2565b935050505b611cc78360010154610c9e64e8d4a51000610c98868860000154611e8190919063ffffffff16565b979650505050505050565b6000611cde8284612ea6565b9392505050565b7f360894a13ba1a3210667c828492db98dca3e2076cc3735a920a3ca505d382bbc546001600160a01b031690565b6097546001600160a01b03163314610bcd5760405162461bcd60e51b81526004016108a990612e1c565b6000611d47611ce5565b9050611d5284612183565b600083511180611d5f5750815b15611d7057611d6e8484612228565b505b7f4910fdfa16fed3260ed0e7147f7cc6da11a60208b5b9406d12a635614ffd9143805460ff166116e657805460ff191660011781556040516001600160a01b0383166024820152611def90869060440160408051601f198184030181529190526020810180516001600160e01b0316631b2ce7f360e11b179052612228565b50805460ff19168155611e00611ce5565b6001600160a01b0316826001600160a01b031614611e785760405162461bcd60e51b815260206004820152602f60248201527f45524331393637557067726164653a207570677261646520627265616b73206660448201526e75727468657220757067726164657360881b60648201526084016108a9565b6116e685612313565b6000611cde8284612ede565b6000611cde8284612ebe565b6000611cde8284612efd565b60d254604051634cf518a160e01b81526001600160a01b03868116600483015260248201869052604482018590526064820184905290911690634cf518a190608401611017565b801580611f755750604051636eb1769f60e11b81523060048201526001600160a01b03838116602483015284169063dd62ed3e9060440160206040518083038186803b158015611f3b57600080fd5b505afa158015611f4f573d6000803e3d6000fd5b505050506040513d601f19601f82011682018060405250810190611f739190612aed565b155b611fe05760405162461bcd60e51b815260206004820152603660248201527f5361666545524332303a20617070726f76652066726f6d206e6f6e2d7a65726f60448201527520746f206e6f6e2d7a65726f20616c6c6f77616e636560501b60648201526084016108a9565b6040516001600160a01b03831660248201526044810182905261204390849063095ea7b360e01b906064015b60408051601f198184030181529190526020810180516001600160e01b03166001600160e01b031990931692909217909152612353565b505050565b6040516001600160a01b03831660248201526044810182905261204390849063a9059cbb60e01b9060640161200c565b609780546001600160a01b038381166001600160a01b0319831681179093556040519116919082907f8be0079c531659141344cd1fd0a4f28419497f9722a3daafe3b4186f6b6457e090600090a35050565b600054610100900460ff16806120e3575060005460ff16155b6120ff5760405162461bcd60e51b81526004016108a990612dce565b600054610100900460ff16158015612121576000805461ffff19166101011790555b612129612425565b61213161248f565b8015610bcd576000805461ff001916905550565b6040516001600160a01b038085166024830152831660448201526064810182905261217d9085906323b872dd60e01b9060840161200c565b50505050565b803b6121e75760405162461bcd60e51b815260206004820152602d60248201527f455243313936373a206e657720696d706c656d656e746174696f6e206973206e60448201526c1bdd08184818dbdb9d1c9858dd609a1b60648201526084016108a9565b7f360894a13ba1a3210667c828492db98dca3e2076cc3735a920a3ca505d382bbc80546001600160a01b0319166001600160a01b0392909216919091179055565b6060823b6122875760405162461bcd60e51b815260206004820152602660248201527f416464726573733a2064656c65676174652063616c6c20746f206e6f6e2d636f6044820152651b9d1c9858dd60d21b60648201526084016108a9565b600080846001600160a01b0316846040516122a29190612c21565b600060405180830381855af49150503d80600081146122dd576040519150601f19603f3d011682016040523d82523d6000602084013e6122e2565b606091505b509150915061230a8282604051806060016040528060278152602001612fab602791396124ef565b95945050505050565b61231c81612183565b6040516001600160a01b038216907fbc7cd75a20ee27fd9adebab32041f755214dbc6bffa90cc0225b39da2e5c2d3b90600090a250565b60006123a8826040518060400160405280602081526020017f5361666545524332303a206c6f772d6c6576656c2063616c6c206661696c6564815250856001600160a01b03166125289092919063ffffffff16565b80519091501561204357808060200190518101906123c69190612a9d565b6120435760405162461bcd60e51b815260206004820152602a60248201527f5361666545524332303a204552433230206f7065726174696f6e20646964206e6044820152691bdd081cdd58d8d9595960b21b60648201526084016108a9565b600054610100900460ff168061243e575060005460ff16155b61245a5760405162461bcd60e51b81526004016108a990612dce565b600054610100900460ff16158015612131576000805461ffff19166101011790558015610bcd576000805461ff001916905550565b600054610100900460ff16806124a8575060005460ff16155b6124c45760405162461bcd60e51b81526004016108a990612dce565b600054610100900460ff161580156124e6576000805461ffff19166101011790555b61213133612078565b606083156124fe575081611cde565b82511561250e5782518084602001fd5b8160405162461bcd60e51b81526004016108a99190612d03565b6060612537848460008561253f565b949350505050565b6060824710156125a05760405162461bcd60e51b815260206004820152602660248201527f416464726573733a20696e73756666696369656e742062616c616e636520666f6044820152651c8818d85b1b60d21b60648201526084016108a9565b843b6125ee5760405162461bcd60e51b815260206004820152601d60248201527f416464726573733a2063616c6c20746f206e6f6e2d636f6e747261637400000060448201526064016108a9565b600080866001600160a01b0316858760405161260a9190612c21565b60006040518083038185875af1925050503d8060008114612647576040519150601f19603f3d011682016040523d82523d6000602084013e61264c565b606091505b5091509150611cc78282866124ef565b600082601f83011261266c578081fd5b8151602061268161267c83612e82565b612e51565b80838252828201915082860187848660051b89010111156126a0578586fd5b855b858110156126c75781516126b581612f87565b845292840192908401906001016126a2565b5090979650505050505050565b600082601f8301126126e4578081fd5b815160206126f461267c83612e82565b80838252828201915082860187848660051b8901011115612713578586fd5b855b858110156126c757815184529284019290840190600101612715565b600060208284031215612742578081fd5b8135611cde81612f87565b60008060008060008060008060006101208a8c03121561276b578485fd5b893561277681612f87565b985060208a013561278681612f87565b975060408a013561279681612f87565b965060608a01356127a681612f87565b989b979a50959860808101359760a0820135975060c0820135965060e08201359550610100909101359350915050565b600080600080608085870312156127eb578384fd5b84356127f681612f87565b9350602085013561280681612f87565b93969395505050506040820135916060013590565b6000806040838503121561282d578182fd5b823561283881612f87565b915060208381013567ffffffffffffffff811115612854578283fd5b8401601f81018613612864578283fd5b803561287261267c82612e82565b80828252848201915084840189868560051b8701011115612891578687fd5b8694505b838510156128b3578035835260019490940193918501918501612895565b5080955050505050509250929050565b600080604083850312156128d5578182fd5b82356128e081612f87565b915060208381013567ffffffffffffffff808211156128fd578384fd5b818601915086601f830112612910578384fd5b81358181111561292257612922612f71565b612934601f8201601f19168501612e51565b91508082528784828501011115612949578485fd5b8084840185840137810190920192909252919491935090915050565b60008060408385031215612977578182fd5b823561298281612f87565b946020939093013593505050565b600080600080608085870312156129a5578182fd5b845167ffffffffffffffff808211156129bc578384fd5b818701915087601f8301126129cf578384fd5b815160206129df61267c83612e82565b8083825282820191508286018c848660051b89010111156129fe578889fd5b8896505b84871015612a29578051612a1581612f9c565b835260019690960195918301918301612a02565b50918a0151919850909350505080821115612a42578384fd5b612a4e8883890161265c565b94506040870151915080821115612a63578384fd5b612a6f888389016126d4565b93506060870151915080821115612a84578283fd5b50612a91878288016126d4565b91505092959194509250565b600060208284031215612aae578081fd5b8151611cde81612f9c565b600060208284031215612aca578081fd5b8151611cde81612f87565b600060208284031215612ae6578081fd5b5035919050565b600060208284031215612afe578081fd5b5051919050565b60008060408385031215612b17578182fd5b823591506020830135612b2981612f87565b809150509250929050565b60008060408385031215612b46578182fd5b823591506020830135612b2981612f9c565b600080600060608486031215612b6c578081fd5b833592506020840135612b7e81612f87565b91506040840135612b8e81612f9c565b809150509250925092565b60008060408385031215612bab578182fd5b50508035926020909101359150565b600080600060608486031215612bce578081fd5b83359250602084013591506040840135612b8e81612f9c565b6000815180845260208085019450808401835b83811015612c1657815187529582019590820190600101612bfa565b509495945050505050565b60008251612c33818460208701612f14565b9190910192915050565b6001600160a01b038316815260406020820181905260009061253790830184612be7565b6080808252855190820181905260009060209060a0840190828901845b82811015612c9c578151151584529284019290840190600101612c7e565b50505083810382850152865180825287830191830190845b81811015612cd95783516001600160a01b031683529284019291840191600101612cb4565b50508481036040860152612ced8188612be7565b925050508281036060840152611cc78185612be7565b6000602082528251806020840152612d22816040850160208701612f14565b601f01601f19169190910160400192915050565b6020808252602c908201527f46756e6374696f6e206d7573742062652063616c6c6564207468726f7567682060408201526b19195b1959d85d1958d85b1b60a21b606082015260800190565b6020808252602c908201527f46756e6374696f6e206d7573742062652063616c6c6564207468726f7567682060408201526b6163746976652070726f787960a01b606082015260800190565b6020808252602e908201527f496e697469616c697a61626c653a20636f6e747261637420697320616c72656160408201526d191e481a5b9a5d1a585b1a5e995960921b606082015260800190565b6020808252818101527f4f776e61626c653a2063616c6c6572206973206e6f7420746865206f776e6572604082015260600190565b604051601f8201601f1916810167ffffffffffffffff81118282101715612e7a57612e7a612f71565b604052919050565b600067ffffffffffffffff821115612e9c57612e9c612f71565b5060051b60200190565b60008219821115612eb957612eb9612f5b565b500190565b600082612ed957634e487b7160e01b81526012600452602481fd5b500490565b6000816000190483118215151615612ef857612ef8612f5b565b500290565b600082821015612f0f57612f0f612f5b565b500390565b60005b83811015612f2f578181015183820152602001612f17565b8381111561217d5750506000910152565b6000600019821415612f5457612f54612f5b565b5060010190565b634e487b7160e01b600052601160045260246000fd5b634e487b7160e01b600052604160045260246000fd5b6001600160a01b0381168114610bcd57600080fd5b8015158114610bcd57600080fdfe416464726573733a206c6f772d6c6576656c2064656c65676174652063616c6c206661696c6564a2646970667358221220ac8ae7425b0a5f1668697580326f4c28e5f522265b1cb33ae5abc169215ad72a64736f6c63430008030033",
  "linkReferences": {},
  "deployedLinkReferences": {}
}