{
  "_format": "hh-sol-artifact-1",
  "contractName": "MasterChef",
  "sourceName": "contracts/MasterChef.sol",
  "abi": [
    {
      "inputs": [],
      "stateMutability": "nonpayable",
      "type": "constructor"
    },
    {
      "anonymous": false,
      "inputs": [
        {
          "indexed": false,
          "internalType": "address",
          "name": "previousAdmin",
          "type": "address"
        },
        {
          "indexed": false,
          "internalType": "address",
          "name": "newAdmin",
          "type": "address"
        }
      ],
      "name": "AdminChanged",
      "type": "event"
    },
    {
      "anonymous": false,
      "inputs": [
        {
          "indexed": true,
          "internalType": "address",
          "name": "beacon",
          "type": "address"
        }
      ],
      "name": "BeaconUpgraded",
      "type": "event"
    },
    {
      "anonymous": false,
      "inputs": [
        {
          "indexed": true,
          "internalType": "address",
          "name": "user",
          "type": "address"
        },
        {
          "indexed": true,
          "internalType": "uint256",
          "name": "pid",
          "type": "uint256"
        },
        {
          "indexed": false,
          "internalType": "uint256",
          "name": "amount",
          "type": "uint256"
        }
      ],
      "name": "Deposit",
      "type": "event"
    },
    {
      "anonymous": false,
      "inputs": [
        {
          "indexed": true,
          "internalType": "address",
          "name": "user",
          "type": "address"
        },
        {
          "indexed": true,
          "internalType": "uint256",
          "name": "pid",
          "type": "uint256"
        },
        {
          "indexed": false,
          "internalType": "uint256",
          "name": "amounts",
          "type": "uint256"
        }
      ],
      "name": "EmergencyWithdraw",
      "type": "event"
    },
    {
      "anonymous": false,
      "inputs": [
        {
          "indexed": true,
          "internalType": "address",
          "name": "previousOwner",
          "type": "address"
        },
        {
          "indexed": true,
          "internalType": "address",
          "name": "newOwner",
          "type": "address"
        }
      ],
      "name": "OwnershipTransferred",
      "type": "event"
    },
    {
      "anonymous": false,
      "inputs": [
        {
          "indexed": true,
          "internalType": "address",
          "name": "implementation",
          "type": "address"
        }
      ],
      "name": "Upgraded",
      "type": "event"
    },
    {
      "anonymous": false,
      "inputs": [
        {
          "indexed": true,
          "internalType": "address",
          "name": "user",
          "type": "address"
        },
        {
          "indexed": true,
          "internalType": "uint256",
          "name": "pid",
          "type": "uint256"
        },
        {
          "indexed": false,
          "internalType": "uint256",
          "name": "amount",
          "type": "uint256"
        }
      ],
      "name": "Withdraw",
      "type": "event"
    },
    {
      "inputs": [
        {
          "internalType": "uint256",
          "name": "_allocPoint",
          "type": "uint256"
        },
        {
          "internalType": "contract IERC20Upgradeable",
          "name": "_lpToken",
          "type": "address"
        },
        {
          "internalType": "bool",
          "name": "_withUpdate",
          "type": "bool"
        }
      ],
      "name": "add",
      "outputs": [],
      "stateMutability": "nonpayable",
      "type": "function"
    },
    {
      "inputs": [],
      "name": "bonusEndBlock",
      "outputs": [
        {
          "internalType": "uint256",
          "name": "",
          "type": "uint256"
        }
      ],
      "stateMutability": "view",
      "type": "function"
    },
    {
      "inputs": [
        {
          "internalType": "uint256",
          "name": "_pid",
          "type": "uint256"
        },
        {
          "internalType": "uint256",
          "name": "_amount",
          "type": "uint256"
        }
      ],
      "name": "deposit",
      "outputs": [],
      "stateMutability": "nonpayable",
      "type": "function"
    },
    {
      "inputs": [
        {
          "internalType": "uint256",
          "name": "_pid",
          "type": "uint256"
        }
      ],
      "name": "emergencyWithdraw",
      "outputs": [],
      "stateMutability": "nonpayable",
      "type": "function"
    },
    {
      "inputs": [],
      "name": "firo",
      "outputs": [
        {
          "internalType": "contract FiroToken",
          "name": "",
          "type": "address"
        }
      ],
      "stateMutability": "view",
      "type": "function"
    },
    {
      "inputs": [],
      "name": "firoPerBlock",
      "outputs": [
        {
          "internalType": "uint256",
          "name": "",
          "type": "uint256"
        }
      ],
      "stateMutability": "view",
      "type": "function"
    },
    {
      "inputs": [
        {
          "internalType": "address",
          "name": "_user",
          "type": "address"
        }
      ],
      "name": "getLockInfo",
      "outputs": [
        {
          "internalType": "bool[]",
          "name": "isWithdrawns",
          "type": "bool[]"
        },
        {
          "internalType": "address[]",
          "name": "tokens",
          "type": "address[]"
        },
        {
          "internalType": "uint256[]",
          "name": "unlockableAts",
          "type": "uint256[]"
        },
        {
          "internalType": "uint256[]",
          "name": "amounts",
          "type": "uint256[]"
        }
      ],
      "stateMutability": "view",
      "type": "function"
    },
    {
      "inputs": [
        {
          "internalType": "address",
          "name": "_addr",
          "type": "address"
        },
        {
          "internalType": "uint256[]",
          "name": "_indexes",
          "type": "uint256[]"
        }
      ],
      "name": "getLockInfoByIndexes",
      "outputs": [
        {
          "internalType": "bool[]",
          "name": "isWithdrawns",
          "type": "bool[]"
        },
        {
          "internalType": "address[]",
          "name": "tokens",
          "type": "address[]"
        },
        {
          "internalType": "uint256[]",
          "name": "unlockableAts",
          "type": "uint256[]"
        },
        {
          "internalType": "uint256[]",
          "name": "amounts",
          "type": "uint256[]"
        }
      ],
      "stateMutability": "view",
      "type": "function"
    },
    {
      "inputs": [
        {
          "internalType": "address",
          "name": "_addr",
          "type": "address"
        }
      ],
      "name": "getLockInfoLength",
      "outputs": [
        {
          "internalType": "uint256",
          "name": "",
          "type": "uint256"
        }
      ],
      "stateMutability": "view",
      "type": "function"
    },
    {
      "inputs": [
        {
          "internalType": "uint256",
          "name": "_from",
          "type": "uint256"
        },
        {
          "internalType": "uint256",
          "name": "_to",
          "type": "uint256"
        }
      ],
      "name": "getMultiplier",
      "outputs": [
        {
          "internalType": "uint256",
          "name": "",
          "type": "uint256"
        }
      ],
      "stateMutability": "view",
      "type": "function"
    },
    {
      "inputs": [
        {
          "internalType": "uint256",
          "name": "_pid",
          "type": "uint256"
        }
      ],
      "name": "getPoolInfo",
      "outputs": [
        {
          "internalType": "uint256",
          "name": "allocPoint",
          "type": "uint256"
        },
        {
          "internalType": "uint256",
          "name": "lastRewardBlock",
          "type": "uint256"
        },
        {
          "internalType": "uint256",
          "name": "accFiroPerShare",
          "type": "uint256"
        }
      ],
      "stateMutability": "view",
      "type": "function"
    },
    {
      "inputs": [
        {
          "internalType": "uint256",
          "name": "_pid",
          "type": "uint256"
        },
        {
          "internalType": "address",
          "name": "_user",
          "type": "address"
        }
      ],
      "name": "getUserInfo",
      "outputs": [
        {
          "internalType": "uint256",
          "name": "amount",
          "type": "uint256"
        },
        {
          "internalType": "uint256",
          "name": "rewardDebt",
          "type": "uint256"
        }
      ],
      "stateMutability": "view",
      "type": "function"
    },
    {
      "inputs": [
        {
          "internalType": "address",
          "name": "_locking",
          "type": "address"
        },
        {
          "internalType": "address",
          "name": "_vesting",
          "type": "address"
        },
        {
          "internalType": "uint256",
          "name": "_firoPerBlock",
          "type": "uint256"
        },
        {
          "internalType": "uint256",
          "name": "_startBlock",
          "type": "uint256"
        },
        {
          "internalType": "uint256",
          "name": "_bonusEndBlock",
          "type": "uint256"
        },
        {
          "internalType": "uint256",
          "name": "_lockingDuration",
          "type": "uint256"
        },
        {
          "internalType": "uint256",
          "name": "_vestingDuration",
          "type": "uint256"
        }
      ],
      "name": "initialize",
      "outputs": [],
      "stateMutability": "nonpayable",
      "type": "function"
    },
    {
      "inputs": [
        {
          "internalType": "address",
          "name": "_token",
          "type": "address"
        },
        {
          "internalType": "address",
          "name": "_addr",
          "type": "address"
        },
        {
          "internalType": "uint256",
          "name": "_amount",
          "type": "uint256"
        },
        {
          "internalType": "uint256",
          "name": "_lockedTime",
          "type": "uint256"
        }
      ],
      "name": "lock",
      "outputs": [],
      "stateMutability": "nonpayable",
      "type": "function"
    },
    {
      "inputs": [],
      "name": "locking",
      "outputs": [
        {
          "internalType": "contract Locking",
          "name": "",
          "type": "address"
        }
      ],
      "stateMutability": "view",
      "type": "function"
    },
    {
      "inputs": [],
      "name": "lockingDuration",
      "outputs": [
        {
          "internalType": "uint256",
          "name": "",
          "type": "uint256"
        }
      ],
      "stateMutability": "view",
      "type": "function"
    },
    {
      "inputs": [],
      "name": "massUpdatePools",
      "outputs": [],
      "stateMutability": "nonpayable",
      "type": "function"
    },
    {
      "inputs": [
        {
          "internalType": "uint256",
          "name": "_pid",
          "type": "uint256"
        }
      ],
      "name": "migrate",
      "outputs": [],
      "stateMutability": "nonpayable",
      "type": "function"
    },
    {
      "inputs": [],
      "name": "migrator",
      "outputs": [
        {
          "internalType": "contract IMigratorChef",
          "name": "",
          "type": "address"
        }
      ],
      "stateMutability": "view",
      "type": "function"
    },
    {
      "inputs": [],
      "name": "owner",
      "outputs": [
        {
          "internalType": "address",
          "name": "",
          "type": "address"
        }
      ],
      "stateMutability": "view",
      "type": "function"
    },
    {
      "inputs": [
        {
          "internalType": "uint256",
          "name": "_pid",
          "type": "uint256"
        },
        {
          "internalType": "address",
          "name": "_user",
          "type": "address"
        }
      ],
      "name": "pendingFiro",
      "outputs": [
        {
          "internalType": "uint256",
          "name": "",
          "type": "uint256"
        }
      ],
      "stateMutability": "view",
      "type": "function"
    },
    {
      "inputs": [
        {
          "internalType": "uint256",
          "name": "",
          "type": "uint256"
        }
      ],
      "name": "poolInfo",
      "outputs": [
        {
          "internalType": "contract IERC20Upgradeable",
          "name": "lpToken",
          "type": "address"
        },
        {
          "internalType": "uint256",
          "name": "allocPoint",
          "type": "uint256"
        },
        {
          "internalType": "uint256",
          "name": "lastRewardBlock",
          "type": "uint256"
        },
        {
          "internalType": "uint256",
          "name": "accFiroPerShare",
          "type": "uint256"
        },
        {
          "internalType": "bool",
          "name": "isEmergency",
          "type": "bool"
        }
      ],
      "stateMutability": "view",
      "type": "function"
    },
    {
      "inputs": [],
      "name": "poolLength",
      "outputs": [
        {
          "internalType": "uint256",
          "name": "",
          "type": "uint256"
        }
      ],
      "stateMutability": "view",
      "type": "function"
    },
    {
      "inputs": [],
      "name": "renounceOwnership",
      "outputs": [],
      "stateMutability": "nonpayable",
      "type": "function"
    },
    {
      "inputs": [
        {
          "internalType": "uint256",
          "name": "_pid",
          "type": "uint256"
        },
        {
          "internalType": "uint256",
          "name": "_allocPoint",
          "type": "uint256"
        },
        {
          "internalType": "bool",
          "name": "_withUpdate",
          "type": "bool"
        }
      ],
      "name": "set",
      "outputs": [],
      "stateMutability": "nonpayable",
      "type": "function"
    },
    {
      "inputs": [
        {
          "internalType": "uint256",
          "name": "_pid",
          "type": "uint256"
        },
        {
          "internalType": "bool",
          "name": "_isEmergency",
          "type": "bool"
        }
      ],
      "name": "setEmergency",
      "outputs": [],
      "stateMutability": "nonpayable",
      "type": "function"
    },
    {
      "inputs": [
        {
          "internalType": "contract IMigratorChef",
          "name": "_migrator",
          "type": "address"
        }
      ],
      "name": "setMigrator",
      "outputs": [],
      "stateMutability": "nonpayable",
      "type": "function"
    },
    {
      "inputs": [],
      "name": "startBlock",
      "outputs": [
        {
          "internalType": "uint256",
          "name": "",
          "type": "uint256"
        }
      ],
      "stateMutability": "view",
      "type": "function"
    },
    {
      "inputs": [],
      "name": "totalAllocPoint",
      "outputs": [
        {
          "internalType": "uint256",
          "name": "",
          "type": "uint256"
        }
      ],
      "stateMutability": "view",
      "type": "function"
    },
    {
      "inputs": [
        {
          "internalType": "address",
          "name": "newOwner",
          "type": "address"
        }
      ],
      "name": "transferOwnership",
      "outputs": [],
      "stateMutability": "nonpayable",
      "type": "function"
    },
    {
      "inputs": [
        {
          "internalType": "address",
          "name": "_addr",
          "type": "address"
        },
        {
          "internalType": "uint256",
          "name": "index",
          "type": "uint256"
        }
      ],
      "name": "unlock",
      "outputs": [],
      "stateMutability": "nonpayable",
      "type": "function"
    },
    {
      "inputs": [
        {
          "internalType": "address",
          "name": "_addr",
          "type": "address"
        }
      ],
      "name": "unlockVesting",
      "outputs": [],
      "stateMutability": "nonpayable",
      "type": "function"
    },
    {
      "inputs": [
        {
          "internalType": "uint256",
          "name": "_pid",
          "type": "uint256"
        }
      ],
      "name": "updatePool",
      "outputs": [],
      "stateMutability": "nonpayable",
      "type": "function"
    },
    {
      "inputs": [
        {
          "internalType": "address",
          "name": "newImplementation",
          "type": "address"
        }
      ],
      "name": "upgradeTo",
      "outputs": [],
      "stateMutability": "nonpayable",
      "type": "function"
    },
    {
      "inputs": [
        {
          "internalType": "address",
          "name": "newImplementation",
          "type": "address"
        },
        {
          "internalType": "bytes",
          "name": "data",
          "type": "bytes"
        }
      ],
      "name": "upgradeToAndCall",
      "outputs": [],
      "stateMutability": "payable",
      "type": "function"
    },
    {
      "inputs": [
        {
          "internalType": "uint256",
          "name": "",
          "type": "uint256"
        },
        {
          "internalType": "address",
          "name": "",
          "type": "address"
        }
      ],
      "name": "userInfo",
      "outputs": [
        {
          "internalType": "uint256",
          "name": "amount",
          "type": "uint256"
        },
        {
          "internalType": "uint256",
          "name": "rewardDebt",
          "type": "uint256"
        }
      ],
      "stateMutability": "view",
      "type": "function"
    },
    {
      "inputs": [],
      "name": "vesting",
      "outputs": [
        {
          "internalType": "contract Vesting",
          "name": "",
          "type": "address"
        }
      ],
      "stateMutability": "view",
      "type": "function"
    },
    {
      "inputs": [],
      "name": "vestingDuration",
      "outputs": [
        {
          "internalType": "uint256",
          "name": "",
          "type": "uint256"
        }
      ],
      "stateMutability": "view",
      "type": "function"
    },
    {
      "inputs": [
        {
          "internalType": "uint256",
          "name": "_pid",
          "type": "uint256"
        },
        {
          "internalType": "uint256",
          "name": "_amount",
          "type": "uint256"
        }
      ],
      "name": "withdraw",
      "outputs": [],
      "stateMutability": "nonpayable",
      "type": "function"
    }
  ],
  "bytecode": "0x60a06040523060601b6080523480156200001857600080fd5b50600054610100900460ff168062000033575060005460ff16155b6200009b5760405162461bcd60e51b815260206004820152602e60248201527f496e697469616c697a61626c653a20636f6e747261637420697320616c72656160448201526d191e481a5b9a5d1a585b1a5e995960921b606482015260840160405180910390fd5b600054610100900460ff16158015620000be576000805461ffff19166101011790555b8015620000d1576000805461ff00191690555b5060805160601c612e5d6200010660003960008181610a7101528181610ab101528181610fb90152610ff90152612e5d6000f3fe6080604052600436106102305760003560e01c80635312ea8e1161012e57806393f1a40b116100ab578063e62e17891161006f578063e62e1789146106f0578063edbf4ac214610710578063f1a5854214610730578063f2fde38b14610750578063f91d06791461077057610230565b806393f1a40b1461063b578063bc2779281461067a578063cea8c7461461069a578063dcf9e59e146106b0578063e2bbb158146106d057610230565b80637238ccdb116100f25780637238ccdb1461058d5780637cd07e47146105bd5780637eee288d146105dd5780638da5cb5b146105fd5780638dbb1e3a1461061b57610230565b80635312ea8e1461050357806358ad5a8b14610523578063630b5ba11461054357806364482f7914610558578063715018a61461057857610230565b80633659cfe6116101bc5780634a6433f0116101805780634a6433f01461047a5780634b86c2251461049a5780634f0755a0146104ba5780634f1ef286146104d057806351eb05a6146104e357610230565b80633659cfe6146103cc578063441a3e70146103ec57806344c63eec1461040c578063454b06081461044457806348cd4cb11461046457610230565b806317caf6f11161020357806317caf6f1146103235780631aed6553146103395780631eaaa0451461034f57806323cf3118146103715780632f380b351461039157610230565b8063081e3eda146102355780631069f3b5146102595780631514617e146102b95780631526fe27146102cf575b600080fd5b34801561024157600080fd5b5060cd545b6040519081526020015b60405180910390f35b34801561026557600080fd5b506102a461027436600461295b565b600091825260ce602090815260408084206001600160a01b03939093168452919052902080546001909101549091565b60408051928352602083019190915201610250565b3480156102c557600080fd5b5061024660d45481565b3480156102db57600080fd5b506102ef6102ea36600461292b565b610790565b604080516001600160a01b03909616865260208601949094529284019190915260608301521515608082015260a001610250565b34801561032f57600080fd5b5061024660cf5481565b34801561034557600080fd5b5061024660ca5481565b34801561035b57600080fd5b5061036f61036a3660046129ae565b6107de565b005b34801561037d57600080fd5b5061036f61038c3660046125af565b61096f565b34801561039d57600080fd5b506103b16103ac36600461292b565b6109bb565b60408051938452602084019290925290820152606001610250565b3480156103d857600080fd5b5061036f6103e73660046125af565b610a66565b3480156103f857600080fd5b5061036f6104073660046129ef565b610b2f565b34801561041857600080fd5b5060d15461042c906001600160a01b031681565b6040516001600160a01b039091168152602001610250565b34801561045057600080fd5b5061036f61045f36600461292b565b610cbd565b34801561047057600080fd5b5061024660d05481565b34801561048657600080fd5b5060c95461042c906001600160a01b031681565b3480156104a657600080fd5b5061036f6104b53660046125cb565b610f32565b3480156104c657600080fd5b5061024660cb5481565b61036f6104de366004612719565b610fae565b3480156104ef57600080fd5b5061036f6104fe36600461292b565b611068565b34801561050f57600080fd5b5061036f61051e36600461292b565b6111b0565b34801561052f57600080fd5b5060d25461042c906001600160a01b031681565b34801561054f57600080fd5b5061036f6112a3565b34801561056457600080fd5b5061036f610573366004612a10565b6112ca565b34801561058457600080fd5b5061036f611395565b34801561059957600080fd5b506105ad6105a83660046125af565b6113cb565b6040516102509493929190612ab7565b3480156105c957600080fd5b5060cc5461042c906001600160a01b031681565b3480156105e957600080fd5b5061036f6105f83660046127bb565b611462565b34801561060957600080fd5b506097546001600160a01b031661042c565b34801561062757600080fd5b506102466106363660046129ef565b6114cc565b34801561064757600080fd5b506102a461065636600461295b565b60ce6020908152600092835260408084209091529082529020805460019091015482565b34801561068657600080fd5b5061036f6106953660046125af565b611526565b3480156106a657600080fd5b5061024660d35481565b3480156106bc57600080fd5b506105ad6106cb366004612671565b611588565b3480156106dc57600080fd5b5061036f6106eb3660046129ef565b611627565b3480156106fc57600080fd5b5061036f61070b36600461298a565b61174a565b34801561071c57600080fd5b5061036f61072b366004612610565b6117fe565b34801561073c57600080fd5b5061024661074b3660046125af565b6118c1565b34801561075c57600080fd5b5061036f61076b3660046125af565b61193f565b34801561077c57600080fd5b5061024661078b36600461295b565b6119d7565b60cd81815481106107a057600080fd5b6000918252602090912060059091020180546001820154600283015460038401546004909401546001600160a01b0390931694509092909160ff1685565b6097546001600160a01b031633146108115760405162461bcd60e51b815260040161080890612c72565b60405180910390fd5b801561081f5761081f6112a3565b600060d05443116108325760d054610834565b435b60cf549091506108449085611b50565b60cf556040805160a0810182526001600160a01b039485168152602081019586529081019182526000606082018181526080830182815260cd8054600181018255935292517f83978b4c69c48dd978ab43fe30f077615294f938fb7f936d9eb340e51ea7db2e600590930292830180546001600160a01b031916919097161790955594517f83978b4c69c48dd978ab43fe30f077615294f938fb7f936d9eb340e51ea7db2f86015590517f83978b4c69c48dd978ab43fe30f077615294f938fb7f936d9eb340e51ea7db3085015591517f83978b4c69c48dd978ab43fe30f077615294f938fb7f936d9eb340e51ea7db3184015550517f83978b4c69c48dd978ab43fe30f077615294f938fb7f936d9eb340e51ea7db32909101805460ff1916911515919091179055565b6097546001600160a01b031633146109995760405162461bcd60e51b815260040161080890612c72565b60cc80546001600160a01b0319166001600160a01b0392909216919091179055565b600080600060cd84815481106109e157634e487b7160e01b600052603260045260246000fd5b906000526020600020906005020160010154925060cd8481548110610a1657634e487b7160e01b600052603260045260246000fd5b906000526020600020906005020160020154915060cd8481548110610a4b57634e487b7160e01b600052603260045260246000fd5b90600052602060002090600502016003015490509193909250565b306001600160a01b037f0000000000000000000000000000000000000000000000000000000000000000161415610aaf5760405162461bcd60e51b815260040161080890612b8c565b7f00000000000000000000000000000000000000000000000000000000000000006001600160a01b0316610ae1611b63565b6001600160a01b031614610b075760405162461bcd60e51b815260040161080890612bd8565b610b1081611b91565b60408051600080825260208201909252610b2c91839190611bbb565b50565b600060cd8381548110610b5257634e487b7160e01b600052603260045260246000fd5b6000918252602080832086845260ce825260408085203386529092529220805460059092029092019250831115610bc05760405162461bcd60e51b81526020600482015260126024820152711dda5d1a191c985dce881b9bdd0819dbdbd960721b6044820152606401610808565b610bc984611068565b6000610c038260010154610bfd64e8d4a51000610bf787600301548760000154611cff90919063ffffffff16565b90611d0b565b90611d17565b90508015610c1957610c1933824260d454611d23565b8154610c259085611d17565b8083556003840154610c429164e8d4a5100091610bf79190611cff565b600183015560d2548354610c63916001600160a01b03918216911686611d6a565b825460d354610c7f916001600160a01b03169033908790610f32565b604051848152859033907ff279e6a1f5e320cca91135676d9cb6e44ca8a08c0b88342bcdb1144f6511b5689060200160405180910390a35050505050565b60cc546001600160a01b0316610d0c5760405162461bcd60e51b815260206004820152601460248201527336b4b3b930ba329d1037379036b4b3b930ba37b960611b6044820152606401610808565b600060cd8281548110610d2f57634e487b7160e01b600052603260045260246000fd5b6000918252602082206005919091020180546040516370a0823160e01b81523060048201529193506001600160a01b0316919082906370a082319060240160206040518083038186803b158015610d8557600080fd5b505afa158015610d99573d6000803e3d6000fd5b505050506040513d601f19601f82011682018060405250810190610dbd9190612943565b60cc54909150610dda906001600160a01b03848116911683611d6a565b60cc5460405163ce5494bb60e01b81526001600160a01b038481166004830152600092169063ce5494bb90602401602060405180830381600087803b158015610e2257600080fd5b505af1158015610e36573d6000803e3d6000fd5b505050506040513d601f19601f82011682018060405250810190610e5a919061290f565b6040516370a0823160e01b81523060048201529091506001600160a01b038216906370a082319060240160206040518083038186803b158015610e9c57600080fd5b505afa158015610eb0573d6000803e3d6000fd5b505050506040513d601f19601f82011682018060405250810190610ed49190612943565b8214610f115760405162461bcd60e51b815260206004820152600c60248201526b1b5a59dc985d194e8818985960a21b6044820152606401610808565b83546001600160a01b0319166001600160a01b039190911617909255505050565b60d254604051634b86c22560e01b81526001600160a01b0386811660048301528581166024830152604482018590526064820184905290911690634b86c225906084015b600060405180830381600087803b158015610f9057600080fd5b505af1158015610fa4573d6000803e3d6000fd5b5050505050505050565b306001600160a01b037f0000000000000000000000000000000000000000000000000000000000000000161415610ff75760405162461bcd60e51b815260040161080890612b8c565b7f00000000000000000000000000000000000000000000000000000000000000006001600160a01b0316611029611b63565b6001600160a01b03161461104f5760405162461bcd60e51b815260040161080890612bd8565b61105882611b91565b61106482826001611bbb565b5050565b600060cd828154811061108b57634e487b7160e01b600052603260045260246000fd5b90600052602060002090600502019050806002015443116110ac5750610b2c565b80546040516370a0823160e01b81523060048201526000916001600160a01b0316906370a082319060240160206040518083038186803b1580156110ef57600080fd5b505afa158015611103573d6000803e3d6000fd5b505050506040513d601f19601f820116820180604052508101906111279190612943565b90508061113b575043600290910155610b2c565b600061114b8360020154436114cc565b9050600061117860cf54610bf7866001015461117260cb5487611cff90919063ffffffff16565b90611cff565b905061119b61119084610bf78464e8d4a51000611cff565b600386015490611b50565b60038501555050436002909201919091555050565b600060cd82815481106111d357634e487b7160e01b600052603260045260246000fd5b6000918252602080832085845260ce825260408085203386529092529220600460059092029092019081015490925060ff166112405760405162461bcd60e51b815260206004820152600c60248201526b216973456d657267656e637960a01b6044820152606401610808565b8054825461125b916001600160a01b03909116903390611ec6565b8054604051908152839033907fbb757047c2b5f3974fe26b7c10f732e7bce710b0952a71082702781e62ae05959060200160405180910390a360008082556001909101555050565b60cd5460005b81811015611064576112ba81611068565b6112c381612d96565b90506112a9565b6097546001600160a01b031633146112f45760405162461bcd60e51b815260040161080890612c72565b8015611302576113026112a3565b6113538261134d60cd868154811061132a57634e487b7160e01b600052603260045260246000fd5b90600052602060002090600502016001015460cf54611d1790919063ffffffff16565b90611b50565b60cf819055508160cd848154811061137b57634e487b7160e01b600052603260045260246000fd5b906000526020600020906005020160010181905550505050565b6097546001600160a01b031633146113bf5760405162461bcd60e51b815260040161080890612c72565b6113c96000611ef6565b565b60d254604051637238ccdb60e01b81526001600160a01b0383811660048301526060928392839283921690637238ccdb9060240160006040518083038186803b15801561141757600080fd5b505afa15801561142b573d6000803e3d6000fd5b505050506040513d6000823e601f3d908101601f1916820160405261145391908101906127e6565b93509350935093509193509193565b60d254604051637eee288d60e01b81526001600160a01b0384811660048301526024820184905290911690637eee288d90604401600060405180830381600087803b1580156114b057600080fd5b505af11580156114c4573d6000803e3d6000fd5b505050505050565b600060ca5482116114e8576114e18284611d17565b9050611520565b60ca5483106114fb576114e18284611d17565b6114e161151360ca5484611d1790919063ffffffff16565b60ca5461134d9086611d17565b92915050565b60d154604051631784ef2560e31b81526001600160a01b0383811660048301529091169063bc27792890602401600060405180830381600087803b15801561156d57600080fd5b505af1158015611581573d6000803e3d6000fd5b5050505050565b60d254604051636e7cf2cf60e11b81526060918291829182916001600160a01b039091169063dcf9e59e906115c39089908990600401612a93565b60006040518083038186803b1580156115db57600080fd5b505afa1580156115ef573d6000803e3d6000fd5b505050506040513d6000823e601f3d908101601f1916820160405261161791908101906127e6565b9299919850965090945092505050565b600060cd838154811061164a57634e487b7160e01b600052603260045260246000fd5b6000918252602080832086845260ce8252604080852033865290925292206005909102909101915061167b84611068565b8054156116c85760006116b08260010154610bfd64e8d4a51000610bf787600301548760000154611cff90919063ffffffff16565b905080156116c6576116c633824260d454611d23565b505b81546116df906001600160a01b0316333086611f48565b80546116eb9084611b50565b80825560038301546117089164e8d4a5100091610bf79190611cff565b6001820155604051838152849033907f90890809c654f11d6e72a28fa60149770a0d11ec6c92319d6ceb2bb0a4ea1a159060200160405180910390a350505050565b6097546001600160a01b031633146117745760405162461bcd60e51b815260040161080890612c72565b60cd5482106117b65760405162461bcd60e51b815260206004820152600e60248201526d1c1a59081a5cc81a5b9d985b1a5960921b6044820152606401610808565b8060cd83815481106117d857634e487b7160e01b600052603260045260246000fd5b60009182526020909120600590910201600401805460ff19169115159190911790555050565b600054610100900460ff1680611817575060005460ff16155b6118335760405162461bcd60e51b815260040161080890612c24565b600054610100900460ff16158015611855576000805461ffff19166101011790555b61185d611f86565b60d280546001600160a01b03808b166001600160a01b03199283161790925560d18054928a169290911691909117905560cb86905560d085905560ca84905560d383905560d48290558015610fa4576000805461ff00191690555050505050505050565b60d2546040516378d2c2a160e11b81526001600160a01b038381166004830152600092169063f1a585429060240160206040518083038186803b15801561190757600080fd5b505afa15801561191b573d6000803e3d6000fd5b505050506040513d601f19601f820116820180604052508101906115209190612943565b6097546001600160a01b031633146119695760405162461bcd60e51b815260040161080890612c72565b6001600160a01b0381166119ce5760405162461bcd60e51b815260206004820152602660248201527f4f776e61626c653a206e6577206f776e657220697320746865207a65726f206160448201526564647265737360d01b6064820152608401610808565b610b2c81611ef6565b60008060cd84815481106119fb57634e487b7160e01b600052603260045260246000fd5b6000918252602080832087845260ce825260408085206001600160a01b03898116875293528085206005949094029091016003810154815492516370a0823160e01b815230600482015291965093949291909116906370a082319060240160206040518083038186803b158015611a7157600080fd5b505afa158015611a85573d6000803e3d6000fd5b505050506040513d601f19601f82011682018060405250810190611aa99190612943565b9050836002015443118015611abd57508015155b15611b1d576000611ad28560020154436114cc565b90506000611af960cf54610bf7886001015461117260cb5487611cff90919063ffffffff16565b9050611b18611b1184610bf78464e8d4a51000611cff565b8590611b50565b935050505b611b458360010154610bfd64e8d4a51000610bf7868860000154611cff90919063ffffffff16565b979650505050505050565b6000611b5c8284612cfc565b9392505050565b7f360894a13ba1a3210667c828492db98dca3e2076cc3735a920a3ca505d382bbc546001600160a01b031690565b6097546001600160a01b03163314610b2c5760405162461bcd60e51b815260040161080890612c72565b6000611bc5611b63565b9050611bd084612001565b600083511180611bdd5750815b15611bee57611bec84846120a6565b505b7f4910fdfa16fed3260ed0e7147f7cc6da11a60208b5b9406d12a635614ffd9143805460ff1661158157805460ff191660011781556040516001600160a01b0383166024820152611c6d90869060440160408051601f198184030181529190526020810180516001600160e01b0316631b2ce7f360e11b1790526120a6565b50805460ff19168155611c7e611b63565b6001600160a01b0316826001600160a01b031614611cf65760405162461bcd60e51b815260206004820152602f60248201527f45524331393637557067726164653a207570677261646520627265616b73206660448201526e75727468657220757067726164657360881b6064820152608401610808565b61158185612191565b6000611b5c8284612d34565b6000611b5c8284612d14565b6000611b5c8284612d53565b60d154604051634cf518a160e01b81526001600160a01b03868116600483015260248201869052604482018590526064820184905290911690634cf518a190608401610f76565b801580611df35750604051636eb1769f60e11b81523060048201526001600160a01b03838116602483015284169063dd62ed3e9060440160206040518083038186803b158015611db957600080fd5b505afa158015611dcd573d6000803e3d6000fd5b505050506040513d601f19601f82011682018060405250810190611df19190612943565b155b611e5e5760405162461bcd60e51b815260206004820152603660248201527f5361666545524332303a20617070726f76652066726f6d206e6f6e2d7a65726f60448201527520746f206e6f6e2d7a65726f20616c6c6f77616e636560501b6064820152608401610808565b6040516001600160a01b038316602482015260448101829052611ec190849063095ea7b360e01b906064015b60408051601f198184030181529190526020810180516001600160e01b03166001600160e01b0319909316929092179091526121d1565b505050565b6040516001600160a01b038316602482015260448101829052611ec190849063a9059cbb60e01b90606401611e8a565b609780546001600160a01b038381166001600160a01b0319831681179093556040519116919082907f8be0079c531659141344cd1fd0a4f28419497f9722a3daafe3b4186f6b6457e090600090a35050565b6040516001600160a01b0380851660248301528316604482015260648101829052611f809085906323b872dd60e01b90608401611e8a565b50505050565b600054610100900460ff1680611f9f575060005460ff16155b611fbb5760405162461bcd60e51b815260040161080890612c24565b600054610100900460ff16158015611fdd576000805461ffff19166101011790555b611fe56122a3565b611fed61230d565b8015610b2c576000805461ff001916905550565b803b6120655760405162461bcd60e51b815260206004820152602d60248201527f455243313936373a206e657720696d706c656d656e746174696f6e206973206e60448201526c1bdd08184818dbdb9d1c9858dd609a1b6064820152608401610808565b7f360894a13ba1a3210667c828492db98dca3e2076cc3735a920a3ca505d382bbc80546001600160a01b0319166001600160a01b0392909216919091179055565b6060823b6121055760405162461bcd60e51b815260206004820152602660248201527f416464726573733a2064656c65676174652063616c6c20746f206e6f6e2d636f6044820152651b9d1c9858dd60d21b6064820152608401610808565b600080846001600160a01b0316846040516121209190612a77565b600060405180830381855af49150503d806000811461215b576040519150601f19603f3d011682016040523d82523d6000602084013e612160565b606091505b50915091506121888282604051806060016040528060278152602001612e016027913961236d565b95945050505050565b61219a81612001565b6040516001600160a01b038216907fbc7cd75a20ee27fd9adebab32041f755214dbc6bffa90cc0225b39da2e5c2d3b90600090a250565b6000612226826040518060400160405280602081526020017f5361666545524332303a206c6f772d6c6576656c2063616c6c206661696c6564815250856001600160a01b03166123a69092919063ffffffff16565b805190915015611ec1578080602001905181019061224491906128f3565b611ec15760405162461bcd60e51b815260206004820152602a60248201527f5361666545524332303a204552433230206f7065726174696f6e20646964206e6044820152691bdd081cdd58d8d9595960b21b6064820152608401610808565b600054610100900460ff16806122bc575060005460ff16155b6122d85760405162461bcd60e51b815260040161080890612c24565b600054610100900460ff16158015611fed576000805461ffff19166101011790558015610b2c576000805461ff001916905550565b600054610100900460ff1680612326575060005460ff16155b6123425760405162461bcd60e51b815260040161080890612c24565b600054610100900460ff16158015612364576000805461ffff19166101011790555b611fed33611ef6565b6060831561237c575081611b5c565b82511561238c5782518084602001fd5b8160405162461bcd60e51b81526004016108089190612b59565b60606123b584846000856123bd565b949350505050565b60608247101561241e5760405162461bcd60e51b815260206004820152602660248201527f416464726573733a20696e73756666696369656e742062616c616e636520666f6044820152651c8818d85b1b60d21b6064820152608401610808565b843b61246c5760405162461bcd60e51b815260206004820152601d60248201527f416464726573733a2063616c6c20746f206e6f6e2d636f6e74726163740000006044820152606401610808565b600080866001600160a01b031685876040516124889190612a77565b60006040518083038185875af1925050503d80600081146124c5576040519150601f19603f3d011682016040523d82523d6000602084013e6124ca565b606091505b5091509150611b4582828661236d565b600082601f8301126124ea578081fd5b815160206124ff6124fa83612cd8565b612ca7565b80838252828201915082860187848660051b890101111561251e578586fd5b855b8581101561254557815161253381612ddd565b84529284019290840190600101612520565b5090979650505050505050565b600082601f830112612562578081fd5b815160206125726124fa83612cd8565b80838252828201915082860187848660051b8901011115612591578586fd5b855b8581101561254557815184529284019290840190600101612593565b6000602082840312156125c0578081fd5b8135611b5c81612ddd565b600080600080608085870312156125e0578283fd5b84356125eb81612ddd565b935060208501356125fb81612ddd565b93969395505050506040820135916060013590565b600080600080600080600060e0888a03121561262a578283fd5b873561263581612ddd565b9650602088013561264581612ddd565b96999698505050506040850135946060810135946080820135945060a0820135935060c0909101359150565b60008060408385031215612683578081fd5b823561268e81612ddd565b915060208381013567ffffffffffffffff8111156126aa578283fd5b8401601f810186136126ba578283fd5b80356126c86124fa82612cd8565b80828252848201915084840189868560051b87010111156126e7578687fd5b8694505b838510156127095780358352600194909401939185019185016126eb565b5080955050505050509250929050565b6000806040838503121561272b578182fd5b823561273681612ddd565b915060208381013567ffffffffffffffff80821115612753578384fd5b818601915086601f830112612766578384fd5b81358181111561277857612778612dc7565b61278a601f8201601f19168501612ca7565b9150808252878482850101111561279f578485fd5b8084840185840137810190920192909252919491935090915050565b600080604083850312156127cd578182fd5b82356127d881612ddd565b946020939093013593505050565b600080600080608085870312156127fb578182fd5b845167ffffffffffffffff80821115612812578384fd5b818701915087601f830112612825578384fd5b815160206128356124fa83612cd8565b8083825282820191508286018c848660051b8901011115612854578889fd5b8896505b8487101561287f57805161286b81612df2565b835260019690960195918301918301612858565b50918a0151919850909350505080821115612898578384fd5b6128a4888389016124da565b945060408701519150808211156128b9578384fd5b6128c588838901612552565b935060608701519150808211156128da578283fd5b506128e787828801612552565b91505092959194509250565b600060208284031215612904578081fd5b8151611b5c81612df2565b600060208284031215612920578081fd5b8151611b5c81612ddd565b60006020828403121561293c578081fd5b5035919050565b600060208284031215612954578081fd5b5051919050565b6000806040838503121561296d578182fd5b82359150602083013561297f81612ddd565b809150509250929050565b6000806040838503121561299c578182fd5b82359150602083013561297f81612df2565b6000806000606084860312156129c2578081fd5b8335925060208401356129d481612ddd565b915060408401356129e481612df2565b809150509250925092565b60008060408385031215612a01578182fd5b50508035926020909101359150565b600080600060608486031215612a24578081fd5b833592506020840135915060408401356129e481612df2565b6000815180845260208085019450808401835b83811015612a6c57815187529582019590820190600101612a50565b509495945050505050565b60008251612a89818460208701612d6a565b9190910192915050565b6001600160a01b03831681526040602082018190526000906123b590830184612a3d565b6080808252855190820181905260009060209060a0840190828901845b82811015612af2578151151584529284019290840190600101612ad4565b50505083810382850152865180825287830191830190845b81811015612b2f5783516001600160a01b031683529284019291840191600101612b0a565b50508481036040860152612b438188612a3d565b925050508281036060840152611b458185612a3d565b6000602082528251806020840152612b78816040850160208701612d6a565b601f01601f19169190910160400192915050565b6020808252602c908201527f46756e6374696f6e206d7573742062652063616c6c6564207468726f7567682060408201526b19195b1959d85d1958d85b1b60a21b606082015260800190565b6020808252602c908201527f46756e6374696f6e206d7573742062652063616c6c6564207468726f7567682060408201526b6163746976652070726f787960a01b606082015260800190565b6020808252602e908201527f496e697469616c697a61626c653a20636f6e747261637420697320616c72656160408201526d191e481a5b9a5d1a585b1a5e995960921b606082015260800190565b6020808252818101527f4f776e61626c653a2063616c6c6572206973206e6f7420746865206f776e6572604082015260600190565b604051601f8201601f1916810167ffffffffffffffff81118282101715612cd057612cd0612dc7565b604052919050565b600067ffffffffffffffff821115612cf257612cf2612dc7565b5060051b60200190565b60008219821115612d0f57612d0f612db1565b500190565b600082612d2f57634e487b7160e01b81526012600452602481fd5b500490565b6000816000190483118215151615612d4e57612d4e612db1565b500290565b600082821015612d6557612d65612db1565b500390565b60005b83811015612d85578181015183820152602001612d6d565b83811115611f805750506000910152565b6000600019821415612daa57612daa612db1565b5060010190565b634e487b7160e01b600052601160045260246000fd5b634e487b7160e01b600052604160045260246000fd5b6001600160a01b0381168114610b2c57600080fd5b8015158114610b2c57600080fdfe416464726573733a206c6f772d6c6576656c2064656c65676174652063616c6c206661696c6564a26469706673582212200584b01bcaf74e3abdaef8be815aa24448ee616f9d36b4d4f0e45fdeab013b0364736f6c63430008030033",
  "linkReferences": {},
  "deployedLinkReferences": {}
}