{
  "_format": "hh-sol-artifact-1",
  "contractName": "MasterChef",
  "sourceName": "contracts/MasterChef.sol",
  "abi": [
    {
      "inputs": [],
      "stateMutability": "nonpayable",
      "type": "constructor"
    },
    {
      "anonymous": false,
      "inputs": [
        {
          "indexed": false,
          "internalType": "address",
          "name": "previousAdmin",
          "type": "address"
        },
        {
          "indexed": false,
          "internalType": "address",
          "name": "newAdmin",
          "type": "address"
        }
      ],
      "name": "AdminChanged",
      "type": "event"
    },
    {
      "anonymous": false,
      "inputs": [
        {
          "indexed": true,
          "internalType": "address",
          "name": "beacon",
          "type": "address"
        }
      ],
      "name": "BeaconUpgraded",
      "type": "event"
    },
    {
      "anonymous": false,
      "inputs": [
        {
          "indexed": true,
          "internalType": "address",
          "name": "user",
          "type": "address"
        },
        {
          "indexed": true,
          "internalType": "uint256",
          "name": "pid",
          "type": "uint256"
        },
        {
          "indexed": false,
          "internalType": "uint256",
          "name": "amount",
          "type": "uint256"
        }
      ],
      "name": "Deposit",
      "type": "event"
    },
    {
      "anonymous": false,
      "inputs": [
        {
          "indexed": true,
          "internalType": "address",
          "name": "user",
          "type": "address"
        },
        {
          "indexed": true,
          "internalType": "uint256",
          "name": "pid",
          "type": "uint256"
        },
        {
          "indexed": false,
          "internalType": "uint256",
          "name": "amounts",
          "type": "uint256"
        }
      ],
      "name": "EmergencyWithdraw",
      "type": "event"
    },
    {
      "anonymous": false,
      "inputs": [
        {
          "indexed": true,
          "internalType": "address",
          "name": "previousOwner",
          "type": "address"
        },
        {
          "indexed": true,
          "internalType": "address",
          "name": "newOwner",
          "type": "address"
        }
      ],
      "name": "OwnershipTransferred",
      "type": "event"
    },
    {
      "anonymous": false,
      "inputs": [
        {
          "indexed": true,
          "internalType": "address",
          "name": "implementation",
          "type": "address"
        }
      ],
      "name": "Upgraded",
      "type": "event"
    },
    {
      "anonymous": false,
      "inputs": [
        {
          "indexed": true,
          "internalType": "address",
          "name": "user",
          "type": "address"
        },
        {
          "indexed": true,
          "internalType": "uint256",
          "name": "pid",
          "type": "uint256"
        },
        {
          "indexed": false,
          "internalType": "uint256",
          "name": "amount",
          "type": "uint256"
        }
      ],
      "name": "Withdraw",
      "type": "event"
    },
    {
      "inputs": [
        {
          "internalType": "uint256",
          "name": "_allocPoint",
          "type": "uint256"
        },
        {
          "internalType": "contract IERC20Upgradeable",
          "name": "_lpToken",
          "type": "address"
        },
        {
          "internalType": "bool",
          "name": "_withUpdate",
          "type": "bool"
        }
      ],
      "name": "add",
      "outputs": [],
      "stateMutability": "nonpayable",
      "type": "function"
    },
    {
      "inputs": [],
      "name": "bonusEndBlock",
      "outputs": [
        {
          "internalType": "uint256",
          "name": "",
          "type": "uint256"
        }
      ],
      "stateMutability": "view",
      "type": "function"
    },
    {
      "inputs": [
        {
          "internalType": "uint256",
          "name": "_pid",
          "type": "uint256"
        },
        {
          "internalType": "uint256",
          "name": "_amount",
          "type": "uint256"
        }
      ],
      "name": "deposit",
      "outputs": [],
      "stateMutability": "nonpayable",
      "type": "function"
    },
    {
      "inputs": [
        {
          "internalType": "address",
          "name": "_devaddr",
          "type": "address"
        }
      ],
      "name": "dev",
      "outputs": [],
      "stateMutability": "nonpayable",
      "type": "function"
    },
    {
      "inputs": [],
      "name": "devaddr",
      "outputs": [
        {
          "internalType": "address",
          "name": "",
          "type": "address"
        }
      ],
      "stateMutability": "view",
      "type": "function"
    },
    {
      "inputs": [
        {
          "internalType": "uint256",
          "name": "_pid",
          "type": "uint256"
        }
      ],
      "name": "emergencyWithdraw",
      "outputs": [],
      "stateMutability": "nonpayable",
      "type": "function"
    },
    {
      "inputs": [],
      "name": "firo",
      "outputs": [
        {
          "internalType": "contract FiroToken",
          "name": "",
          "type": "address"
        }
      ],
      "stateMutability": "view",
      "type": "function"
    },
    {
      "inputs": [],
      "name": "firoPerBlock",
      "outputs": [
        {
          "internalType": "uint256",
          "name": "",
          "type": "uint256"
        }
      ],
      "stateMutability": "view",
      "type": "function"
    },
    {
      "inputs": [
        {
          "internalType": "address",
          "name": "_user",
          "type": "address"
        }
      ],
      "name": "getLockInfo",
      "outputs": [
        {
          "internalType": "bool[]",
          "name": "isWithdrawns",
          "type": "bool[]"
        },
        {
          "internalType": "address[]",
          "name": "tokens",
          "type": "address[]"
        },
        {
          "internalType": "uint256[]",
          "name": "unlockableAts",
          "type": "uint256[]"
        },
        {
          "internalType": "uint256[]",
          "name": "amounts",
          "type": "uint256[]"
        }
      ],
      "stateMutability": "view",
      "type": "function"
    },
    {
      "inputs": [
        {
          "internalType": "address",
          "name": "_addr",
          "type": "address"
        },
        {
          "internalType": "uint256[]",
          "name": "_indexes",
          "type": "uint256[]"
        }
      ],
      "name": "getLockInfoByIndexes",
      "outputs": [
        {
          "internalType": "bool[]",
          "name": "isWithdrawns",
          "type": "bool[]"
        },
        {
          "internalType": "address[]",
          "name": "tokens",
          "type": "address[]"
        },
        {
          "internalType": "uint256[]",
          "name": "unlockableAts",
          "type": "uint256[]"
        },
        {
          "internalType": "uint256[]",
          "name": "amounts",
          "type": "uint256[]"
        }
      ],
      "stateMutability": "view",
      "type": "function"
    },
    {
      "inputs": [
        {
          "internalType": "address",
          "name": "_addr",
          "type": "address"
        }
      ],
      "name": "getLockInfoLength",
      "outputs": [
        {
          "internalType": "uint256",
          "name": "",
          "type": "uint256"
        }
      ],
      "stateMutability": "view",
      "type": "function"
    },
    {
      "inputs": [
        {
          "internalType": "uint256",
          "name": "_from",
          "type": "uint256"
        },
        {
          "internalType": "uint256",
          "name": "_to",
          "type": "uint256"
        }
      ],
      "name": "getMultiplier",
      "outputs": [
        {
          "internalType": "uint256",
          "name": "",
          "type": "uint256"
        }
      ],
      "stateMutability": "view",
      "type": "function"
    },
    {
      "inputs": [
        {
          "internalType": "uint256",
          "name": "_pid",
          "type": "uint256"
        }
      ],
      "name": "getPoolInfo",
      "outputs": [
        {
          "internalType": "uint256",
          "name": "allocPoint",
          "type": "uint256"
        },
        {
          "internalType": "uint256",
          "name": "lastRewardBlock",
          "type": "uint256"
        },
        {
          "internalType": "uint256",
          "name": "accFiroPerShare",
          "type": "uint256"
        }
      ],
      "stateMutability": "view",
      "type": "function"
    },
    {
      "inputs": [
        {
          "internalType": "uint256",
          "name": "_pid",
          "type": "uint256"
        },
        {
          "internalType": "address",
          "name": "_user",
          "type": "address"
        }
      ],
      "name": "getUserInfo",
      "outputs": [
        {
          "internalType": "uint256",
          "name": "amount",
          "type": "uint256"
        },
        {
          "internalType": "uint256",
          "name": "rewardDebt",
          "type": "uint256"
        }
      ],
      "stateMutability": "view",
      "type": "function"
    },
    {
      "inputs": [
        {
          "internalType": "address",
          "name": "_locking",
          "type": "address"
        },
        {
          "internalType": "address",
          "name": "_vesting",
          "type": "address"
        },
        {
          "internalType": "address",
          "name": "_devaddr",
          "type": "address"
        },
        {
          "internalType": "uint256",
          "name": "_firoPerBlock",
          "type": "uint256"
        },
        {
          "internalType": "uint256",
          "name": "_startBlock",
          "type": "uint256"
        },
        {
          "internalType": "uint256",
          "name": "_bonusEndBlock",
          "type": "uint256"
        },
        {
          "internalType": "uint256",
          "name": "_lockingDuration",
          "type": "uint256"
        },
        {
          "internalType": "uint256",
          "name": "_vestingDuration",
          "type": "uint256"
        }
      ],
      "name": "initialize",
      "outputs": [],
      "stateMutability": "nonpayable",
      "type": "function"
    },
    {
      "inputs": [
        {
          "internalType": "address",
          "name": "_token",
          "type": "address"
        },
        {
          "internalType": "address",
          "name": "_addr",
          "type": "address"
        },
        {
          "internalType": "uint256",
          "name": "_amount",
          "type": "uint256"
        },
        {
          "internalType": "uint256",
          "name": "_lockedTime",
          "type": "uint256"
        }
      ],
      "name": "lock",
      "outputs": [],
      "stateMutability": "nonpayable",
      "type": "function"
    },
    {
      "inputs": [],
      "name": "locking",
      "outputs": [
        {
          "internalType": "contract Locking",
          "name": "",
          "type": "address"
        }
      ],
      "stateMutability": "view",
      "type": "function"
    },
    {
      "inputs": [],
      "name": "lockingDuration",
      "outputs": [
        {
          "internalType": "uint256",
          "name": "",
          "type": "uint256"
        }
      ],
      "stateMutability": "view",
      "type": "function"
    },
    {
      "inputs": [],
      "name": "massUpdatePools",
      "outputs": [],
      "stateMutability": "nonpayable",
      "type": "function"
    },
    {
      "inputs": [
        {
          "internalType": "uint256",
          "name": "_pid",
          "type": "uint256"
        }
      ],
      "name": "migrate",
      "outputs": [],
      "stateMutability": "nonpayable",
      "type": "function"
    },
    {
      "inputs": [],
      "name": "migrator",
      "outputs": [
        {
          "internalType": "contract IMigratorChef",
          "name": "",
          "type": "address"
        }
      ],
      "stateMutability": "view",
      "type": "function"
    },
    {
      "inputs": [],
      "name": "owner",
      "outputs": [
        {
          "internalType": "address",
          "name": "",
          "type": "address"
        }
      ],
      "stateMutability": "view",
      "type": "function"
    },
    {
      "inputs": [
        {
          "internalType": "uint256",
          "name": "_pid",
          "type": "uint256"
        },
        {
          "internalType": "address",
          "name": "_user",
          "type": "address"
        }
      ],
      "name": "pendingFiro",
      "outputs": [
        {
          "internalType": "uint256",
          "name": "",
          "type": "uint256"
        }
      ],
      "stateMutability": "view",
      "type": "function"
    },
    {
      "inputs": [
        {
          "internalType": "uint256",
          "name": "",
          "type": "uint256"
        }
      ],
      "name": "poolInfo",
      "outputs": [
        {
          "internalType": "contract IERC20Upgradeable",
          "name": "lpToken",
          "type": "address"
        },
        {
          "internalType": "uint256",
          "name": "allocPoint",
          "type": "uint256"
        },
        {
          "internalType": "uint256",
          "name": "lastRewardBlock",
          "type": "uint256"
        },
        {
          "internalType": "uint256",
          "name": "accFiroPerShare",
          "type": "uint256"
        },
        {
          "internalType": "bool",
          "name": "isEmergency",
          "type": "bool"
        }
      ],
      "stateMutability": "view",
      "type": "function"
    },
    {
      "inputs": [],
      "name": "poolLength",
      "outputs": [
        {
          "internalType": "uint256",
          "name": "",
          "type": "uint256"
        }
      ],
      "stateMutability": "view",
      "type": "function"
    },
    {
      "inputs": [],
      "name": "renounceOwnership",
      "outputs": [],
      "stateMutability": "nonpayable",
      "type": "function"
    },
    {
      "inputs": [
        {
          "internalType": "uint256",
          "name": "_pid",
          "type": "uint256"
        },
        {
          "internalType": "uint256",
          "name": "_allocPoint",
          "type": "uint256"
        },
        {
          "internalType": "bool",
          "name": "_withUpdate",
          "type": "bool"
        }
      ],
      "name": "set",
      "outputs": [],
      "stateMutability": "nonpayable",
      "type": "function"
    },
    {
      "inputs": [
        {
          "internalType": "uint256",
          "name": "_pid",
          "type": "uint256"
        },
        {
          "internalType": "bool",
          "name": "_isEmergency",
          "type": "bool"
        }
      ],
      "name": "setEmergency",
      "outputs": [],
      "stateMutability": "nonpayable",
      "type": "function"
    },
    {
      "inputs": [
        {
          "internalType": "contract IMigratorChef",
          "name": "_migrator",
          "type": "address"
        }
      ],
      "name": "setMigrator",
      "outputs": [],
      "stateMutability": "nonpayable",
      "type": "function"
    },
    {
      "inputs": [],
      "name": "startBlock",
      "outputs": [
        {
          "internalType": "uint256",
          "name": "",
          "type": "uint256"
        }
      ],
      "stateMutability": "view",
      "type": "function"
    },
    {
      "inputs": [],
      "name": "totalAllocPoint",
      "outputs": [
        {
          "internalType": "uint256",
          "name": "",
          "type": "uint256"
        }
      ],
      "stateMutability": "view",
      "type": "function"
    },
    {
      "inputs": [
        {
          "internalType": "address",
          "name": "newOwner",
          "type": "address"
        }
      ],
      "name": "transferOwnership",
      "outputs": [],
      "stateMutability": "nonpayable",
      "type": "function"
    },
    {
      "inputs": [
        {
          "internalType": "address",
          "name": "_addr",
          "type": "address"
        },
        {
          "internalType": "uint256",
          "name": "index",
          "type": "uint256"
        }
      ],
      "name": "unlock",
      "outputs": [],
      "stateMutability": "nonpayable",
      "type": "function"
    },
    {
      "inputs": [
        {
          "internalType": "address",
          "name": "_addr",
          "type": "address"
        }
      ],
      "name": "unlockVesting",
      "outputs": [],
      "stateMutability": "nonpayable",
      "type": "function"
    },
    {
      "inputs": [
        {
          "internalType": "uint256",
          "name": "_pid",
          "type": "uint256"
        }
      ],
      "name": "updatePool",
      "outputs": [],
      "stateMutability": "nonpayable",
      "type": "function"
    },
    {
      "inputs": [
        {
          "internalType": "address",
          "name": "newImplementation",
          "type": "address"
        }
      ],
      "name": "upgradeTo",
      "outputs": [],
      "stateMutability": "nonpayable",
      "type": "function"
    },
    {
      "inputs": [
        {
          "internalType": "address",
          "name": "newImplementation",
          "type": "address"
        },
        {
          "internalType": "bytes",
          "name": "data",
          "type": "bytes"
        }
      ],
      "name": "upgradeToAndCall",
      "outputs": [],
      "stateMutability": "payable",
      "type": "function"
    },
    {
      "inputs": [
        {
          "internalType": "uint256",
          "name": "",
          "type": "uint256"
        },
        {
          "internalType": "address",
          "name": "",
          "type": "address"
        }
      ],
      "name": "userInfo",
      "outputs": [
        {
          "internalType": "uint256",
          "name": "amount",
          "type": "uint256"
        },
        {
          "internalType": "uint256",
          "name": "rewardDebt",
          "type": "uint256"
        }
      ],
      "stateMutability": "view",
      "type": "function"
    },
    {
      "inputs": [],
      "name": "vesting",
      "outputs": [
        {
          "internalType": "contract Vesting",
          "name": "",
          "type": "address"
        }
      ],
      "stateMutability": "view",
      "type": "function"
    },
    {
      "inputs": [],
      "name": "vestingDuration",
      "outputs": [
        {
          "internalType": "uint256",
          "name": "",
          "type": "uint256"
        }
      ],
      "stateMutability": "view",
      "type": "function"
    },
    {
      "inputs": [
        {
          "internalType": "uint256",
          "name": "_pid",
          "type": "uint256"
        },
        {
          "internalType": "uint256",
          "name": "_amount",
          "type": "uint256"
        }
      ],
      "name": "withdraw",
      "outputs": [],
      "stateMutability": "nonpayable",
      "type": "function"
    }
  ],
  "bytecode": "0x60a06040523060601b6080523480156200001857600080fd5b50600054610100900460ff168062000033575060005460ff16155b6200009b5760405162461bcd60e51b815260206004820152602e60248201527f496e697469616c697a61626c653a20636f6e747261637420697320616c72656160448201526d191e481a5b9a5d1a585b1a5e995960921b606482015260840160405180910390fd5b600054610100900460ff16158015620000be576000805461ffff19166101011790555b8015620000d1576000805461ff00191690555b5060805160601c612fcb6200010660003960008181610ac701528181610b070152818161100f015261104f0152612fcb6000f3fe6080604052600436106102465760003560e01c806358ad5a8b1161013957806393f1a40b116100b6578063df8fa4301161007a578063df8fa43014610726578063e2bbb15814610746578063e62e178914610766578063f1a5854214610786578063f2fde38b146107a6578063f91d0679146107c657610246565b806393f1a40b14610671578063bc277928146106b0578063cea8c746146106d0578063d49e77cd146106e6578063dcf9e59e1461070657610246565b80637cd07e47116100fd5780637cd07e47146105d35780637eee288d146105f35780638d88a90e146106135780638da5cb5b146106335780638dbb1e3a1461065157610246565b806358ad5a8b14610539578063630b5ba11461055957806364482f791461056e578063715018a61461058e5780637238ccdb146105a357610246565b8063441a3e70116101c75780634b86c2251161018b5780634b86c225146104b05780634f0755a0146104d05780634f1ef286146104e657806351eb05a6146104f95780635312ea8e1461051957610246565b8063441a3e701461040257806344c63eec14610422578063454b06081461045a57806348cd4cb11461047a5780634a6433f01461049057610246565b80631aed65531161020e5780631aed65531461034f5780631eaaa0451461036557806323cf3118146103875780632f380b35146103a75780633659cfe6146103e257610246565b8063081e3eda1461024b5780631069f3b51461026f5780631514617e146102cf5780631526fe27146102e557806317caf6f114610339575b600080fd5b34801561025757600080fd5b5060ce545b6040519081526020015b60405180910390f35b34801561027b57600080fd5b506102ba61028a366004612ac9565b600091825260cf602090815260408084206001600160a01b03939093168452919052902080546001909101549091565b60408051928352602083019190915201610266565b3480156102db57600080fd5b5061025c60d55481565b3480156102f157600080fd5b50610305610300366004612a99565b6107e6565b604080516001600160a01b03909616865260208601949094529284019190915260608301521515608082015260a001610266565b34801561034557600080fd5b5061025c60d05481565b34801561035b57600080fd5b5061025c60cb5481565b34801561037157600080fd5b50610385610380366004612b1c565b610834565b005b34801561039357600080fd5b506103856103a2366004612708565b6109c5565b3480156103b357600080fd5b506103c76103c2366004612a99565b610a11565b60408051938452602084019290925290820152606001610266565b3480156103ee57600080fd5b506103856103fd366004612708565b610abc565b34801561040e57600080fd5b5061038561041d366004612b5d565b610b85565b34801561042e57600080fd5b5060d254610442906001600160a01b031681565b6040516001600160a01b039091168152602001610266565b34801561046657600080fd5b50610385610475366004612a99565b610d13565b34801561048657600080fd5b5061025c60d15481565b34801561049c57600080fd5b5060c954610442906001600160a01b031681565b3480156104bc57600080fd5b506103856104cb36600461279a565b610f88565b3480156104dc57600080fd5b5061025c60cc5481565b6103856104f4366004612887565b611004565b34801561050557600080fd5b50610385610514366004612a99565b6110be565b34801561052557600080fd5b50610385610534366004612a99565b611292565b34801561054557600080fd5b5060d354610442906001600160a01b031681565b34801561056557600080fd5b50610385611385565b34801561057a57600080fd5b50610385610589366004612b7e565b6113ac565b34801561059a57600080fd5b50610385611477565b3480156105af57600080fd5b506105c36105be366004612708565b6114ad565b6040516102669493929190612c25565b3480156105df57600080fd5b5060cd54610442906001600160a01b031681565b3480156105ff57600080fd5b5061038561060e366004612929565b611544565b34801561061f57600080fd5b5061038561062e366004612708565b6115ae565b34801561063f57600080fd5b506097546001600160a01b0316610442565b34801561065d57600080fd5b5061025c61066c366004612b5d565b611616565b34801561067d57600080fd5b506102ba61068c366004612ac9565b60cf6020908152600092835260408084209091529082529020805460019091015482565b3480156106bc57600080fd5b506103856106cb366004612708565b611670565b3480156106dc57600080fd5b5061025c60d45481565b3480156106f257600080fd5b5060ca54610442906001600160a01b031681565b34801561071257600080fd5b506105c36107213660046127df565b6116d2565b34801561073257600080fd5b50610385610741366004612724565b611771565b34801561075257600080fd5b50610385610761366004612b5d565b611843565b34801561077257600080fd5b50610385610781366004612af8565b611966565b34801561079257600080fd5b5061025c6107a1366004612708565b611a1a565b3480156107b257600080fd5b506103856107c1366004612708565b611a98565b3480156107d257600080fd5b5061025c6107e1366004612ac9565b611b30565b60ce81815481106107f657600080fd5b6000918252602090912060059091020180546001820154600283015460038401546004909401546001600160a01b0390931694509092909160ff1685565b6097546001600160a01b031633146108675760405162461bcd60e51b815260040161085e90612de0565b60405180910390fd5b801561087557610875611385565b600060d15443116108885760d15461088a565b435b60d05490915061089a9085611ca9565b60d0556040805160a0810182526001600160a01b039485168152602081019586529081019182526000606082018181526080830182815260ce8054600181018255935292517fd36cd1c74ef8d7326d8021b776c18fb5a5724b7f7bc93c2f42e43e10ef27d12a600590930292830180546001600160a01b031916919097161790955594517fd36cd1c74ef8d7326d8021b776c18fb5a5724b7f7bc93c2f42e43e10ef27d12b86015590517fd36cd1c74ef8d7326d8021b776c18fb5a5724b7f7bc93c2f42e43e10ef27d12c85015591517fd36cd1c74ef8d7326d8021b776c18fb5a5724b7f7bc93c2f42e43e10ef27d12d84015550517fd36cd1c74ef8d7326d8021b776c18fb5a5724b7f7bc93c2f42e43e10ef27d12e909101805460ff1916911515919091179055565b6097546001600160a01b031633146109ef5760405162461bcd60e51b815260040161085e90612de0565b60cd80546001600160a01b0319166001600160a01b0392909216919091179055565b600080600060ce8481548110610a3757634e487b7160e01b600052603260045260246000fd5b906000526020600020906005020160010154925060ce8481548110610a6c57634e487b7160e01b600052603260045260246000fd5b906000526020600020906005020160020154915060ce8481548110610aa157634e487b7160e01b600052603260045260246000fd5b90600052602060002090600502016003015490509193909250565b306001600160a01b037f0000000000000000000000000000000000000000000000000000000000000000161415610b055760405162461bcd60e51b815260040161085e90612cfa565b7f00000000000000000000000000000000000000000000000000000000000000006001600160a01b0316610b37611cbc565b6001600160a01b031614610b5d5760405162461bcd60e51b815260040161085e90612d46565b610b6681611cea565b60408051600080825260208201909252610b8291839190611d14565b50565b600060ce8381548110610ba857634e487b7160e01b600052603260045260246000fd5b6000918252602080832086845260cf825260408085203386529092529220805460059092029092019250831115610c165760405162461bcd60e51b81526020600482015260126024820152711dda5d1a191c985dce881b9bdd0819dbdbd960721b604482015260640161085e565b610c1f846110be565b6000610c598260010154610c5364e8d4a51000610c4d87600301548760000154611e5890919063ffffffff16565b90611e64565b90611e70565b90508015610c6f57610c6f33824260d554611e7c565b8154610c7b9085611e70565b8083556003840154610c989164e8d4a5100091610c4d9190611e58565b600183015560d3548354610cb9916001600160a01b03918216911686611ec3565b825460d454610cd5916001600160a01b03169033908790610f88565b604051848152859033907ff279e6a1f5e320cca91135676d9cb6e44ca8a08c0b88342bcdb1144f6511b5689060200160405180910390a35050505050565b60cd546001600160a01b0316610d625760405162461bcd60e51b815260206004820152601460248201527336b4b3b930ba329d1037379036b4b3b930ba37b960611b604482015260640161085e565b600060ce8281548110610d8557634e487b7160e01b600052603260045260246000fd5b6000918252602082206005919091020180546040516370a0823160e01b81523060048201529193506001600160a01b0316919082906370a082319060240160206040518083038186803b158015610ddb57600080fd5b505afa158015610def573d6000803e3d6000fd5b505050506040513d601f19601f82011682018060405250810190610e139190612ab1565b60cd54909150610e30906001600160a01b03848116911683611ec3565b60cd5460405163ce5494bb60e01b81526001600160a01b038481166004830152600092169063ce5494bb90602401602060405180830381600087803b158015610e7857600080fd5b505af1158015610e8c573d6000803e3d6000fd5b505050506040513d601f19601f82011682018060405250810190610eb09190612a7d565b6040516370a0823160e01b81523060048201529091506001600160a01b038216906370a082319060240160206040518083038186803b158015610ef257600080fd5b505afa158015610f06573d6000803e3d6000fd5b505050506040513d601f19601f82011682018060405250810190610f2a9190612ab1565b8214610f675760405162461bcd60e51b815260206004820152600c60248201526b1b5a59dc985d194e8818985960a21b604482015260640161085e565b83546001600160a01b0319166001600160a01b039190911617909255505050565b60d354604051634b86c22560e01b81526001600160a01b0386811660048301528581166024830152604482018590526064820184905290911690634b86c225906084015b600060405180830381600087803b158015610fe657600080fd5b505af1158015610ffa573d6000803e3d6000fd5b5050505050505050565b306001600160a01b037f000000000000000000000000000000000000000000000000000000000000000016141561104d5760405162461bcd60e51b815260040161085e90612cfa565b7f00000000000000000000000000000000000000000000000000000000000000006001600160a01b031661107f611cbc565b6001600160a01b0316146110a55760405162461bcd60e51b815260040161085e90612d46565b6110ae82611cea565b6110ba82826001611d14565b5050565b600060ce82815481106110e157634e487b7160e01b600052603260045260246000fd5b90600052602060002090600502019050806002015443116111025750610b82565b80546040516370a0823160e01b81523060048201526000916001600160a01b0316906370a082319060240160206040518083038186803b15801561114557600080fd5b505afa158015611159573d6000803e3d6000fd5b505050506040513d601f19601f8201168201806040525081019061117d9190612ab1565b905080611191575043600290910155610b82565b60006111a1836002015443611616565b905060006111ce60d054610c4d86600101546111c860cc5487611e5890919063ffffffff16565b90611e58565b60d25460ca549192506001600160a01b039081169163d935621391166111f584600a611e64565b6040516001600160e01b031960e085901b1681526001600160a01b0390921660048301526024820152604401600060405180830381600087803b15801561123b57600080fd5b505af115801561124f573d6000803e3d6000fd5b5050505061127d61127284610c4d64e8d4a5100085611e5890919063ffffffff16565b600386015490611ca9565b60038501555050436002909201919091555050565b600060ce82815481106112b557634e487b7160e01b600052603260045260246000fd5b6000918252602080832085845260cf825260408085203386529092529220600460059092029092019081015490925060ff166113225760405162461bcd60e51b815260206004820152600c60248201526b216973456d657267656e637960a01b604482015260640161085e565b8054825461133d916001600160a01b0390911690339061201f565b8054604051908152839033907fbb757047c2b5f3974fe26b7c10f732e7bce710b0952a71082702781e62ae05959060200160405180910390a360008082556001909101555050565b60ce5460005b818110156110ba5761139c816110be565b6113a581612f04565b905061138b565b6097546001600160a01b031633146113d65760405162461bcd60e51b815260040161085e90612de0565b80156113e4576113e4611385565b6114358261142f60ce868154811061140c57634e487b7160e01b600052603260045260246000fd5b90600052602060002090600502016001015460d054611e7090919063ffffffff16565b90611ca9565b60d0819055508160ce848154811061145d57634e487b7160e01b600052603260045260246000fd5b906000526020600020906005020160010181905550505050565b6097546001600160a01b031633146114a15760405162461bcd60e51b815260040161085e90612de0565b6114ab600061204f565b565b60d354604051637238ccdb60e01b81526001600160a01b0383811660048301526060928392839283921690637238ccdb9060240160006040518083038186803b1580156114f957600080fd5b505afa15801561150d573d6000803e3d6000fd5b505050506040513d6000823e601f3d908101601f191682016040526115359190810190612954565b93509350935093509193509193565b60d354604051637eee288d60e01b81526001600160a01b0384811660048301526024820184905290911690637eee288d90604401600060405180830381600087803b15801561159257600080fd5b505af11580156115a6573d6000803e3d6000fd5b505050505050565b60ca546001600160a01b031633146115f45760405162461bcd60e51b81526020600482015260096024820152686465763a207775743f60b81b604482015260640161085e565b60ca80546001600160a01b0319166001600160a01b0392909216919091179055565b600060cb5482116116325761162b8284611e70565b905061166a565b60cb5483106116455761162b8284611e70565b61162b61165d60cb5484611e7090919063ffffffff16565b60cb5461142f9086611e70565b92915050565b60d254604051631784ef2560e31b81526001600160a01b0383811660048301529091169063bc27792890602401600060405180830381600087803b1580156116b757600080fd5b505af11580156116cb573d6000803e3d6000fd5b5050505050565b60d354604051636e7cf2cf60e11b81526060918291829182916001600160a01b039091169063dcf9e59e9061170d9089908990600401612c01565b60006040518083038186803b15801561172557600080fd5b505afa158015611739573d6000803e3d6000fd5b505050506040513d6000823e601f3d908101601f191682016040526117619190810190612954565b9299919850965090945092505050565b600054610100900460ff168061178a575060005460ff16155b6117a65760405162461bcd60e51b815260040161085e90612d92565b600054610100900460ff161580156117c8576000805461ffff19166101011790555b6117d06120a1565b60d380546001600160a01b03808c166001600160a01b03199283161790925560d280548b841690831617905560ca8054928a169290911691909117905560cc86905560d185905560cb84905560d483905560d58290558015611838576000805461ff00191690555b505050505050505050565b600060ce838154811061186657634e487b7160e01b600052603260045260246000fd5b6000918252602080832086845260cf82526040808520338652909252922060059091029091019150611897846110be565b8054156118e45760006118cc8260010154610c5364e8d4a51000610c4d87600301548760000154611e5890919063ffffffff16565b905080156118e2576118e233824260d554611e7c565b505b81546118fb906001600160a01b031633308661211c565b80546119079084611ca9565b80825560038301546119249164e8d4a5100091610c4d9190611e58565b6001820155604051838152849033907f90890809c654f11d6e72a28fa60149770a0d11ec6c92319d6ceb2bb0a4ea1a159060200160405180910390a350505050565b6097546001600160a01b031633146119905760405162461bcd60e51b815260040161085e90612de0565b60ce5482106119d25760405162461bcd60e51b815260206004820152600e60248201526d1c1a59081a5cc81a5b9d985b1a5960921b604482015260640161085e565b8060ce83815481106119f457634e487b7160e01b600052603260045260246000fd5b60009182526020909120600590910201600401805460ff19169115159190911790555050565b60d3546040516378d2c2a160e11b81526001600160a01b038381166004830152600092169063f1a585429060240160206040518083038186803b158015611a6057600080fd5b505afa158015611a74573d6000803e3d6000fd5b505050506040513d601f19601f8201168201806040525081019061166a9190612ab1565b6097546001600160a01b03163314611ac25760405162461bcd60e51b815260040161085e90612de0565b6001600160a01b038116611b275760405162461bcd60e51b815260206004820152602660248201527f4f776e61626c653a206e6577206f776e657220697320746865207a65726f206160448201526564647265737360d01b606482015260840161085e565b610b828161204f565b60008060ce8481548110611b5457634e487b7160e01b600052603260045260246000fd5b6000918252602080832087845260cf825260408085206001600160a01b03898116875293528085206005949094029091016003810154815492516370a0823160e01b815230600482015291965093949291909116906370a082319060240160206040518083038186803b158015611bca57600080fd5b505afa158015611bde573d6000803e3d6000fd5b505050506040513d601f19601f82011682018060405250810190611c029190612ab1565b9050836002015443118015611c1657508015155b15611c76576000611c2b856002015443611616565b90506000611c5260d054610c4d88600101546111c860cc5487611e5890919063ffffffff16565b9050611c71611c6a84610c4d8464e8d4a51000611e58565b8590611ca9565b935050505b611c9e8360010154610c5364e8d4a51000610c4d868860000154611e5890919063ffffffff16565b979650505050505050565b6000611cb58284612e6a565b9392505050565b7f360894a13ba1a3210667c828492db98dca3e2076cc3735a920a3ca505d382bbc546001600160a01b031690565b6097546001600160a01b03163314610b825760405162461bcd60e51b815260040161085e90612de0565b6000611d1e611cbc565b9050611d298461215a565b600083511180611d365750815b15611d4757611d4584846121ff565b505b7f4910fdfa16fed3260ed0e7147f7cc6da11a60208b5b9406d12a635614ffd9143805460ff166116cb57805460ff191660011781556040516001600160a01b0383166024820152611dc690869060440160408051601f198184030181529190526020810180516001600160e01b0316631b2ce7f360e11b1790526121ff565b50805460ff19168155611dd7611cbc565b6001600160a01b0316826001600160a01b031614611e4f5760405162461bcd60e51b815260206004820152602f60248201527f45524331393637557067726164653a207570677261646520627265616b73206660448201526e75727468657220757067726164657360881b606482015260840161085e565b6116cb856122ea565b6000611cb58284612ea2565b6000611cb58284612e82565b6000611cb58284612ec1565b60d254604051634cf518a160e01b81526001600160a01b03868116600483015260248201869052604482018590526064820184905290911690634cf518a190608401610fcc565b801580611f4c5750604051636eb1769f60e11b81523060048201526001600160a01b03838116602483015284169063dd62ed3e9060440160206040518083038186803b158015611f1257600080fd5b505afa158015611f26573d6000803e3d6000fd5b505050506040513d601f19601f82011682018060405250810190611f4a9190612ab1565b155b611fb75760405162461bcd60e51b815260206004820152603660248201527f5361666545524332303a20617070726f76652066726f6d206e6f6e2d7a65726f60448201527520746f206e6f6e2d7a65726f20616c6c6f77616e636560501b606482015260840161085e565b6040516001600160a01b03831660248201526044810182905261201a90849063095ea7b360e01b906064015b60408051601f198184030181529190526020810180516001600160e01b03166001600160e01b03199093169290921790915261232a565b505050565b6040516001600160a01b03831660248201526044810182905261201a90849063a9059cbb60e01b90606401611fe3565b609780546001600160a01b038381166001600160a01b0319831681179093556040519116919082907f8be0079c531659141344cd1fd0a4f28419497f9722a3daafe3b4186f6b6457e090600090a35050565b600054610100900460ff16806120ba575060005460ff16155b6120d65760405162461bcd60e51b815260040161085e90612d92565b600054610100900460ff161580156120f8576000805461ffff19166101011790555b6121006123fc565b612108612466565b8015610b82576000805461ff001916905550565b6040516001600160a01b03808516602483015283166044820152606481018290526121549085906323b872dd60e01b90608401611fe3565b50505050565b803b6121be5760405162461bcd60e51b815260206004820152602d60248201527f455243313936373a206e657720696d706c656d656e746174696f6e206973206e60448201526c1bdd08184818dbdb9d1c9858dd609a1b606482015260840161085e565b7f360894a13ba1a3210667c828492db98dca3e2076cc3735a920a3ca505d382bbc80546001600160a01b0319166001600160a01b0392909216919091179055565b6060823b61225e5760405162461bcd60e51b815260206004820152602660248201527f416464726573733a2064656c65676174652063616c6c20746f206e6f6e2d636f6044820152651b9d1c9858dd60d21b606482015260840161085e565b600080846001600160a01b0316846040516122799190612be5565b600060405180830381855af49150503d80600081146122b4576040519150601f19603f3d011682016040523d82523d6000602084013e6122b9565b606091505b50915091506122e18282604051806060016040528060278152602001612f6f602791396124c6565b95945050505050565b6122f38161215a565b6040516001600160a01b038216907fbc7cd75a20ee27fd9adebab32041f755214dbc6bffa90cc0225b39da2e5c2d3b90600090a250565b600061237f826040518060400160405280602081526020017f5361666545524332303a206c6f772d6c6576656c2063616c6c206661696c6564815250856001600160a01b03166124ff9092919063ffffffff16565b80519091501561201a578080602001905181019061239d9190612a61565b61201a5760405162461bcd60e51b815260206004820152602a60248201527f5361666545524332303a204552433230206f7065726174696f6e20646964206e6044820152691bdd081cdd58d8d9595960b21b606482015260840161085e565b600054610100900460ff1680612415575060005460ff16155b6124315760405162461bcd60e51b815260040161085e90612d92565b600054610100900460ff16158015612108576000805461ffff19166101011790558015610b82576000805461ff001916905550565b600054610100900460ff168061247f575060005460ff16155b61249b5760405162461bcd60e51b815260040161085e90612d92565b600054610100900460ff161580156124bd576000805461ffff19166101011790555b6121083361204f565b606083156124d5575081611cb5565b8251156124e55782518084602001fd5b8160405162461bcd60e51b815260040161085e9190612cc7565b606061250e8484600085612516565b949350505050565b6060824710156125775760405162461bcd60e51b815260206004820152602660248201527f416464726573733a20696e73756666696369656e742062616c616e636520666f6044820152651c8818d85b1b60d21b606482015260840161085e565b843b6125c55760405162461bcd60e51b815260206004820152601d60248201527f416464726573733a2063616c6c20746f206e6f6e2d636f6e7472616374000000604482015260640161085e565b600080866001600160a01b031685876040516125e19190612be5565b60006040518083038185875af1925050503d806000811461261e576040519150601f19603f3d011682016040523d82523d6000602084013e612623565b606091505b5091509150611c9e8282866124c6565b600082601f830112612643578081fd5b8151602061265861265383612e46565b612e15565b80838252828201915082860187848660051b8901011115612677578586fd5b855b8581101561269e57815161268c81612f4b565b84529284019290840190600101612679565b5090979650505050505050565b600082601f8301126126bb578081fd5b815160206126cb61265383612e46565b80838252828201915082860187848660051b89010111156126ea578586fd5b855b8581101561269e578151845292840192908401906001016126ec565b600060208284031215612719578081fd5b8135611cb581612f4b565b600080600080600080600080610100898b031215612740578384fd5b883561274b81612f4b565b9750602089013561275b81612f4b565b9650604089013561276b81612f4b565b979a96995096976060810135975060808101359660a0820135965060c0820135955060e0909101359350915050565b600080600080608085870312156127af578384fd5b84356127ba81612f4b565b935060208501356127ca81612f4b565b93969395505050506040820135916060013590565b600080604083850312156127f1578182fd5b82356127fc81612f4b565b915060208381013567ffffffffffffffff811115612818578283fd5b8401601f81018613612828578283fd5b803561283661265382612e46565b80828252848201915084840189868560051b8701011115612855578687fd5b8694505b83851015612877578035835260019490940193918501918501612859565b5080955050505050509250929050565b60008060408385031215612899578182fd5b82356128a481612f4b565b915060208381013567ffffffffffffffff808211156128c1578384fd5b818601915086601f8301126128d4578384fd5b8135818111156128e6576128e6612f35565b6128f8601f8201601f19168501612e15565b9150808252878482850101111561290d578485fd5b8084840185840137810190920192909252919491935090915050565b6000806040838503121561293b578182fd5b823561294681612f4b565b946020939093013593505050565b60008060008060808587031215612969578182fd5b845167ffffffffffffffff80821115612980578384fd5b818701915087601f830112612993578384fd5b815160206129a361265383612e46565b8083825282820191508286018c848660051b89010111156129c2578889fd5b8896505b848710156129ed5780516129d981612f60565b8352600196909601959183019183016129c6565b50918a0151919850909350505080821115612a06578384fd5b612a1288838901612633565b94506040870151915080821115612a27578384fd5b612a33888389016126ab565b93506060870151915080821115612a48578283fd5b50612a55878288016126ab565b91505092959194509250565b600060208284031215612a72578081fd5b8151611cb581612f60565b600060208284031215612a8e578081fd5b8151611cb581612f4b565b600060208284031215612aaa578081fd5b5035919050565b600060208284031215612ac2578081fd5b5051919050565b60008060408385031215612adb578182fd5b823591506020830135612aed81612f4b565b809150509250929050565b60008060408385031215612b0a578182fd5b823591506020830135612aed81612f60565b600080600060608486031215612b30578081fd5b833592506020840135612b4281612f4b565b91506040840135612b5281612f60565b809150509250925092565b60008060408385031215612b6f578182fd5b50508035926020909101359150565b600080600060608486031215612b92578081fd5b83359250602084013591506040840135612b5281612f60565b6000815180845260208085019450808401835b83811015612bda57815187529582019590820190600101612bbe565b509495945050505050565b60008251612bf7818460208701612ed8565b9190910192915050565b6001600160a01b038316815260406020820181905260009061250e90830184612bab565b6080808252855190820181905260009060209060a0840190828901845b82811015612c60578151151584529284019290840190600101612c42565b50505083810382850152865180825287830191830190845b81811015612c9d5783516001600160a01b031683529284019291840191600101612c78565b50508481036040860152612cb18188612bab565b925050508281036060840152611c9e8185612bab565b6000602082528251806020840152612ce6816040850160208701612ed8565b601f01601f19169190910160400192915050565b6020808252602c908201527f46756e6374696f6e206d7573742062652063616c6c6564207468726f7567682060408201526b19195b1959d85d1958d85b1b60a21b606082015260800190565b6020808252602c908201527f46756e6374696f6e206d7573742062652063616c6c6564207468726f7567682060408201526b6163746976652070726f787960a01b606082015260800190565b6020808252602e908201527f496e697469616c697a61626c653a20636f6e747261637420697320616c72656160408201526d191e481a5b9a5d1a585b1a5e995960921b606082015260800190565b6020808252818101527f4f776e61626c653a2063616c6c6572206973206e6f7420746865206f776e6572604082015260600190565b604051601f8201601f1916810167ffffffffffffffff81118282101715612e3e57612e3e612f35565b604052919050565b600067ffffffffffffffff821115612e6057612e60612f35565b5060051b60200190565b60008219821115612e7d57612e7d612f1f565b500190565b600082612e9d57634e487b7160e01b81526012600452602481fd5b500490565b6000816000190483118215151615612ebc57612ebc612f1f565b500290565b600082821015612ed357612ed3612f1f565b500390565b60005b83811015612ef3578181015183820152602001612edb565b838111156121545750506000910152565b6000600019821415612f1857612f18612f1f565b5060010190565b634e487b7160e01b600052601160045260246000fd5b634e487b7160e01b600052604160045260246000fd5b6001600160a01b0381168114610b8257600080fd5b8015158114610b8257600080fdfe416464726573733a206c6f772d6c6576656c2064656c65676174652063616c6c206661696c6564a264697066735822122046a7a1a268f9f4e7865a241781f8fde7d0297dfee03755c19195329b98816fe864736f6c63430008030033",
  "linkReferences": {},
  "deployedLinkReferences": {}
}