{
  "_format": "hh-sol-artifact-1",
  "contractName": "Vesting",
  "sourceName": "contracts/lib/Vesting.sol",
  "abi": [
    {
      "anonymous": false,
      "inputs": [
        {
          "indexed": false,
          "internalType": "address",
          "name": "user",
          "type": "address"
        },
        {
          "indexed": false,
          "internalType": "uint256",
          "name": "amount",
          "type": "uint256"
        },
        {
          "indexed": false,
          "internalType": "uint256",
          "name": "startVestingTime",
          "type": "uint256"
        },
        {
          "indexed": false,
          "internalType": "uint256",
          "name": "duration",
          "type": "uint256"
        }
      ],
      "name": "Lock",
      "type": "event"
    },
    {
      "anonymous": false,
      "inputs": [
        {
          "indexed": true,
          "internalType": "address",
          "name": "previousOwner",
          "type": "address"
        },
        {
          "indexed": true,
          "internalType": "address",
          "name": "newOwner",
          "type": "address"
        }
      ],
      "name": "OwnershipTransferred",
      "type": "event"
    },
    {
      "anonymous": false,
      "inputs": [
        {
          "indexed": false,
          "internalType": "address",
          "name": "locker",
          "type": "address"
        },
        {
          "indexed": false,
          "internalType": "bool",
          "name": "val",
          "type": "bool"
        }
      ],
      "name": "SetVester",
      "type": "event"
    },
    {
      "anonymous": false,
      "inputs": [
        {
          "indexed": false,
          "internalType": "address",
          "name": "user",
          "type": "address"
        },
        {
          "indexed": false,
          "internalType": "uint256",
          "name": "amount",
          "type": "uint256"
        }
      ],
      "name": "Unlock",
      "type": "event"
    },
    {
      "anonymous": false,
      "inputs": [
        {
          "indexed": true,
          "internalType": "address",
          "name": "receiver",
          "type": "address"
        },
        {
          "indexed": true,
          "internalType": "address",
          "name": "tokenAddress",
          "type": "address"
        },
        {
          "indexed": false,
          "internalType": "uint256",
          "name": "amount",
          "type": "uint256"
        }
      ],
      "name": "WithdrawStuckERC20",
      "type": "event"
    },
    {
      "anonymous": false,
      "inputs": [
        {
          "indexed": true,
          "internalType": "address",
          "name": "receiver",
          "type": "address"
        },
        {
          "indexed": true,
          "internalType": "address",
          "name": "tokenAddress",
          "type": "address"
        },
        {
          "indexed": true,
          "internalType": "uint256",
          "name": "tokenId",
          "type": "uint256"
        }
      ],
      "name": "WithdrawStuckERC721",
      "type": "event"
    },
    {
      "anonymous": false,
      "inputs": [
        {
          "indexed": true,
          "internalType": "address",
          "name": "receiver",
          "type": "address"
        },
        {
          "indexed": false,
          "internalType": "uint256",
          "name": "amount",
          "type": "uint256"
        }
      ],
      "name": "WithdrawStuckEther",
      "type": "event"
    },
    {
      "inputs": [
        {
          "internalType": "address",
          "name": "_addr",
          "type": "address"
        },
        {
          "internalType": "uint256",
          "name": "_amount",
          "type": "uint256"
        },
        {
          "internalType": "uint256",
          "name": "_startVestingTime",
          "type": "uint256"
        },
        {
          "internalType": "uint256",
          "name": "_duration",
          "type": "uint256"
        }
      ],
      "name": "addVesting",
      "outputs": [],
      "stateMutability": "nonpayable",
      "type": "function"
    },
    {
      "inputs": [],
      "name": "duration",
      "outputs": [
        {
          "internalType": "uint256",
          "name": "",
          "type": "uint256"
        }
      ],
      "stateMutability": "view",
      "type": "function"
    },
    {
      "inputs": [
        {
          "internalType": "address",
          "name": "_addr",
          "type": "address"
        }
      ],
      "name": "getLockedInfo",
      "outputs": [
        {
          "internalType": "uint256",
          "name": "_locked",
          "type": "uint256"
        },
        {
          "internalType": "uint256",
          "name": "_releasable",
          "type": "uint256"
        }
      ],
      "stateMutability": "view",
      "type": "function"
    },
    {
      "inputs": [
        {
          "internalType": "address",
          "name": "_addr",
          "type": "address"
        }
      ],
      "name": "getUnlockable",
      "outputs": [
        {
          "internalType": "uint256",
          "name": "",
          "type": "uint256"
        }
      ],
      "stateMutability": "view",
      "type": "function"
    },
    {
      "inputs": [
        {
          "internalType": "address",
          "name": "_addr",
          "type": "address"
        },
        {
          "internalType": "uint256",
          "name": "_index",
          "type": "uint256"
        }
      ],
      "name": "getUnlockableVesting",
      "outputs": [
        {
          "internalType": "uint256",
          "name": "",
          "type": "uint256"
        }
      ],
      "stateMutability": "view",
      "type": "function"
    },
    {
      "inputs": [
        {
          "internalType": "address",
          "name": "_token",
          "type": "address"
        },
        {
          "internalType": "address",
          "name": "_vester",
          "type": "address"
        }
      ],
      "name": "initialize",
      "outputs": [],
      "stateMutability": "nonpayable",
      "type": "function"
    },
    {
      "inputs": [],
      "name": "owner",
      "outputs": [
        {
          "internalType": "address",
          "name": "",
          "type": "address"
        }
      ],
      "stateMutability": "view",
      "type": "function"
    },
    {
      "inputs": [],
      "name": "renounceOwnership",
      "outputs": [],
      "stateMutability": "nonpayable",
      "type": "function"
    },
    {
      "inputs": [
        {
          "internalType": "address[]",
          "name": "_vesters",
          "type": "address[]"
        },
        {
          "internalType": "bool",
          "name": "val",
          "type": "bool"
        }
      ],
      "name": "setVesters",
      "outputs": [],
      "stateMutability": "nonpayable",
      "type": "function"
    },
    {
      "inputs": [],
      "name": "startVestingTime",
      "outputs": [
        {
          "internalType": "uint256",
          "name": "",
          "type": "uint256"
        }
      ],
      "stateMutability": "view",
      "type": "function"
    },
    {
      "inputs": [],
      "name": "token",
      "outputs": [
        {
          "internalType": "contract IERC20Upgradeable",
          "name": "",
          "type": "address"
        }
      ],
      "stateMutability": "view",
      "type": "function"
    },
    {
      "inputs": [
        {
          "internalType": "address",
          "name": "newOwner",
          "type": "address"
        }
      ],
      "name": "transferOwnership",
      "outputs": [],
      "stateMutability": "nonpayable",
      "type": "function"
    },
    {
      "inputs": [
        {
          "internalType": "address",
          "name": "_addr",
          "type": "address"
        }
      ],
      "name": "unlockVesting",
      "outputs": [],
      "stateMutability": "nonpayable",
      "type": "function"
    },
    {
      "inputs": [
        {
          "internalType": "address",
          "name": "",
          "type": "address"
        }
      ],
      "name": "vesters",
      "outputs": [
        {
          "internalType": "bool",
          "name": "",
          "type": "bool"
        }
      ],
      "stateMutability": "view",
      "type": "function"
    },
    {
      "inputs": [
        {
          "internalType": "address",
          "name": "",
          "type": "address"
        },
        {
          "internalType": "uint256",
          "name": "",
          "type": "uint256"
        }
      ],
      "name": "vestings",
      "outputs": [
        {
          "internalType": "uint256",
          "name": "releasedAmount",
          "type": "uint256"
        },
        {
          "internalType": "uint256",
          "name": "totalAmount",
          "type": "uint256"
        },
        {
          "internalType": "uint256",
          "name": "startVestingTime",
          "type": "uint256"
        },
        {
          "internalType": "uint256",
          "name": "duration",
          "type": "uint256"
        }
      ],
      "stateMutability": "view",
      "type": "function"
    },
    {
      "inputs": [
        {
          "internalType": "address payable",
          "name": "receiver",
          "type": "address"
        },
        {
          "internalType": "address",
          "name": "tokenAddress",
          "type": "address"
        },
        {
          "internalType": "uint256",
          "name": "amount",
          "type": "uint256"
        }
      ],
      "name": "withdrawERC20",
      "outputs": [],
      "stateMutability": "nonpayable",
      "type": "function"
    },
    {
      "inputs": [
        {
          "internalType": "address payable",
          "name": "receiver",
          "type": "address"
        },
        {
          "internalType": "address",
          "name": "tokenAddress",
          "type": "address"
        },
        {
          "internalType": "uint256",
          "name": "tokenId",
          "type": "uint256"
        }
      ],
      "name": "withdrawERC721",
      "outputs": [],
      "stateMutability": "nonpayable",
      "type": "function"
    },
    {
      "inputs": [
        {
          "internalType": "address payable",
          "name": "receiver",
          "type": "address"
        },
        {
          "internalType": "uint256",
          "name": "amount",
          "type": "uint256"
        }
      ],
      "name": "withdrawEther",
      "outputs": [],
      "stateMutability": "nonpayable",
      "type": "function"
    }
  ],
  "bytecode": "0x608060405234801561001057600080fd5b50611a01806100206000396000f3fe608060405234801561001057600080fd5b50600436106101165760003560e01c8063715018a6116100a2578063bc27792811610071578063bc2779281461024f578063bd84477d14610262578063c863017814610295578063f2fde38b146102a8578063fc0c546a146102bb57610116565b8063715018a6146101e75780638afb2207146101ef5780638da5cb5b14610217578063bb1a40301461023c57610116565b806344004cc1116100e957806344004cc114610192578063485cc955146101a55780634cf518a1146101b8578063522f6815146101cb57806366088492146101de57610116565b80630fb5a6b41461011b57806311b8db2e146101375780631501ea1c1461014a5780634025feb21461017d575b600080fd5b61012460685481565b6040519081526020015b60405180910390f35b610124610145366004611611565b6102ce565b61016d610158366004611599565b60696020526000908152604090205460ff1681565b604051901515815260200161012e565b61019061018b3660046115d1565b61040d565b005b6101906101a03660046115d1565b610450565b6101906101b336600461163c565b610485565b6101906101c6366004611674565b610570565b6101906101d9366004611611565b610691565b61012460675481565b6101906106c9565b6102026101fd366004611599565b6106ff565b6040805192835260208301919091520161012e565b6033546001600160a01b03165b6040516001600160a01b03909116815260200161012e565b61019061024a3660046116ae565b610803565b61019061025d366004611599565b610925565b610275610270366004611611565b610be1565b60408051948552602085019390935291830152606082015260800161012e565b6101246102a3366004611599565b610c27565b6101906102b6366004611599565b610c78565b606554610224906001600160a01b031681565b6001600160a01b03821660009081526066602052604081205482106102f557506000610407565b6001600160a01b038316600090815260666020526040812080548490811061032d57634e487b7160e01b600052603260045260246000fd5b90600052602060002090600402016040518060800160405290816000820154815260200160018201548152602001600282015481526020016003820154815250509050806020015160001415610387576000915050610407565b428160400151111561039d576000915050610407565b60006103b6826040015142610d1390919063ffffffff16565b905060006103df83606001516103d9856020015185610d2690919063ffffffff16565b90610d32565b905082602001518111156103f4575060208201515b8251610401908290610d13565b93505050505b92915050565b6033546001600160a01b031633146104405760405162461bcd60e51b81526004016104379061187b565b60405180910390fd5b61044b838383610d3e565b505050565b6033546001600160a01b0316331461047a5760405162461bcd60e51b81526004016104379061187b565b61044b838383610e9b565b600054610100900460ff168061049e575060005460ff16155b6104ba5760405162461bcd60e51b81526004016104379061182d565b600054610100900460ff161580156104dc576000805461ffff19166101011790555b6104e4610fa5565b606580546001600160a01b0319166001600160a01b03858116919091179091558216600081815260696020908152604091829020805460ff191660019081179091558251938452908301527f91aa7a2d9df8075bec5db0fe3a74c12fb8d3cb31a4cb0bc27ebdc7d45cdd93a9910160405180910390a1801561044b576000805461ff0019169055505050565b3360009081526069602052604090205460ff166105cf5760405162461bcd60e51b815260206004820152601b60248201527f6f6e6c79207665737465722063616e206164642076657374696e6700000000006044820152606401610437565b6105d884610925565b6001600160a01b03841660008181526066602090815260408083208151608080820184528582528185018a81528285018a815260608085018b8152865460018082018955978b529989902095516004909a029095019889559151948801949094559251600287015590516003909501949094558151948552918401879052830185905282018390527f0e31f07bae79135368ff475cf6c7f6abb31e0fd731e03c18ad425bd9406cf0c0910160405180910390a150505050565b6033546001600160a01b031633146106bb5760405162461bcd60e51b81526004016104379061187b565b6106c58282611020565b5050565b6033546001600160a01b031633146106f35760405162461bcd60e51b81526004016104379061187b565b6106fd60006110a6565b565b60008061070b83610c27565b6001600160a01b03841660009081526066602052604081205491925090815b818110156107ef576001600160a01b038616600090815260666020526040902080546107db91908390811061076f57634e487b7160e01b600052603260045260246000fd5b600091825260208083206004909202909101546001600160a01b038a168352606690915260409091208054849081106107b857634e487b7160e01b600052603260045260246000fd5b9060005260206000209060040201600101546107d49190611907565b84906110f8565b9250806107e781611961565b91505061072a565b506107fa8284610d13565b93505050915091565b6033546001600160a01b0316331461082d5760405162461bcd60e51b81526004016104379061187b565b60005b825181101561044b57816069600085848151811061085e57634e487b7160e01b600052603260045260246000fd5b60200260200101516001600160a01b03166001600160a01b0316815260200190815260200160002060006101000a81548160ff0219169083151502179055507f91aa7a2d9df8075bec5db0fe3a74c12fb8d3cb31a4cb0bc27ebdc7d45cdd93a98382815181106108de57634e487b7160e01b600052603260045260246000fd5b60200260200101518360405161090b9291906001600160a01b039290921682521515602082015260400190565b60405180910390a18061091d81611961565b915050610830565b6001600160a01b0381166000908152606660205260409020805490815b8015610bdb576000610955600183611907565b9050600061096386836102ce565b90508015610bc7576109a68185848154811061098f57634e487b7160e01b600052603260045260246000fd5b6000918252602090912060049091020154906110f8565b8483815481106109c657634e487b7160e01b600052603260045260246000fd5b60009182526020909120600490910201556065546109ee906001600160a01b03168783611104565b838281548110610a0e57634e487b7160e01b600052603260045260246000fd5b906000526020600020906004020160010154848381548110610a4057634e487b7160e01b600052603260045260246000fd5b90600052602060002090600402016000015410610b84578354600090610a6890600190611907565b9050848181548110610a8a57634e487b7160e01b600052603260045260246000fd5b906000526020600020906004020160000154858481548110610abc57634e487b7160e01b600052603260045260246000fd5b906000526020600020906004020160000181905550848181548110610af157634e487b7160e01b600052603260045260246000fd5b906000526020600020906004020160010154858481548110610b2357634e487b7160e01b600052603260045260246000fd5b90600052602060002090600402016001018190555084805480610b5657634e487b7160e01b600052603160045260246000fd5b6000828152602081206004600019909301928302018181556001810182905560028101829055600301559055505b604080516001600160a01b0388168152602081018390527f6381d9813cabeb57471b5a7e05078e64845ccdb563146a6911d536f24ce960f1910160405180910390a15b82610bd18161194a565b9350505050610942565b50505050565b60666020528160005260406000208181548110610bfd57600080fd5b60009182526020909120600490910201805460018201546002830154600390930154919450925084565b6001600160a01b0381166000908152606660205260408120548190815b81811015610c6d57610c596107d486836102ce565b925080610c6581611961565b915050610c44565b50909150505b919050565b6033546001600160a01b03163314610ca25760405162461bcd60e51b81526004016104379061187b565b6001600160a01b038116610d075760405162461bcd60e51b815260206004820152602660248201527f4f776e61626c653a206e6577206f776e657220697320746865207a65726f206160448201526564647265737360d01b6064820152608401610437565b610d10816110a6565b50565b6000610d1f8284611907565b9392505050565b6000610d1f82846118e8565b6000610d1f82846118c8565b6001600160a01b038316610d645760405162461bcd60e51b81526004016104379061180a565b6040516331a9108f60e11b81526004810182905230906001600160a01b03841690636352211e9060240160206040518083038186803b158015610da657600080fd5b505afa158015610dba573d6000803e3d6000fd5b505050506040513d601f19601f82011682018060405250810190610dde91906115b5565b6001600160a01b0316141561044b576040516323b872dd60e01b81523060048201526001600160a01b038481166024830152604482018390528316906323b872dd90606401600060405180830381600087803b158015610e3d57600080fd5b505af1158015610e51573d6000803e3d6000fd5b5050505080826001600160a01b0316846001600160a01b03167ffefe036cac4ee3a4aca074a81cbcc4376e1484693289078dbec149c890101d5b60405160405180910390a4505050565b6001600160a01b038316610ec15760405162461bcd60e51b81526004016104379061180a565b6040516370a0823160e01b815230600482015281906001600160a01b038416906370a082319060240160206040518083038186803b158015610f0257600080fd5b505afa158015610f16573d6000803e3d6000fd5b505050506040513d601f19601f82011682018060405250810190610f3a91906117a3565b1061044b57610f536001600160a01b0383168483611104565b816001600160a01b0316836001600160a01b03167f6c9d637297625e945b296ff73a71fcfbd0a9e062652b6491a921c4c60194176b83604051610f9891815260200190565b60405180910390a3505050565b600054610100900460ff1680610fbe575060005460ff16155b610fda5760405162461bcd60e51b81526004016104379061182d565b600054610100900460ff16158015610ffc576000805461ffff19166101011790555b611004611156565b61100c6111c0565b8015610d10576000805461ff001916905550565b6001600160a01b0382166110465760405162461bcd60e51b81526004016104379061180a565b8047106106c5576110606001600160a01b03831682611220565b816001600160a01b03167eddb683bb45cd5d0ad8a200c6fae7152b1c236ee90a4a37db692407f5cc38bd8260405161109a91815260200190565b60405180910390a25050565b603380546001600160a01b038381166001600160a01b0319831681179093556040519116919082907f8be0079c531659141344cd1fd0a4f28419497f9722a3daafe3b4186f6b6457e090600090a35050565b6000610d1f82846118b0565b604080516001600160a01b038416602482015260448082018490528251808303909101815260649091019091526020810180516001600160e01b031663a9059cbb60e01b17905261044b908490611339565b600054610100900460ff168061116f575060005460ff16155b61118b5760405162461bcd60e51b81526004016104379061182d565b600054610100900460ff1615801561100c576000805461ffff19166101011790558015610d10576000805461ff001916905550565b600054610100900460ff16806111d9575060005460ff16155b6111f55760405162461bcd60e51b81526004016104379061182d565b600054610100900460ff16158015611217576000805461ffff19166101011790555b61100c336110a6565b804710156112705760405162461bcd60e51b815260206004820152601d60248201527f416464726573733a20696e73756666696369656e742062616c616e63650000006044820152606401610437565b6000826001600160a01b03168260405160006040518083038185875af1925050503d80600081146112bd576040519150601f19603f3d011682016040523d82523d6000602084013e6112c2565b606091505b505090508061044b5760405162461bcd60e51b815260206004820152603a60248201527f416464726573733a20756e61626c6520746f2073656e642076616c75652c207260448201527f6563697069656e74206d617920686176652072657665727465640000000000006064820152608401610437565b600061138e826040518060400160405280602081526020017f5361666545524332303a206c6f772d6c6576656c2063616c6c206661696c6564815250856001600160a01b031661140b9092919063ffffffff16565b80519091501561044b57808060200190518101906113ac9190611787565b61044b5760405162461bcd60e51b815260206004820152602a60248201527f5361666545524332303a204552433230206f7065726174696f6e20646964206e6044820152691bdd081cdd58d8d9595960b21b6064820152608401610437565b606061141a8484600085611422565b949350505050565b6060824710156114835760405162461bcd60e51b815260206004820152602660248201527f416464726573733a20696e73756666696369656e742062616c616e636520666f6044820152651c8818d85b1b60d21b6064820152608401610437565b843b6114d15760405162461bcd60e51b815260206004820152601d60248201527f416464726573733a2063616c6c20746f206e6f6e2d636f6e74726163740000006044820152606401610437565b600080866001600160a01b031685876040516114ed91906117bb565b60006040518083038185875af1925050503d806000811461152a576040519150601f19603f3d011682016040523d82523d6000602084013e61152f565b606091505b509150915061153f82828661154a565b979650505050505050565b60608315611559575081610d1f565b8251156115695782518084602001fd5b8160405162461bcd60e51b815260040161043791906117d7565b8035610c73816119a8565b8035610c73816119bd565b6000602082840312156115aa578081fd5b8135610d1f816119a8565b6000602082840312156115c6578081fd5b8151610d1f816119a8565b6000806000606084860312156115e5578182fd5b83356115f0816119a8565b92506020840135611600816119a8565b929592945050506040919091013590565b60008060408385031215611623578182fd5b823561162e816119a8565b946020939093013593505050565b6000806040838503121561164e578182fd5b8235611659816119a8565b91506020830135611669816119a8565b809150509250929050565b60008060008060808587031215611689578081fd5b8435611694816119a8565b966020860135965060408601359560600135945092505050565b600080604083850312156116c0578182fd5b823567ffffffffffffffff808211156116d7578384fd5b818501915085601f8301126116ea578384fd5b81356020828211156116fe576116fe611992565b8160051b604051601f19603f8301168101818110868211171561172357611723611992565b604052838152828101945085830182870184018b1015611741578889fd5b8896505b8487101561176a5761175681611583565b865260019690960195948301948301611745565b50965061177a905087820161158e565b9450505050509250929050565b600060208284031215611798578081fd5b8151610d1f816119bd565b6000602082840312156117b4578081fd5b5051919050565b600082516117cd81846020870161191e565b9190910192915050565b60006020825282518060208401526117f681604085016020870161191e565b601f01601f19169190910160400192915050565b6020808252600990820152684248503a452d34303360b81b604082015260600190565b6020808252602e908201527f496e697469616c697a61626c653a20636f6e747261637420697320616c72656160408201526d191e481a5b9a5d1a585b1a5e995960921b606082015260800190565b6020808252818101527f4f776e61626c653a2063616c6c6572206973206e6f7420746865206f776e6572604082015260600190565b600082198211156118c3576118c361197c565b500190565b6000826118e357634e487b7160e01b81526012600452602481fd5b500490565b60008160001904831182151516156119025761190261197c565b500290565b6000828210156119195761191961197c565b500390565b60005b83811015611939578181015183820152602001611921565b83811115610bdb5750506000910152565b6000816119595761195961197c565b506000190190565b60006000198214156119755761197561197c565b5060010190565b634e487b7160e01b600052601160045260246000fd5b634e487b7160e01b600052604160045260246000fd5b6001600160a01b0381168114610d1057600080fd5b8015158114610d1057600080fdfea264697066735822122030773fd644c586a02e644284729b8704949df75d97270ee6e67e54d78e305c9064736f6c63430008030033",
  "linkReferences": {},
  "deployedLinkReferences": {}
}