{
  "_format": "hh-sol-artifact-1",
  "contractName": "Vesting",
  "sourceName": "contracts/lib/Vesting.sol",
  "abi": [
    {
      "anonymous": false,
      "inputs": [
        {
          "indexed": false,
          "internalType": "address",
          "name": "user",
          "type": "address"
        },
        {
          "indexed": false,
          "internalType": "uint256",
          "name": "amount",
          "type": "uint256"
        },
        {
          "indexed": false,
          "internalType": "uint256",
          "name": "startVestingTime",
          "type": "uint256"
        },
        {
          "indexed": false,
          "internalType": "uint256",
          "name": "duration",
          "type": "uint256"
        }
      ],
      "name": "Lock",
      "type": "event"
    },
    {
      "anonymous": false,
      "inputs": [
        {
          "indexed": true,
          "internalType": "address",
          "name": "previousOwner",
          "type": "address"
        },
        {
          "indexed": true,
          "internalType": "address",
          "name": "newOwner",
          "type": "address"
        }
      ],
      "name": "OwnershipTransferred",
      "type": "event"
    },
    {
      "anonymous": false,
      "inputs": [
        {
          "indexed": false,
          "internalType": "address",
          "name": "locker",
          "type": "address"
        },
        {
          "indexed": false,
          "internalType": "bool",
          "name": "val",
          "type": "bool"
        }
      ],
      "name": "SetVester",
      "type": "event"
    },
    {
      "anonymous": false,
      "inputs": [
        {
          "indexed": false,
          "internalType": "address",
          "name": "user",
          "type": "address"
        },
        {
          "indexed": false,
          "internalType": "uint256",
          "name": "amount",
          "type": "uint256"
        }
      ],
      "name": "Unlock",
      "type": "event"
    },
    {
      "anonymous": false,
      "inputs": [
        {
          "indexed": true,
          "internalType": "address",
          "name": "receiver",
          "type": "address"
        },
        {
          "indexed": true,
          "internalType": "address",
          "name": "tokenAddress",
          "type": "address"
        },
        {
          "indexed": false,
          "internalType": "uint256",
          "name": "amount",
          "type": "uint256"
        }
      ],
      "name": "WithdrawStuckERC20",
      "type": "event"
    },
    {
      "anonymous": false,
      "inputs": [
        {
          "indexed": true,
          "internalType": "address",
          "name": "receiver",
          "type": "address"
        },
        {
          "indexed": true,
          "internalType": "address",
          "name": "tokenAddress",
          "type": "address"
        },
        {
          "indexed": true,
          "internalType": "uint256",
          "name": "tokenId",
          "type": "uint256"
        }
      ],
      "name": "WithdrawStuckERC721",
      "type": "event"
    },
    {
      "anonymous": false,
      "inputs": [
        {
          "indexed": true,
          "internalType": "address",
          "name": "receiver",
          "type": "address"
        },
        {
          "indexed": false,
          "internalType": "uint256",
          "name": "amount",
          "type": "uint256"
        }
      ],
      "name": "WithdrawStuckEther",
      "type": "event"
    },
    {
      "inputs": [
        {
          "internalType": "address",
          "name": "_addr",
          "type": "address"
        },
        {
          "internalType": "uint256",
          "name": "_amount",
          "type": "uint256"
        },
        {
          "internalType": "uint256",
          "name": "_startVestingTime",
          "type": "uint256"
        },
        {
          "internalType": "uint256",
          "name": "_duration",
          "type": "uint256"
        }
      ],
      "name": "addVesting",
      "outputs": [],
      "stateMutability": "nonpayable",
      "type": "function"
    },
    {
      "inputs": [],
      "name": "duration",
      "outputs": [
        {
          "internalType": "uint256",
          "name": "",
          "type": "uint256"
        }
      ],
      "stateMutability": "view",
      "type": "function"
    },
    {
      "inputs": [
        {
          "internalType": "address",
          "name": "_addr",
          "type": "address"
        }
      ],
      "name": "getLockedInfo",
      "outputs": [
        {
          "internalType": "uint256",
          "name": "_locked",
          "type": "uint256"
        },
        {
          "internalType": "uint256",
          "name": "_releasable",
          "type": "uint256"
        }
      ],
      "stateMutability": "view",
      "type": "function"
    },
    {
      "inputs": [
        {
          "internalType": "address",
          "name": "_addr",
          "type": "address"
        }
      ],
      "name": "getUnlockable",
      "outputs": [
        {
          "internalType": "uint256",
          "name": "",
          "type": "uint256"
        }
      ],
      "stateMutability": "view",
      "type": "function"
    },
    {
      "inputs": [
        {
          "internalType": "address",
          "name": "_addr",
          "type": "address"
        },
        {
          "internalType": "uint256",
          "name": "_index",
          "type": "uint256"
        }
      ],
      "name": "getUnlockableVesting",
      "outputs": [
        {
          "internalType": "uint256",
          "name": "",
          "type": "uint256"
        }
      ],
      "stateMutability": "view",
      "type": "function"
    },
    {
      "inputs": [
        {
          "internalType": "address",
          "name": "_token",
          "type": "address"
        },
        {
          "internalType": "address",
          "name": "_vester",
          "type": "address"
        }
      ],
      "name": "initialize",
      "outputs": [],
      "stateMutability": "nonpayable",
      "type": "function"
    },
    {
      "inputs": [],
      "name": "owner",
      "outputs": [
        {
          "internalType": "address",
          "name": "",
          "type": "address"
        }
      ],
      "stateMutability": "view",
      "type": "function"
    },
    {
      "inputs": [],
      "name": "renounceOwnership",
      "outputs": [],
      "stateMutability": "nonpayable",
      "type": "function"
    },
    {
      "inputs": [
        {
          "internalType": "address",
          "name": "devaddr",
          "type": "address"
        },
        {
          "internalType": "uint256",
          "name": "amount",
          "type": "uint256"
        }
      ],
      "name": "sendRewardForDev",
      "outputs": [],
      "stateMutability": "nonpayable",
      "type": "function"
    },
    {
      "inputs": [
        {
          "internalType": "address[]",
          "name": "_vesters",
          "type": "address[]"
        },
        {
          "internalType": "bool",
          "name": "val",
          "type": "bool"
        }
      ],
      "name": "setVesters",
      "outputs": [],
      "stateMutability": "nonpayable",
      "type": "function"
    },
    {
      "inputs": [],
      "name": "startVestingTime",
      "outputs": [
        {
          "internalType": "uint256",
          "name": "",
          "type": "uint256"
        }
      ],
      "stateMutability": "view",
      "type": "function"
    },
    {
      "inputs": [],
      "name": "token",
      "outputs": [
        {
          "internalType": "contract IERC20Upgradeable",
          "name": "",
          "type": "address"
        }
      ],
      "stateMutability": "view",
      "type": "function"
    },
    {
      "inputs": [
        {
          "internalType": "address",
          "name": "newOwner",
          "type": "address"
        }
      ],
      "name": "transferOwnership",
      "outputs": [],
      "stateMutability": "nonpayable",
      "type": "function"
    },
    {
      "inputs": [
        {
          "internalType": "address",
          "name": "_addr",
          "type": "address"
        }
      ],
      "name": "unlockVesting",
      "outputs": [],
      "stateMutability": "nonpayable",
      "type": "function"
    },
    {
      "inputs": [
        {
          "internalType": "address",
          "name": "",
          "type": "address"
        }
      ],
      "name": "vesters",
      "outputs": [
        {
          "internalType": "bool",
          "name": "",
          "type": "bool"
        }
      ],
      "stateMutability": "view",
      "type": "function"
    },
    {
      "inputs": [
        {
          "internalType": "address",
          "name": "",
          "type": "address"
        },
        {
          "internalType": "uint256",
          "name": "",
          "type": "uint256"
        }
      ],
      "name": "vestings",
      "outputs": [
        {
          "internalType": "uint256",
          "name": "releasedAmount",
          "type": "uint256"
        },
        {
          "internalType": "uint256",
          "name": "totalAmount",
          "type": "uint256"
        },
        {
          "internalType": "uint256",
          "name": "startVestingTime",
          "type": "uint256"
        },
        {
          "internalType": "uint256",
          "name": "duration",
          "type": "uint256"
        }
      ],
      "stateMutability": "view",
      "type": "function"
    },
    {
      "inputs": [
        {
          "internalType": "address payable",
          "name": "receiver",
          "type": "address"
        },
        {
          "internalType": "address",
          "name": "tokenAddress",
          "type": "address"
        },
        {
          "internalType": "uint256",
          "name": "amount",
          "type": "uint256"
        }
      ],
      "name": "withdrawERC20",
      "outputs": [],
      "stateMutability": "nonpayable",
      "type": "function"
    },
    {
      "inputs": [
        {
          "internalType": "address payable",
          "name": "receiver",
          "type": "address"
        },
        {
          "internalType": "address",
          "name": "tokenAddress",
          "type": "address"
        },
        {
          "internalType": "uint256",
          "name": "tokenId",
          "type": "uint256"
        }
      ],
      "name": "withdrawERC721",
      "outputs": [],
      "stateMutability": "nonpayable",
      "type": "function"
    },
    {
      "inputs": [
        {
          "internalType": "address payable",
          "name": "receiver",
          "type": "address"
        },
        {
          "internalType": "uint256",
          "name": "amount",
          "type": "uint256"
        }
      ],
      "name": "withdrawEther",
      "outputs": [],
      "stateMutability": "nonpayable",
      "type": "function"
    }
  ],
  "bytecode": "0x608060405234801561001057600080fd5b50611aa1806100206000396000f3fe608060405234801561001057600080fd5b50600436106101215760003560e01c8063715018a6116100ad578063bd84477d11610071578063bd84477d1461026d578063c8630178146102a0578063d9356213146102b3578063f2fde38b146102c6578063fc0c546a146102d957610121565b8063715018a6146101f25780638afb2207146101fa5780638da5cb5b14610222578063bb1a403014610247578063bc2779281461025a57610121565b806344004cc1116100f457806344004cc11461019d578063485cc955146101b05780634cf518a1146101c3578063522f6815146101d657806366088492146101e957610121565b80630fb5a6b41461012657806311b8db2e146101425780631501ea1c146101555780634025feb214610188575b600080fd5b61012f60685481565b6040519081526020015b60405180910390f35b61012f6101503660046116b1565b6102ec565b610178610163366004611639565b60696020526000908152604090205460ff1681565b6040519015158152602001610139565b61019b610196366004611671565b61042b565b005b61019b6101ab366004611671565b61046e565b61019b6101be3660046116dc565b6104a3565b61019b6101d1366004611714565b61058e565b61019b6101e43660046116b1565b6106af565b61012f60675481565b61019b6106e7565b61020d610208366004611639565b61071d565b60408051928352602083019190915201610139565b6033546001600160a01b03165b6040516001600160a01b039091168152602001610139565b61019b61025536600461174e565b610821565b61019b610268366004611639565b610943565b61028061027b3660046116b1565b610bff565b604080519485526020850193909352918301526060820152608001610139565b61012f6102ae366004611639565b610c45565b61019b6102c13660046116b1565b610c96565b61019b6102d4366004611639565b610d18565b60655461022f906001600160a01b031681565b6001600160a01b038216600090815260666020526040812054821061031357506000610425565b6001600160a01b038316600090815260666020526040812080548490811061034b57634e487b7160e01b600052603260045260246000fd5b906000526020600020906004020160405180608001604052908160008201548152602001600182015481526020016002820154815260200160038201548152505090508060200151600014156103a5576000915050610425565b42816040015111156103bb576000915050610425565b60006103d4826040015142610db390919063ffffffff16565b905060006103fd83606001516103f7856020015185610dc690919063ffffffff16565b90610dd2565b90508260200151811115610412575060208201515b825161041f908290610db3565b93505050505b92915050565b6033546001600160a01b0316331461045e5760405162461bcd60e51b81526004016104559061191b565b60405180910390fd5b610469838383610dde565b505050565b6033546001600160a01b031633146104985760405162461bcd60e51b81526004016104559061191b565b610469838383610f3b565b600054610100900460ff16806104bc575060005460ff16155b6104d85760405162461bcd60e51b8152600401610455906118cd565b600054610100900460ff161580156104fa576000805461ffff19166101011790555b610502611045565b606580546001600160a01b0319166001600160a01b03858116919091179091558216600081815260696020908152604091829020805460ff191660019081179091558251938452908301527f91aa7a2d9df8075bec5db0fe3a74c12fb8d3cb31a4cb0bc27ebdc7d45cdd93a9910160405180910390a18015610469576000805461ff0019169055505050565b3360009081526069602052604090205460ff166105ed5760405162461bcd60e51b815260206004820152601b60248201527f6f6e6c79207665737465722063616e206164642076657374696e6700000000006044820152606401610455565b6105f684610943565b6001600160a01b03841660008181526066602090815260408083208151608080820184528582528185018a81528285018a815260608085018b8152865460018082018955978b529989902095516004909a029095019889559151948801949094559251600287015590516003909501949094558151948552918401879052830185905282018390527f0e31f07bae79135368ff475cf6c7f6abb31e0fd731e03c18ad425bd9406cf0c0910160405180910390a150505050565b6033546001600160a01b031633146106d95760405162461bcd60e51b81526004016104559061191b565b6106e382826110c0565b5050565b6033546001600160a01b031633146107115760405162461bcd60e51b81526004016104559061191b565b61071b6000611146565b565b60008061072983610c45565b6001600160a01b03841660009081526066602052604081205491925090815b8181101561080d576001600160a01b038616600090815260666020526040902080546107f991908390811061078d57634e487b7160e01b600052603260045260246000fd5b600091825260208083206004909202909101546001600160a01b038a168352606690915260409091208054849081106107d657634e487b7160e01b600052603260045260246000fd5b9060005260206000209060040201600101546107f291906119a7565b8490611198565b92508061080581611a01565b915050610748565b506108188284610db3565b93505050915091565b6033546001600160a01b0316331461084b5760405162461bcd60e51b81526004016104559061191b565b60005b825181101561046957816069600085848151811061087c57634e487b7160e01b600052603260045260246000fd5b60200260200101516001600160a01b03166001600160a01b0316815260200190815260200160002060006101000a81548160ff0219169083151502179055507f91aa7a2d9df8075bec5db0fe3a74c12fb8d3cb31a4cb0bc27ebdc7d45cdd93a98382815181106108fc57634e487b7160e01b600052603260045260246000fd5b6020026020010151836040516109299291906001600160a01b039290921682521515602082015260400190565b60405180910390a18061093b81611a01565b91505061084e565b6001600160a01b0381166000908152606660205260409020805490815b8015610bf95760006109736001836119a7565b9050600061098186836102ec565b90508015610be5576109c4818584815481106109ad57634e487b7160e01b600052603260045260246000fd5b600091825260209091206004909102015490611198565b8483815481106109e457634e487b7160e01b600052603260045260246000fd5b6000918252602090912060049091020155606554610a0c906001600160a01b031687836111a4565b838281548110610a2c57634e487b7160e01b600052603260045260246000fd5b906000526020600020906004020160010154848381548110610a5e57634e487b7160e01b600052603260045260246000fd5b90600052602060002090600402016000015410610ba2578354600090610a86906001906119a7565b9050848181548110610aa857634e487b7160e01b600052603260045260246000fd5b906000526020600020906004020160000154858481548110610ada57634e487b7160e01b600052603260045260246000fd5b906000526020600020906004020160000181905550848181548110610b0f57634e487b7160e01b600052603260045260246000fd5b906000526020600020906004020160010154858481548110610b4157634e487b7160e01b600052603260045260246000fd5b90600052602060002090600402016001018190555084805480610b7457634e487b7160e01b600052603160045260246000fd5b6000828152602081206004600019909301928302018181556001810182905560028101829055600301559055505b604080516001600160a01b0388168152602081018390527f6381d9813cabeb57471b5a7e05078e64845ccdb563146a6911d536f24ce960f1910160405180910390a15b82610bef816119ea565b9350505050610960565b50505050565b60666020528160005260406000208181548110610c1b57600080fd5b60009182526020909120600490910201805460018201546002830154600390930154919450925084565b6001600160a01b0381166000908152606660205260408120548190815b81811015610c8b57610c776107f286836102ec565b925080610c8381611a01565b915050610c62565b50909150505b919050565b3360009081526069602052604090205460ff16610d015760405162461bcd60e51b815260206004820152602360248201527f6f6e6c79207665737465722063616e2073656e642072657761726420666f72206044820152623232bb60e91b6064820152608401610455565b6065546106e3906001600160a01b031683836111a4565b6033546001600160a01b03163314610d425760405162461bcd60e51b81526004016104559061191b565b6001600160a01b038116610da75760405162461bcd60e51b815260206004820152602660248201527f4f776e61626c653a206e6577206f776e657220697320746865207a65726f206160448201526564647265737360d01b6064820152608401610455565b610db081611146565b50565b6000610dbf82846119a7565b9392505050565b6000610dbf8284611988565b6000610dbf8284611968565b6001600160a01b038316610e045760405162461bcd60e51b8152600401610455906118aa565b6040516331a9108f60e11b81526004810182905230906001600160a01b03841690636352211e9060240160206040518083038186803b158015610e4657600080fd5b505afa158015610e5a573d6000803e3d6000fd5b505050506040513d601f19601f82011682018060405250810190610e7e9190611655565b6001600160a01b03161415610469576040516323b872dd60e01b81523060048201526001600160a01b038481166024830152604482018390528316906323b872dd90606401600060405180830381600087803b158015610edd57600080fd5b505af1158015610ef1573d6000803e3d6000fd5b5050505080826001600160a01b0316846001600160a01b03167ffefe036cac4ee3a4aca074a81cbcc4376e1484693289078dbec149c890101d5b60405160405180910390a4505050565b6001600160a01b038316610f615760405162461bcd60e51b8152600401610455906118aa565b6040516370a0823160e01b815230600482015281906001600160a01b038416906370a082319060240160206040518083038186803b158015610fa257600080fd5b505afa158015610fb6573d6000803e3d6000fd5b505050506040513d601f19601f82011682018060405250810190610fda9190611843565b1061046957610ff36001600160a01b03831684836111a4565b816001600160a01b0316836001600160a01b03167f6c9d637297625e945b296ff73a71fcfbd0a9e062652b6491a921c4c60194176b8360405161103891815260200190565b60405180910390a3505050565b600054610100900460ff168061105e575060005460ff16155b61107a5760405162461bcd60e51b8152600401610455906118cd565b600054610100900460ff1615801561109c576000805461ffff19166101011790555b6110a46111f6565b6110ac611260565b8015610db0576000805461ff001916905550565b6001600160a01b0382166110e65760405162461bcd60e51b8152600401610455906118aa565b8047106106e3576111006001600160a01b038316826112c0565b816001600160a01b03167eddb683bb45cd5d0ad8a200c6fae7152b1c236ee90a4a37db692407f5cc38bd8260405161113a91815260200190565b60405180910390a25050565b603380546001600160a01b038381166001600160a01b0319831681179093556040519116919082907f8be0079c531659141344cd1fd0a4f28419497f9722a3daafe3b4186f6b6457e090600090a35050565b6000610dbf8284611950565b604080516001600160a01b038416602482015260448082018490528251808303909101815260649091019091526020810180516001600160e01b031663a9059cbb60e01b1790526104699084906113d9565b600054610100900460ff168061120f575060005460ff16155b61122b5760405162461bcd60e51b8152600401610455906118cd565b600054610100900460ff161580156110ac576000805461ffff19166101011790558015610db0576000805461ff001916905550565b600054610100900460ff1680611279575060005460ff16155b6112955760405162461bcd60e51b8152600401610455906118cd565b600054610100900460ff161580156112b7576000805461ffff19166101011790555b6110ac33611146565b804710156113105760405162461bcd60e51b815260206004820152601d60248201527f416464726573733a20696e73756666696369656e742062616c616e63650000006044820152606401610455565b6000826001600160a01b03168260405160006040518083038185875af1925050503d806000811461135d576040519150601f19603f3d011682016040523d82523d6000602084013e611362565b606091505b50509050806104695760405162461bcd60e51b815260206004820152603a60248201527f416464726573733a20756e61626c6520746f2073656e642076616c75652c207260448201527f6563697069656e74206d617920686176652072657665727465640000000000006064820152608401610455565b600061142e826040518060400160405280602081526020017f5361666545524332303a206c6f772d6c6576656c2063616c6c206661696c6564815250856001600160a01b03166114ab9092919063ffffffff16565b805190915015610469578080602001905181019061144c9190611827565b6104695760405162461bcd60e51b815260206004820152602a60248201527f5361666545524332303a204552433230206f7065726174696f6e20646964206e6044820152691bdd081cdd58d8d9595960b21b6064820152608401610455565b60606114ba84846000856114c2565b949350505050565b6060824710156115235760405162461bcd60e51b815260206004820152602660248201527f416464726573733a20696e73756666696369656e742062616c616e636520666f6044820152651c8818d85b1b60d21b6064820152608401610455565b843b6115715760405162461bcd60e51b815260206004820152601d60248201527f416464726573733a2063616c6c20746f206e6f6e2d636f6e74726163740000006044820152606401610455565b600080866001600160a01b0316858760405161158d919061185b565b60006040518083038185875af1925050503d80600081146115ca576040519150601f19603f3d011682016040523d82523d6000602084013e6115cf565b606091505b50915091506115df8282866115ea565b979650505050505050565b606083156115f9575081610dbf565b8251156116095782518084602001fd5b8160405162461bcd60e51b81526004016104559190611877565b8035610c9181611a48565b8035610c9181611a5d565b60006020828403121561164a578081fd5b8135610dbf81611a48565b600060208284031215611666578081fd5b8151610dbf81611a48565b600080600060608486031215611685578182fd5b833561169081611a48565b925060208401356116a081611a48565b929592945050506040919091013590565b600080604083850312156116c3578182fd5b82356116ce81611a48565b946020939093013593505050565b600080604083850312156116ee578182fd5b82356116f981611a48565b9150602083013561170981611a48565b809150509250929050565b60008060008060808587031215611729578081fd5b843561173481611a48565b966020860135965060408601359560600135945092505050565b60008060408385031215611760578182fd5b823567ffffffffffffffff80821115611777578384fd5b818501915085601f83011261178a578384fd5b813560208282111561179e5761179e611a32565b8160051b604051601f19603f830116810181811086821117156117c3576117c3611a32565b604052838152828101945085830182870184018b10156117e1578889fd5b8896505b8487101561180a576117f681611623565b8652600196909601959483019483016117e5565b50965061181a905087820161162e565b9450505050509250929050565b600060208284031215611838578081fd5b8151610dbf81611a5d565b600060208284031215611854578081fd5b5051919050565b6000825161186d8184602087016119be565b9190910192915050565b60006020825282518060208401526118968160408501602087016119be565b601f01601f19169190910160400192915050565b6020808252600990820152684248503a452d34303360b81b604082015260600190565b6020808252602e908201527f496e697469616c697a61626c653a20636f6e747261637420697320616c72656160408201526d191e481a5b9a5d1a585b1a5e995960921b606082015260800190565b6020808252818101527f4f776e61626c653a2063616c6c6572206973206e6f7420746865206f776e6572604082015260600190565b6000821982111561196357611963611a1c565b500190565b60008261198357634e487b7160e01b81526012600452602481fd5b500490565b60008160001904831182151516156119a2576119a2611a1c565b500290565b6000828210156119b9576119b9611a1c565b500390565b60005b838110156119d95781810151838201526020016119c1565b83811115610bf95750506000910152565b6000816119f9576119f9611a1c565b506000190190565b6000600019821415611a1557611a15611a1c565b5060010190565b634e487b7160e01b600052601160045260246000fd5b634e487b7160e01b600052604160045260246000fd5b6001600160a01b0381168114610db057600080fd5b8015158114610db057600080fdfea2646970667358221220466d486b3f395e2c56efa6d048c169ea76294345fc0ef79ad11919e76813e03364736f6c63430008030033",
  "linkReferences": {},
  "deployedLinkReferences": {}
}